
EEE3088F_HAT_C_Code.elf:     file format elf32-littlearm

Sections:
Idx Name          Size      VMA       LMA       File off  Algn
  0 .isr_vector   000000c0  08000000  08000000  00010000  2**0
                  CONTENTS, ALLOC, LOAD, READONLY, DATA
  1 .text         0000af9c  080000c0  080000c0  000100c0  2**2
                  CONTENTS, ALLOC, LOAD, READONLY, CODE
  2 .rodata       000005f8  0800b060  0800b060  0001b060  2**3
                  CONTENTS, ALLOC, LOAD, READONLY, DATA
  3 .ARM.extab    00000000  0800b658  0800b658  000201dc  2**0
                  CONTENTS
  4 .ARM          00000000  0800b658  0800b658  000201dc  2**0
                  CONTENTS
  5 .preinit_array 00000000  0800b658  0800b658  000201dc  2**0
                  CONTENTS, ALLOC, LOAD, DATA
  6 .init_array   00000004  0800b658  0800b658  0001b658  2**2
                  CONTENTS, ALLOC, LOAD, DATA
  7 .fini_array   00000004  0800b65c  0800b65c  0001b65c  2**2
                  CONTENTS, ALLOC, LOAD, DATA
  8 .data         000001dc  20000000  0800b660  00020000  2**2
                  CONTENTS, ALLOC, LOAD, DATA
  9 .bss          000001e8  200001dc  0800b83c  000201dc  2**2
                  ALLOC
 10 ._user_heap_stack 00000604  200003c4  0800b83c  000203c4  2**0
                  ALLOC
 11 .ARM.attributes 00000028  00000000  00000000  000201dc  2**0
                  CONTENTS, READONLY
 12 .debug_info   0000f1f3  00000000  00000000  00020204  2**0
                  CONTENTS, READONLY, DEBUGGING, OCTETS
 13 .debug_abbrev 000023d5  00000000  00000000  0002f3f7  2**0
                  CONTENTS, READONLY, DEBUGGING, OCTETS
 14 .debug_aranges 00000d78  00000000  00000000  000317d0  2**3
                  CONTENTS, READONLY, DEBUGGING, OCTETS
 15 .debug_ranges 00000c70  00000000  00000000  00032548  2**3
                  CONTENTS, READONLY, DEBUGGING, OCTETS
 16 .debug_macro  00013ed2  00000000  00000000  000331b8  2**0
                  CONTENTS, READONLY, DEBUGGING, OCTETS
 17 .debug_line   000112bb  00000000  00000000  0004708a  2**0
                  CONTENTS, READONLY, DEBUGGING, OCTETS
 18 .debug_str    00072f79  00000000  00000000  00058345  2**0
                  CONTENTS, READONLY, DEBUGGING, OCTETS
 19 .comment      00000050  00000000  00000000  000cb2be  2**0
                  CONTENTS, READONLY
 20 .debug_frame  000045a8  00000000  00000000  000cb310  2**2
                  CONTENTS, READONLY, DEBUGGING, OCTETS

Disassembly of section .text:

080000c0 <__do_global_dtors_aux>:
 80000c0:	b510      	push	{r4, lr}
 80000c2:	4c06      	ldr	r4, [pc, #24]	; (80000dc <__do_global_dtors_aux+0x1c>)
 80000c4:	7823      	ldrb	r3, [r4, #0]
 80000c6:	2b00      	cmp	r3, #0
 80000c8:	d107      	bne.n	80000da <__do_global_dtors_aux+0x1a>
 80000ca:	4b05      	ldr	r3, [pc, #20]	; (80000e0 <__do_global_dtors_aux+0x20>)
 80000cc:	2b00      	cmp	r3, #0
 80000ce:	d002      	beq.n	80000d6 <__do_global_dtors_aux+0x16>
 80000d0:	4804      	ldr	r0, [pc, #16]	; (80000e4 <__do_global_dtors_aux+0x24>)
 80000d2:	e000      	b.n	80000d6 <__do_global_dtors_aux+0x16>
 80000d4:	bf00      	nop
 80000d6:	2301      	movs	r3, #1
 80000d8:	7023      	strb	r3, [r4, #0]
 80000da:	bd10      	pop	{r4, pc}
 80000dc:	200001dc 	.word	0x200001dc
 80000e0:	00000000 	.word	0x00000000
 80000e4:	0800b044 	.word	0x0800b044

080000e8 <frame_dummy>:
 80000e8:	4b04      	ldr	r3, [pc, #16]	; (80000fc <frame_dummy+0x14>)
 80000ea:	b510      	push	{r4, lr}
 80000ec:	2b00      	cmp	r3, #0
 80000ee:	d003      	beq.n	80000f8 <frame_dummy+0x10>
 80000f0:	4903      	ldr	r1, [pc, #12]	; (8000100 <frame_dummy+0x18>)
 80000f2:	4804      	ldr	r0, [pc, #16]	; (8000104 <frame_dummy+0x1c>)
 80000f4:	e000      	b.n	80000f8 <frame_dummy+0x10>
 80000f6:	bf00      	nop
 80000f8:	bd10      	pop	{r4, pc}
 80000fa:	46c0      	nop			; (mov r8, r8)
 80000fc:	00000000 	.word	0x00000000
 8000100:	200001e0 	.word	0x200001e0
 8000104:	0800b044 	.word	0x0800b044

08000108 <strlen>:
 8000108:	2300      	movs	r3, #0
 800010a:	5cc2      	ldrb	r2, [r0, r3]
 800010c:	3301      	adds	r3, #1
 800010e:	2a00      	cmp	r2, #0
 8000110:	d1fb      	bne.n	800010a <strlen+0x2>
 8000112:	1e58      	subs	r0, r3, #1
 8000114:	4770      	bx	lr
	...

08000118 <__gnu_thumb1_case_uqi>:
 8000118:	b402      	push	{r1}
 800011a:	4671      	mov	r1, lr
 800011c:	0849      	lsrs	r1, r1, #1
 800011e:	0049      	lsls	r1, r1, #1
 8000120:	5c09      	ldrb	r1, [r1, r0]
 8000122:	0049      	lsls	r1, r1, #1
 8000124:	448e      	add	lr, r1
 8000126:	bc02      	pop	{r1}
 8000128:	4770      	bx	lr
 800012a:	46c0      	nop			; (mov r8, r8)

0800012c <__gnu_thumb1_case_shi>:
 800012c:	b403      	push	{r0, r1}
 800012e:	4671      	mov	r1, lr
 8000130:	0849      	lsrs	r1, r1, #1
 8000132:	0040      	lsls	r0, r0, #1
 8000134:	0049      	lsls	r1, r1, #1
 8000136:	5e09      	ldrsh	r1, [r1, r0]
 8000138:	0049      	lsls	r1, r1, #1
 800013a:	448e      	add	lr, r1
 800013c:	bc03      	pop	{r0, r1}
 800013e:	4770      	bx	lr

08000140 <__udivsi3>:
 8000140:	2200      	movs	r2, #0
 8000142:	0843      	lsrs	r3, r0, #1
 8000144:	428b      	cmp	r3, r1
 8000146:	d374      	bcc.n	8000232 <__udivsi3+0xf2>
 8000148:	0903      	lsrs	r3, r0, #4
 800014a:	428b      	cmp	r3, r1
 800014c:	d35f      	bcc.n	800020e <__udivsi3+0xce>
 800014e:	0a03      	lsrs	r3, r0, #8
 8000150:	428b      	cmp	r3, r1
 8000152:	d344      	bcc.n	80001de <__udivsi3+0x9e>
 8000154:	0b03      	lsrs	r3, r0, #12
 8000156:	428b      	cmp	r3, r1
 8000158:	d328      	bcc.n	80001ac <__udivsi3+0x6c>
 800015a:	0c03      	lsrs	r3, r0, #16
 800015c:	428b      	cmp	r3, r1
 800015e:	d30d      	bcc.n	800017c <__udivsi3+0x3c>
 8000160:	22ff      	movs	r2, #255	; 0xff
 8000162:	0209      	lsls	r1, r1, #8
 8000164:	ba12      	rev	r2, r2
 8000166:	0c03      	lsrs	r3, r0, #16
 8000168:	428b      	cmp	r3, r1
 800016a:	d302      	bcc.n	8000172 <__udivsi3+0x32>
 800016c:	1212      	asrs	r2, r2, #8
 800016e:	0209      	lsls	r1, r1, #8
 8000170:	d065      	beq.n	800023e <__udivsi3+0xfe>
 8000172:	0b03      	lsrs	r3, r0, #12
 8000174:	428b      	cmp	r3, r1
 8000176:	d319      	bcc.n	80001ac <__udivsi3+0x6c>
 8000178:	e000      	b.n	800017c <__udivsi3+0x3c>
 800017a:	0a09      	lsrs	r1, r1, #8
 800017c:	0bc3      	lsrs	r3, r0, #15
 800017e:	428b      	cmp	r3, r1
 8000180:	d301      	bcc.n	8000186 <__udivsi3+0x46>
 8000182:	03cb      	lsls	r3, r1, #15
 8000184:	1ac0      	subs	r0, r0, r3
 8000186:	4152      	adcs	r2, r2
 8000188:	0b83      	lsrs	r3, r0, #14
 800018a:	428b      	cmp	r3, r1
 800018c:	d301      	bcc.n	8000192 <__udivsi3+0x52>
 800018e:	038b      	lsls	r3, r1, #14
 8000190:	1ac0      	subs	r0, r0, r3
 8000192:	4152      	adcs	r2, r2
 8000194:	0b43      	lsrs	r3, r0, #13
 8000196:	428b      	cmp	r3, r1
 8000198:	d301      	bcc.n	800019e <__udivsi3+0x5e>
 800019a:	034b      	lsls	r3, r1, #13
 800019c:	1ac0      	subs	r0, r0, r3
 800019e:	4152      	adcs	r2, r2
 80001a0:	0b03      	lsrs	r3, r0, #12
 80001a2:	428b      	cmp	r3, r1
 80001a4:	d301      	bcc.n	80001aa <__udivsi3+0x6a>
 80001a6:	030b      	lsls	r3, r1, #12
 80001a8:	1ac0      	subs	r0, r0, r3
 80001aa:	4152      	adcs	r2, r2
 80001ac:	0ac3      	lsrs	r3, r0, #11
 80001ae:	428b      	cmp	r3, r1
 80001b0:	d301      	bcc.n	80001b6 <__udivsi3+0x76>
 80001b2:	02cb      	lsls	r3, r1, #11
 80001b4:	1ac0      	subs	r0, r0, r3
 80001b6:	4152      	adcs	r2, r2
 80001b8:	0a83      	lsrs	r3, r0, #10
 80001ba:	428b      	cmp	r3, r1
 80001bc:	d301      	bcc.n	80001c2 <__udivsi3+0x82>
 80001be:	028b      	lsls	r3, r1, #10
 80001c0:	1ac0      	subs	r0, r0, r3
 80001c2:	4152      	adcs	r2, r2
 80001c4:	0a43      	lsrs	r3, r0, #9
 80001c6:	428b      	cmp	r3, r1
 80001c8:	d301      	bcc.n	80001ce <__udivsi3+0x8e>
 80001ca:	024b      	lsls	r3, r1, #9
 80001cc:	1ac0      	subs	r0, r0, r3
 80001ce:	4152      	adcs	r2, r2
 80001d0:	0a03      	lsrs	r3, r0, #8
 80001d2:	428b      	cmp	r3, r1
 80001d4:	d301      	bcc.n	80001da <__udivsi3+0x9a>
 80001d6:	020b      	lsls	r3, r1, #8
 80001d8:	1ac0      	subs	r0, r0, r3
 80001da:	4152      	adcs	r2, r2
 80001dc:	d2cd      	bcs.n	800017a <__udivsi3+0x3a>
 80001de:	09c3      	lsrs	r3, r0, #7
 80001e0:	428b      	cmp	r3, r1
 80001e2:	d301      	bcc.n	80001e8 <__udivsi3+0xa8>
 80001e4:	01cb      	lsls	r3, r1, #7
 80001e6:	1ac0      	subs	r0, r0, r3
 80001e8:	4152      	adcs	r2, r2
 80001ea:	0983      	lsrs	r3, r0, #6
 80001ec:	428b      	cmp	r3, r1
 80001ee:	d301      	bcc.n	80001f4 <__udivsi3+0xb4>
 80001f0:	018b      	lsls	r3, r1, #6
 80001f2:	1ac0      	subs	r0, r0, r3
 80001f4:	4152      	adcs	r2, r2
 80001f6:	0943      	lsrs	r3, r0, #5
 80001f8:	428b      	cmp	r3, r1
 80001fa:	d301      	bcc.n	8000200 <__udivsi3+0xc0>
 80001fc:	014b      	lsls	r3, r1, #5
 80001fe:	1ac0      	subs	r0, r0, r3
 8000200:	4152      	adcs	r2, r2
 8000202:	0903      	lsrs	r3, r0, #4
 8000204:	428b      	cmp	r3, r1
 8000206:	d301      	bcc.n	800020c <__udivsi3+0xcc>
 8000208:	010b      	lsls	r3, r1, #4
 800020a:	1ac0      	subs	r0, r0, r3
 800020c:	4152      	adcs	r2, r2
 800020e:	08c3      	lsrs	r3, r0, #3
 8000210:	428b      	cmp	r3, r1
 8000212:	d301      	bcc.n	8000218 <__udivsi3+0xd8>
 8000214:	00cb      	lsls	r3, r1, #3
 8000216:	1ac0      	subs	r0, r0, r3
 8000218:	4152      	adcs	r2, r2
 800021a:	0883      	lsrs	r3, r0, #2
 800021c:	428b      	cmp	r3, r1
 800021e:	d301      	bcc.n	8000224 <__udivsi3+0xe4>
 8000220:	008b      	lsls	r3, r1, #2
 8000222:	1ac0      	subs	r0, r0, r3
 8000224:	4152      	adcs	r2, r2
 8000226:	0843      	lsrs	r3, r0, #1
 8000228:	428b      	cmp	r3, r1
 800022a:	d301      	bcc.n	8000230 <__udivsi3+0xf0>
 800022c:	004b      	lsls	r3, r1, #1
 800022e:	1ac0      	subs	r0, r0, r3
 8000230:	4152      	adcs	r2, r2
 8000232:	1a41      	subs	r1, r0, r1
 8000234:	d200      	bcs.n	8000238 <__udivsi3+0xf8>
 8000236:	4601      	mov	r1, r0
 8000238:	4152      	adcs	r2, r2
 800023a:	4610      	mov	r0, r2
 800023c:	4770      	bx	lr
 800023e:	e7ff      	b.n	8000240 <__udivsi3+0x100>
 8000240:	b501      	push	{r0, lr}
 8000242:	2000      	movs	r0, #0
 8000244:	f000 f8f0 	bl	8000428 <__aeabi_idiv0>
 8000248:	bd02      	pop	{r1, pc}
 800024a:	46c0      	nop			; (mov r8, r8)

0800024c <__aeabi_uidivmod>:
 800024c:	2900      	cmp	r1, #0
 800024e:	d0f7      	beq.n	8000240 <__udivsi3+0x100>
 8000250:	e776      	b.n	8000140 <__udivsi3>
 8000252:	4770      	bx	lr

08000254 <__divsi3>:
 8000254:	4603      	mov	r3, r0
 8000256:	430b      	orrs	r3, r1
 8000258:	d47f      	bmi.n	800035a <__divsi3+0x106>
 800025a:	2200      	movs	r2, #0
 800025c:	0843      	lsrs	r3, r0, #1
 800025e:	428b      	cmp	r3, r1
 8000260:	d374      	bcc.n	800034c <__divsi3+0xf8>
 8000262:	0903      	lsrs	r3, r0, #4
 8000264:	428b      	cmp	r3, r1
 8000266:	d35f      	bcc.n	8000328 <__divsi3+0xd4>
 8000268:	0a03      	lsrs	r3, r0, #8
 800026a:	428b      	cmp	r3, r1
 800026c:	d344      	bcc.n	80002f8 <__divsi3+0xa4>
 800026e:	0b03      	lsrs	r3, r0, #12
 8000270:	428b      	cmp	r3, r1
 8000272:	d328      	bcc.n	80002c6 <__divsi3+0x72>
 8000274:	0c03      	lsrs	r3, r0, #16
 8000276:	428b      	cmp	r3, r1
 8000278:	d30d      	bcc.n	8000296 <__divsi3+0x42>
 800027a:	22ff      	movs	r2, #255	; 0xff
 800027c:	0209      	lsls	r1, r1, #8
 800027e:	ba12      	rev	r2, r2
 8000280:	0c03      	lsrs	r3, r0, #16
 8000282:	428b      	cmp	r3, r1
 8000284:	d302      	bcc.n	800028c <__divsi3+0x38>
 8000286:	1212      	asrs	r2, r2, #8
 8000288:	0209      	lsls	r1, r1, #8
 800028a:	d065      	beq.n	8000358 <__divsi3+0x104>
 800028c:	0b03      	lsrs	r3, r0, #12
 800028e:	428b      	cmp	r3, r1
 8000290:	d319      	bcc.n	80002c6 <__divsi3+0x72>
 8000292:	e000      	b.n	8000296 <__divsi3+0x42>
 8000294:	0a09      	lsrs	r1, r1, #8
 8000296:	0bc3      	lsrs	r3, r0, #15
 8000298:	428b      	cmp	r3, r1
 800029a:	d301      	bcc.n	80002a0 <__divsi3+0x4c>
 800029c:	03cb      	lsls	r3, r1, #15
 800029e:	1ac0      	subs	r0, r0, r3
 80002a0:	4152      	adcs	r2, r2
 80002a2:	0b83      	lsrs	r3, r0, #14
 80002a4:	428b      	cmp	r3, r1
 80002a6:	d301      	bcc.n	80002ac <__divsi3+0x58>
 80002a8:	038b      	lsls	r3, r1, #14
 80002aa:	1ac0      	subs	r0, r0, r3
 80002ac:	4152      	adcs	r2, r2
 80002ae:	0b43      	lsrs	r3, r0, #13
 80002b0:	428b      	cmp	r3, r1
 80002b2:	d301      	bcc.n	80002b8 <__divsi3+0x64>
 80002b4:	034b      	lsls	r3, r1, #13
 80002b6:	1ac0      	subs	r0, r0, r3
 80002b8:	4152      	adcs	r2, r2
 80002ba:	0b03      	lsrs	r3, r0, #12
 80002bc:	428b      	cmp	r3, r1
 80002be:	d301      	bcc.n	80002c4 <__divsi3+0x70>
 80002c0:	030b      	lsls	r3, r1, #12
 80002c2:	1ac0      	subs	r0, r0, r3
 80002c4:	4152      	adcs	r2, r2
 80002c6:	0ac3      	lsrs	r3, r0, #11
 80002c8:	428b      	cmp	r3, r1
 80002ca:	d301      	bcc.n	80002d0 <__divsi3+0x7c>
 80002cc:	02cb      	lsls	r3, r1, #11
 80002ce:	1ac0      	subs	r0, r0, r3
 80002d0:	4152      	adcs	r2, r2
 80002d2:	0a83      	lsrs	r3, r0, #10
 80002d4:	428b      	cmp	r3, r1
 80002d6:	d301      	bcc.n	80002dc <__divsi3+0x88>
 80002d8:	028b      	lsls	r3, r1, #10
 80002da:	1ac0      	subs	r0, r0, r3
 80002dc:	4152      	adcs	r2, r2
 80002de:	0a43      	lsrs	r3, r0, #9
 80002e0:	428b      	cmp	r3, r1
 80002e2:	d301      	bcc.n	80002e8 <__divsi3+0x94>
 80002e4:	024b      	lsls	r3, r1, #9
 80002e6:	1ac0      	subs	r0, r0, r3
 80002e8:	4152      	adcs	r2, r2
 80002ea:	0a03      	lsrs	r3, r0, #8
 80002ec:	428b      	cmp	r3, r1
 80002ee:	d301      	bcc.n	80002f4 <__divsi3+0xa0>
 80002f0:	020b      	lsls	r3, r1, #8
 80002f2:	1ac0      	subs	r0, r0, r3
 80002f4:	4152      	adcs	r2, r2
 80002f6:	d2cd      	bcs.n	8000294 <__divsi3+0x40>
 80002f8:	09c3      	lsrs	r3, r0, #7
 80002fa:	428b      	cmp	r3, r1
 80002fc:	d301      	bcc.n	8000302 <__divsi3+0xae>
 80002fe:	01cb      	lsls	r3, r1, #7
 8000300:	1ac0      	subs	r0, r0, r3
 8000302:	4152      	adcs	r2, r2
 8000304:	0983      	lsrs	r3, r0, #6
 8000306:	428b      	cmp	r3, r1
 8000308:	d301      	bcc.n	800030e <__divsi3+0xba>
 800030a:	018b      	lsls	r3, r1, #6
 800030c:	1ac0      	subs	r0, r0, r3
 800030e:	4152      	adcs	r2, r2
 8000310:	0943      	lsrs	r3, r0, #5
 8000312:	428b      	cmp	r3, r1
 8000314:	d301      	bcc.n	800031a <__divsi3+0xc6>
 8000316:	014b      	lsls	r3, r1, #5
 8000318:	1ac0      	subs	r0, r0, r3
 800031a:	4152      	adcs	r2, r2
 800031c:	0903      	lsrs	r3, r0, #4
 800031e:	428b      	cmp	r3, r1
 8000320:	d301      	bcc.n	8000326 <__divsi3+0xd2>
 8000322:	010b      	lsls	r3, r1, #4
 8000324:	1ac0      	subs	r0, r0, r3
 8000326:	4152      	adcs	r2, r2
 8000328:	08c3      	lsrs	r3, r0, #3
 800032a:	428b      	cmp	r3, r1
 800032c:	d301      	bcc.n	8000332 <__divsi3+0xde>
 800032e:	00cb      	lsls	r3, r1, #3
 8000330:	1ac0      	subs	r0, r0, r3
 8000332:	4152      	adcs	r2, r2
 8000334:	0883      	lsrs	r3, r0, #2
 8000336:	428b      	cmp	r3, r1
 8000338:	d301      	bcc.n	800033e <__divsi3+0xea>
 800033a:	008b      	lsls	r3, r1, #2
 800033c:	1ac0      	subs	r0, r0, r3
 800033e:	4152      	adcs	r2, r2
 8000340:	0843      	lsrs	r3, r0, #1
 8000342:	428b      	cmp	r3, r1
 8000344:	d301      	bcc.n	800034a <__divsi3+0xf6>
 8000346:	004b      	lsls	r3, r1, #1
 8000348:	1ac0      	subs	r0, r0, r3
 800034a:	4152      	adcs	r2, r2
 800034c:	1a41      	subs	r1, r0, r1
 800034e:	d200      	bcs.n	8000352 <__divsi3+0xfe>
 8000350:	4601      	mov	r1, r0
 8000352:	4152      	adcs	r2, r2
 8000354:	4610      	mov	r0, r2
 8000356:	4770      	bx	lr
 8000358:	e05d      	b.n	8000416 <__divsi3+0x1c2>
 800035a:	0fca      	lsrs	r2, r1, #31
 800035c:	d000      	beq.n	8000360 <__divsi3+0x10c>
 800035e:	4249      	negs	r1, r1
 8000360:	1003      	asrs	r3, r0, #32
 8000362:	d300      	bcc.n	8000366 <__divsi3+0x112>
 8000364:	4240      	negs	r0, r0
 8000366:	4053      	eors	r3, r2
 8000368:	2200      	movs	r2, #0
 800036a:	469c      	mov	ip, r3
 800036c:	0903      	lsrs	r3, r0, #4
 800036e:	428b      	cmp	r3, r1
 8000370:	d32d      	bcc.n	80003ce <__divsi3+0x17a>
 8000372:	0a03      	lsrs	r3, r0, #8
 8000374:	428b      	cmp	r3, r1
 8000376:	d312      	bcc.n	800039e <__divsi3+0x14a>
 8000378:	22fc      	movs	r2, #252	; 0xfc
 800037a:	0189      	lsls	r1, r1, #6
 800037c:	ba12      	rev	r2, r2
 800037e:	0a03      	lsrs	r3, r0, #8
 8000380:	428b      	cmp	r3, r1
 8000382:	d30c      	bcc.n	800039e <__divsi3+0x14a>
 8000384:	0189      	lsls	r1, r1, #6
 8000386:	1192      	asrs	r2, r2, #6
 8000388:	428b      	cmp	r3, r1
 800038a:	d308      	bcc.n	800039e <__divsi3+0x14a>
 800038c:	0189      	lsls	r1, r1, #6
 800038e:	1192      	asrs	r2, r2, #6
 8000390:	428b      	cmp	r3, r1
 8000392:	d304      	bcc.n	800039e <__divsi3+0x14a>
 8000394:	0189      	lsls	r1, r1, #6
 8000396:	d03a      	beq.n	800040e <__divsi3+0x1ba>
 8000398:	1192      	asrs	r2, r2, #6
 800039a:	e000      	b.n	800039e <__divsi3+0x14a>
 800039c:	0989      	lsrs	r1, r1, #6
 800039e:	09c3      	lsrs	r3, r0, #7
 80003a0:	428b      	cmp	r3, r1
 80003a2:	d301      	bcc.n	80003a8 <__divsi3+0x154>
 80003a4:	01cb      	lsls	r3, r1, #7
 80003a6:	1ac0      	subs	r0, r0, r3
 80003a8:	4152      	adcs	r2, r2
 80003aa:	0983      	lsrs	r3, r0, #6
 80003ac:	428b      	cmp	r3, r1
 80003ae:	d301      	bcc.n	80003b4 <__divsi3+0x160>
 80003b0:	018b      	lsls	r3, r1, #6
 80003b2:	1ac0      	subs	r0, r0, r3
 80003b4:	4152      	adcs	r2, r2
 80003b6:	0943      	lsrs	r3, r0, #5
 80003b8:	428b      	cmp	r3, r1
 80003ba:	d301      	bcc.n	80003c0 <__divsi3+0x16c>
 80003bc:	014b      	lsls	r3, r1, #5
 80003be:	1ac0      	subs	r0, r0, r3
 80003c0:	4152      	adcs	r2, r2
 80003c2:	0903      	lsrs	r3, r0, #4
 80003c4:	428b      	cmp	r3, r1
 80003c6:	d301      	bcc.n	80003cc <__divsi3+0x178>
 80003c8:	010b      	lsls	r3, r1, #4
 80003ca:	1ac0      	subs	r0, r0, r3
 80003cc:	4152      	adcs	r2, r2
 80003ce:	08c3      	lsrs	r3, r0, #3
 80003d0:	428b      	cmp	r3, r1
 80003d2:	d301      	bcc.n	80003d8 <__divsi3+0x184>
 80003d4:	00cb      	lsls	r3, r1, #3
 80003d6:	1ac0      	subs	r0, r0, r3
 80003d8:	4152      	adcs	r2, r2
 80003da:	0883      	lsrs	r3, r0, #2
 80003dc:	428b      	cmp	r3, r1
 80003de:	d301      	bcc.n	80003e4 <__divsi3+0x190>
 80003e0:	008b      	lsls	r3, r1, #2
 80003e2:	1ac0      	subs	r0, r0, r3
 80003e4:	4152      	adcs	r2, r2
 80003e6:	d2d9      	bcs.n	800039c <__divsi3+0x148>
 80003e8:	0843      	lsrs	r3, r0, #1
 80003ea:	428b      	cmp	r3, r1
 80003ec:	d301      	bcc.n	80003f2 <__divsi3+0x19e>
 80003ee:	004b      	lsls	r3, r1, #1
 80003f0:	1ac0      	subs	r0, r0, r3
 80003f2:	4152      	adcs	r2, r2
 80003f4:	1a41      	subs	r1, r0, r1
 80003f6:	d200      	bcs.n	80003fa <__divsi3+0x1a6>
 80003f8:	4601      	mov	r1, r0
 80003fa:	4663      	mov	r3, ip
 80003fc:	4152      	adcs	r2, r2
 80003fe:	105b      	asrs	r3, r3, #1
 8000400:	4610      	mov	r0, r2
 8000402:	d301      	bcc.n	8000408 <__divsi3+0x1b4>
 8000404:	4240      	negs	r0, r0
 8000406:	2b00      	cmp	r3, #0
 8000408:	d500      	bpl.n	800040c <__divsi3+0x1b8>
 800040a:	4249      	negs	r1, r1
 800040c:	4770      	bx	lr
 800040e:	4663      	mov	r3, ip
 8000410:	105b      	asrs	r3, r3, #1
 8000412:	d300      	bcc.n	8000416 <__divsi3+0x1c2>
 8000414:	4240      	negs	r0, r0
 8000416:	b501      	push	{r0, lr}
 8000418:	2000      	movs	r0, #0
 800041a:	f000 f805 	bl	8000428 <__aeabi_idiv0>
 800041e:	bd02      	pop	{r1, pc}

08000420 <__aeabi_idivmod>:
 8000420:	2900      	cmp	r1, #0
 8000422:	d0f8      	beq.n	8000416 <__divsi3+0x1c2>
 8000424:	e716      	b.n	8000254 <__divsi3>
 8000426:	4770      	bx	lr

08000428 <__aeabi_idiv0>:
 8000428:	4770      	bx	lr
 800042a:	46c0      	nop			; (mov r8, r8)

0800042c <__aeabi_cdrcmple>:
 800042c:	4684      	mov	ip, r0
 800042e:	0010      	movs	r0, r2
 8000430:	4662      	mov	r2, ip
 8000432:	468c      	mov	ip, r1
 8000434:	0019      	movs	r1, r3
 8000436:	4663      	mov	r3, ip
 8000438:	e000      	b.n	800043c <__aeabi_cdcmpeq>
 800043a:	46c0      	nop			; (mov r8, r8)

0800043c <__aeabi_cdcmpeq>:
 800043c:	b51f      	push	{r0, r1, r2, r3, r4, lr}
 800043e:	f001 faa9 	bl	8001994 <__ledf2>
 8000442:	2800      	cmp	r0, #0
 8000444:	d401      	bmi.n	800044a <__aeabi_cdcmpeq+0xe>
 8000446:	2100      	movs	r1, #0
 8000448:	42c8      	cmn	r0, r1
 800044a:	bd1f      	pop	{r0, r1, r2, r3, r4, pc}

0800044c <__aeabi_dcmpeq>:
 800044c:	b510      	push	{r4, lr}
 800044e:	f001 f9f9 	bl	8001844 <__eqdf2>
 8000452:	4240      	negs	r0, r0
 8000454:	3001      	adds	r0, #1
 8000456:	bd10      	pop	{r4, pc}

08000458 <__aeabi_dcmplt>:
 8000458:	b510      	push	{r4, lr}
 800045a:	f001 fa9b 	bl	8001994 <__ledf2>
 800045e:	2800      	cmp	r0, #0
 8000460:	db01      	blt.n	8000466 <__aeabi_dcmplt+0xe>
 8000462:	2000      	movs	r0, #0
 8000464:	bd10      	pop	{r4, pc}
 8000466:	2001      	movs	r0, #1
 8000468:	bd10      	pop	{r4, pc}
 800046a:	46c0      	nop			; (mov r8, r8)

0800046c <__aeabi_dcmple>:
 800046c:	b510      	push	{r4, lr}
 800046e:	f001 fa91 	bl	8001994 <__ledf2>
 8000472:	2800      	cmp	r0, #0
 8000474:	dd01      	ble.n	800047a <__aeabi_dcmple+0xe>
 8000476:	2000      	movs	r0, #0
 8000478:	bd10      	pop	{r4, pc}
 800047a:	2001      	movs	r0, #1
 800047c:	bd10      	pop	{r4, pc}
 800047e:	46c0      	nop			; (mov r8, r8)

08000480 <__aeabi_dcmpgt>:
 8000480:	b510      	push	{r4, lr}
 8000482:	f001 fa21 	bl	80018c8 <__gedf2>
 8000486:	2800      	cmp	r0, #0
 8000488:	dc01      	bgt.n	800048e <__aeabi_dcmpgt+0xe>
 800048a:	2000      	movs	r0, #0
 800048c:	bd10      	pop	{r4, pc}
 800048e:	2001      	movs	r0, #1
 8000490:	bd10      	pop	{r4, pc}
 8000492:	46c0      	nop			; (mov r8, r8)

08000494 <__aeabi_dcmpge>:
 8000494:	b510      	push	{r4, lr}
 8000496:	f001 fa17 	bl	80018c8 <__gedf2>
 800049a:	2800      	cmp	r0, #0
 800049c:	da01      	bge.n	80004a2 <__aeabi_dcmpge+0xe>
 800049e:	2000      	movs	r0, #0
 80004a0:	bd10      	pop	{r4, pc}
 80004a2:	2001      	movs	r0, #1
 80004a4:	bd10      	pop	{r4, pc}
 80004a6:	46c0      	nop			; (mov r8, r8)

080004a8 <__aeabi_f2uiz>:
 80004a8:	219e      	movs	r1, #158	; 0x9e
 80004aa:	b510      	push	{r4, lr}
 80004ac:	05c9      	lsls	r1, r1, #23
 80004ae:	1c04      	adds	r4, r0, #0
 80004b0:	f002 fa34 	bl	800291c <__aeabi_fcmpge>
 80004b4:	2800      	cmp	r0, #0
 80004b6:	d103      	bne.n	80004c0 <__aeabi_f2uiz+0x18>
 80004b8:	1c20      	adds	r0, r4, #0
 80004ba:	f000 fae1 	bl	8000a80 <__aeabi_f2iz>
 80004be:	bd10      	pop	{r4, pc}
 80004c0:	219e      	movs	r1, #158	; 0x9e
 80004c2:	1c20      	adds	r0, r4, #0
 80004c4:	05c9      	lsls	r1, r1, #23
 80004c6:	f000 f92d 	bl	8000724 <__aeabi_fsub>
 80004ca:	f000 fad9 	bl	8000a80 <__aeabi_f2iz>
 80004ce:	2380      	movs	r3, #128	; 0x80
 80004d0:	061b      	lsls	r3, r3, #24
 80004d2:	469c      	mov	ip, r3
 80004d4:	4460      	add	r0, ip
 80004d6:	e7f2      	b.n	80004be <__aeabi_f2uiz+0x16>

080004d8 <__aeabi_fmul>:
 80004d8:	b5f0      	push	{r4, r5, r6, r7, lr}
 80004da:	464f      	mov	r7, r9
 80004dc:	4646      	mov	r6, r8
 80004de:	46d6      	mov	lr, sl
 80004e0:	0244      	lsls	r4, r0, #9
 80004e2:	0045      	lsls	r5, r0, #1
 80004e4:	b5c0      	push	{r6, r7, lr}
 80004e6:	0a64      	lsrs	r4, r4, #9
 80004e8:	1c0f      	adds	r7, r1, #0
 80004ea:	0e2d      	lsrs	r5, r5, #24
 80004ec:	0fc6      	lsrs	r6, r0, #31
 80004ee:	2d00      	cmp	r5, #0
 80004f0:	d100      	bne.n	80004f4 <__aeabi_fmul+0x1c>
 80004f2:	e08d      	b.n	8000610 <__aeabi_fmul+0x138>
 80004f4:	2dff      	cmp	r5, #255	; 0xff
 80004f6:	d100      	bne.n	80004fa <__aeabi_fmul+0x22>
 80004f8:	e092      	b.n	8000620 <__aeabi_fmul+0x148>
 80004fa:	2300      	movs	r3, #0
 80004fc:	2080      	movs	r0, #128	; 0x80
 80004fe:	4699      	mov	r9, r3
 8000500:	469a      	mov	sl, r3
 8000502:	00e4      	lsls	r4, r4, #3
 8000504:	04c0      	lsls	r0, r0, #19
 8000506:	4304      	orrs	r4, r0
 8000508:	3d7f      	subs	r5, #127	; 0x7f
 800050a:	0278      	lsls	r0, r7, #9
 800050c:	0a43      	lsrs	r3, r0, #9
 800050e:	4698      	mov	r8, r3
 8000510:	007b      	lsls	r3, r7, #1
 8000512:	0e1b      	lsrs	r3, r3, #24
 8000514:	0fff      	lsrs	r7, r7, #31
 8000516:	2b00      	cmp	r3, #0
 8000518:	d100      	bne.n	800051c <__aeabi_fmul+0x44>
 800051a:	e070      	b.n	80005fe <__aeabi_fmul+0x126>
 800051c:	2bff      	cmp	r3, #255	; 0xff
 800051e:	d100      	bne.n	8000522 <__aeabi_fmul+0x4a>
 8000520:	e086      	b.n	8000630 <__aeabi_fmul+0x158>
 8000522:	4642      	mov	r2, r8
 8000524:	00d0      	lsls	r0, r2, #3
 8000526:	2280      	movs	r2, #128	; 0x80
 8000528:	3b7f      	subs	r3, #127	; 0x7f
 800052a:	18ed      	adds	r5, r5, r3
 800052c:	2300      	movs	r3, #0
 800052e:	04d2      	lsls	r2, r2, #19
 8000530:	4302      	orrs	r2, r0
 8000532:	4690      	mov	r8, r2
 8000534:	469c      	mov	ip, r3
 8000536:	0031      	movs	r1, r6
 8000538:	464b      	mov	r3, r9
 800053a:	4079      	eors	r1, r7
 800053c:	1c68      	adds	r0, r5, #1
 800053e:	2b0f      	cmp	r3, #15
 8000540:	d81c      	bhi.n	800057c <__aeabi_fmul+0xa4>
 8000542:	4a76      	ldr	r2, [pc, #472]	; (800071c <__aeabi_fmul+0x244>)
 8000544:	009b      	lsls	r3, r3, #2
 8000546:	58d3      	ldr	r3, [r2, r3]
 8000548:	469f      	mov	pc, r3
 800054a:	0039      	movs	r1, r7
 800054c:	4644      	mov	r4, r8
 800054e:	46e2      	mov	sl, ip
 8000550:	4653      	mov	r3, sl
 8000552:	2b02      	cmp	r3, #2
 8000554:	d00f      	beq.n	8000576 <__aeabi_fmul+0x9e>
 8000556:	2b03      	cmp	r3, #3
 8000558:	d100      	bne.n	800055c <__aeabi_fmul+0x84>
 800055a:	e0d7      	b.n	800070c <__aeabi_fmul+0x234>
 800055c:	2b01      	cmp	r3, #1
 800055e:	d137      	bne.n	80005d0 <__aeabi_fmul+0xf8>
 8000560:	2000      	movs	r0, #0
 8000562:	2400      	movs	r4, #0
 8000564:	05c0      	lsls	r0, r0, #23
 8000566:	4320      	orrs	r0, r4
 8000568:	07c9      	lsls	r1, r1, #31
 800056a:	4308      	orrs	r0, r1
 800056c:	bce0      	pop	{r5, r6, r7}
 800056e:	46ba      	mov	sl, r7
 8000570:	46b1      	mov	r9, r6
 8000572:	46a8      	mov	r8, r5
 8000574:	bdf0      	pop	{r4, r5, r6, r7, pc}
 8000576:	20ff      	movs	r0, #255	; 0xff
 8000578:	2400      	movs	r4, #0
 800057a:	e7f3      	b.n	8000564 <__aeabi_fmul+0x8c>
 800057c:	0c26      	lsrs	r6, r4, #16
 800057e:	0424      	lsls	r4, r4, #16
 8000580:	0c22      	lsrs	r2, r4, #16
 8000582:	4644      	mov	r4, r8
 8000584:	0424      	lsls	r4, r4, #16
 8000586:	0c24      	lsrs	r4, r4, #16
 8000588:	4643      	mov	r3, r8
 800058a:	0027      	movs	r7, r4
 800058c:	0c1b      	lsrs	r3, r3, #16
 800058e:	4357      	muls	r7, r2
 8000590:	4374      	muls	r4, r6
 8000592:	435a      	muls	r2, r3
 8000594:	435e      	muls	r6, r3
 8000596:	1912      	adds	r2, r2, r4
 8000598:	0c3b      	lsrs	r3, r7, #16
 800059a:	189b      	adds	r3, r3, r2
 800059c:	429c      	cmp	r4, r3
 800059e:	d903      	bls.n	80005a8 <__aeabi_fmul+0xd0>
 80005a0:	2280      	movs	r2, #128	; 0x80
 80005a2:	0252      	lsls	r2, r2, #9
 80005a4:	4694      	mov	ip, r2
 80005a6:	4466      	add	r6, ip
 80005a8:	043f      	lsls	r7, r7, #16
 80005aa:	041a      	lsls	r2, r3, #16
 80005ac:	0c3f      	lsrs	r7, r7, #16
 80005ae:	19d2      	adds	r2, r2, r7
 80005b0:	0194      	lsls	r4, r2, #6
 80005b2:	1e67      	subs	r7, r4, #1
 80005b4:	41bc      	sbcs	r4, r7
 80005b6:	0c1b      	lsrs	r3, r3, #16
 80005b8:	0e92      	lsrs	r2, r2, #26
 80005ba:	199b      	adds	r3, r3, r6
 80005bc:	4314      	orrs	r4, r2
 80005be:	019b      	lsls	r3, r3, #6
 80005c0:	431c      	orrs	r4, r3
 80005c2:	011b      	lsls	r3, r3, #4
 80005c4:	d400      	bmi.n	80005c8 <__aeabi_fmul+0xf0>
 80005c6:	e09b      	b.n	8000700 <__aeabi_fmul+0x228>
 80005c8:	2301      	movs	r3, #1
 80005ca:	0862      	lsrs	r2, r4, #1
 80005cc:	401c      	ands	r4, r3
 80005ce:	4314      	orrs	r4, r2
 80005d0:	0002      	movs	r2, r0
 80005d2:	327f      	adds	r2, #127	; 0x7f
 80005d4:	2a00      	cmp	r2, #0
 80005d6:	dd64      	ble.n	80006a2 <__aeabi_fmul+0x1ca>
 80005d8:	0763      	lsls	r3, r4, #29
 80005da:	d004      	beq.n	80005e6 <__aeabi_fmul+0x10e>
 80005dc:	230f      	movs	r3, #15
 80005de:	4023      	ands	r3, r4
 80005e0:	2b04      	cmp	r3, #4
 80005e2:	d000      	beq.n	80005e6 <__aeabi_fmul+0x10e>
 80005e4:	3404      	adds	r4, #4
 80005e6:	0123      	lsls	r3, r4, #4
 80005e8:	d503      	bpl.n	80005f2 <__aeabi_fmul+0x11a>
 80005ea:	0002      	movs	r2, r0
 80005ec:	4b4c      	ldr	r3, [pc, #304]	; (8000720 <__aeabi_fmul+0x248>)
 80005ee:	3280      	adds	r2, #128	; 0x80
 80005f0:	401c      	ands	r4, r3
 80005f2:	2afe      	cmp	r2, #254	; 0xfe
 80005f4:	dcbf      	bgt.n	8000576 <__aeabi_fmul+0x9e>
 80005f6:	01a4      	lsls	r4, r4, #6
 80005f8:	0a64      	lsrs	r4, r4, #9
 80005fa:	b2d0      	uxtb	r0, r2
 80005fc:	e7b2      	b.n	8000564 <__aeabi_fmul+0x8c>
 80005fe:	4643      	mov	r3, r8
 8000600:	2b00      	cmp	r3, #0
 8000602:	d13d      	bne.n	8000680 <__aeabi_fmul+0x1a8>
 8000604:	464a      	mov	r2, r9
 8000606:	3301      	adds	r3, #1
 8000608:	431a      	orrs	r2, r3
 800060a:	4691      	mov	r9, r2
 800060c:	469c      	mov	ip, r3
 800060e:	e792      	b.n	8000536 <__aeabi_fmul+0x5e>
 8000610:	2c00      	cmp	r4, #0
 8000612:	d129      	bne.n	8000668 <__aeabi_fmul+0x190>
 8000614:	2304      	movs	r3, #4
 8000616:	4699      	mov	r9, r3
 8000618:	3b03      	subs	r3, #3
 800061a:	2500      	movs	r5, #0
 800061c:	469a      	mov	sl, r3
 800061e:	e774      	b.n	800050a <__aeabi_fmul+0x32>
 8000620:	2c00      	cmp	r4, #0
 8000622:	d11b      	bne.n	800065c <__aeabi_fmul+0x184>
 8000624:	2308      	movs	r3, #8
 8000626:	4699      	mov	r9, r3
 8000628:	3b06      	subs	r3, #6
 800062a:	25ff      	movs	r5, #255	; 0xff
 800062c:	469a      	mov	sl, r3
 800062e:	e76c      	b.n	800050a <__aeabi_fmul+0x32>
 8000630:	4643      	mov	r3, r8
 8000632:	35ff      	adds	r5, #255	; 0xff
 8000634:	2b00      	cmp	r3, #0
 8000636:	d10b      	bne.n	8000650 <__aeabi_fmul+0x178>
 8000638:	2302      	movs	r3, #2
 800063a:	464a      	mov	r2, r9
 800063c:	431a      	orrs	r2, r3
 800063e:	4691      	mov	r9, r2
 8000640:	469c      	mov	ip, r3
 8000642:	e778      	b.n	8000536 <__aeabi_fmul+0x5e>
 8000644:	4653      	mov	r3, sl
 8000646:	0031      	movs	r1, r6
 8000648:	2b02      	cmp	r3, #2
 800064a:	d000      	beq.n	800064e <__aeabi_fmul+0x176>
 800064c:	e783      	b.n	8000556 <__aeabi_fmul+0x7e>
 800064e:	e792      	b.n	8000576 <__aeabi_fmul+0x9e>
 8000650:	2303      	movs	r3, #3
 8000652:	464a      	mov	r2, r9
 8000654:	431a      	orrs	r2, r3
 8000656:	4691      	mov	r9, r2
 8000658:	469c      	mov	ip, r3
 800065a:	e76c      	b.n	8000536 <__aeabi_fmul+0x5e>
 800065c:	230c      	movs	r3, #12
 800065e:	4699      	mov	r9, r3
 8000660:	3b09      	subs	r3, #9
 8000662:	25ff      	movs	r5, #255	; 0xff
 8000664:	469a      	mov	sl, r3
 8000666:	e750      	b.n	800050a <__aeabi_fmul+0x32>
 8000668:	0020      	movs	r0, r4
 800066a:	f002 f961 	bl	8002930 <__clzsi2>
 800066e:	2576      	movs	r5, #118	; 0x76
 8000670:	1f43      	subs	r3, r0, #5
 8000672:	409c      	lsls	r4, r3
 8000674:	2300      	movs	r3, #0
 8000676:	426d      	negs	r5, r5
 8000678:	4699      	mov	r9, r3
 800067a:	469a      	mov	sl, r3
 800067c:	1a2d      	subs	r5, r5, r0
 800067e:	e744      	b.n	800050a <__aeabi_fmul+0x32>
 8000680:	4640      	mov	r0, r8
 8000682:	f002 f955 	bl	8002930 <__clzsi2>
 8000686:	4642      	mov	r2, r8
 8000688:	1f43      	subs	r3, r0, #5
 800068a:	409a      	lsls	r2, r3
 800068c:	2300      	movs	r3, #0
 800068e:	1a2d      	subs	r5, r5, r0
 8000690:	4690      	mov	r8, r2
 8000692:	469c      	mov	ip, r3
 8000694:	3d76      	subs	r5, #118	; 0x76
 8000696:	e74e      	b.n	8000536 <__aeabi_fmul+0x5e>
 8000698:	2480      	movs	r4, #128	; 0x80
 800069a:	2100      	movs	r1, #0
 800069c:	20ff      	movs	r0, #255	; 0xff
 800069e:	03e4      	lsls	r4, r4, #15
 80006a0:	e760      	b.n	8000564 <__aeabi_fmul+0x8c>
 80006a2:	2301      	movs	r3, #1
 80006a4:	1a9b      	subs	r3, r3, r2
 80006a6:	2b1b      	cmp	r3, #27
 80006a8:	dd00      	ble.n	80006ac <__aeabi_fmul+0x1d4>
 80006aa:	e759      	b.n	8000560 <__aeabi_fmul+0x88>
 80006ac:	0022      	movs	r2, r4
 80006ae:	309e      	adds	r0, #158	; 0x9e
 80006b0:	40da      	lsrs	r2, r3
 80006b2:	4084      	lsls	r4, r0
 80006b4:	0013      	movs	r3, r2
 80006b6:	1e62      	subs	r2, r4, #1
 80006b8:	4194      	sbcs	r4, r2
 80006ba:	431c      	orrs	r4, r3
 80006bc:	0763      	lsls	r3, r4, #29
 80006be:	d004      	beq.n	80006ca <__aeabi_fmul+0x1f2>
 80006c0:	230f      	movs	r3, #15
 80006c2:	4023      	ands	r3, r4
 80006c4:	2b04      	cmp	r3, #4
 80006c6:	d000      	beq.n	80006ca <__aeabi_fmul+0x1f2>
 80006c8:	3404      	adds	r4, #4
 80006ca:	0163      	lsls	r3, r4, #5
 80006cc:	d51a      	bpl.n	8000704 <__aeabi_fmul+0x22c>
 80006ce:	2001      	movs	r0, #1
 80006d0:	2400      	movs	r4, #0
 80006d2:	e747      	b.n	8000564 <__aeabi_fmul+0x8c>
 80006d4:	2080      	movs	r0, #128	; 0x80
 80006d6:	03c0      	lsls	r0, r0, #15
 80006d8:	4204      	tst	r4, r0
 80006da:	d009      	beq.n	80006f0 <__aeabi_fmul+0x218>
 80006dc:	4643      	mov	r3, r8
 80006de:	4203      	tst	r3, r0
 80006e0:	d106      	bne.n	80006f0 <__aeabi_fmul+0x218>
 80006e2:	4644      	mov	r4, r8
 80006e4:	4304      	orrs	r4, r0
 80006e6:	0264      	lsls	r4, r4, #9
 80006e8:	0039      	movs	r1, r7
 80006ea:	20ff      	movs	r0, #255	; 0xff
 80006ec:	0a64      	lsrs	r4, r4, #9
 80006ee:	e739      	b.n	8000564 <__aeabi_fmul+0x8c>
 80006f0:	2080      	movs	r0, #128	; 0x80
 80006f2:	03c0      	lsls	r0, r0, #15
 80006f4:	4304      	orrs	r4, r0
 80006f6:	0264      	lsls	r4, r4, #9
 80006f8:	0031      	movs	r1, r6
 80006fa:	20ff      	movs	r0, #255	; 0xff
 80006fc:	0a64      	lsrs	r4, r4, #9
 80006fe:	e731      	b.n	8000564 <__aeabi_fmul+0x8c>
 8000700:	0028      	movs	r0, r5
 8000702:	e765      	b.n	80005d0 <__aeabi_fmul+0xf8>
 8000704:	01a4      	lsls	r4, r4, #6
 8000706:	2000      	movs	r0, #0
 8000708:	0a64      	lsrs	r4, r4, #9
 800070a:	e72b      	b.n	8000564 <__aeabi_fmul+0x8c>
 800070c:	2080      	movs	r0, #128	; 0x80
 800070e:	03c0      	lsls	r0, r0, #15
 8000710:	4304      	orrs	r4, r0
 8000712:	0264      	lsls	r4, r4, #9
 8000714:	20ff      	movs	r0, #255	; 0xff
 8000716:	0a64      	lsrs	r4, r4, #9
 8000718:	e724      	b.n	8000564 <__aeabi_fmul+0x8c>
 800071a:	46c0      	nop			; (mov r8, r8)
 800071c:	0800b18c 	.word	0x0800b18c
 8000720:	f7ffffff 	.word	0xf7ffffff

08000724 <__aeabi_fsub>:
 8000724:	b5f8      	push	{r3, r4, r5, r6, r7, lr}
 8000726:	46ce      	mov	lr, r9
 8000728:	4647      	mov	r7, r8
 800072a:	0243      	lsls	r3, r0, #9
 800072c:	0a5b      	lsrs	r3, r3, #9
 800072e:	024e      	lsls	r6, r1, #9
 8000730:	00da      	lsls	r2, r3, #3
 8000732:	4694      	mov	ip, r2
 8000734:	0a72      	lsrs	r2, r6, #9
 8000736:	4691      	mov	r9, r2
 8000738:	0045      	lsls	r5, r0, #1
 800073a:	004a      	lsls	r2, r1, #1
 800073c:	b580      	push	{r7, lr}
 800073e:	0e2d      	lsrs	r5, r5, #24
 8000740:	001f      	movs	r7, r3
 8000742:	0fc4      	lsrs	r4, r0, #31
 8000744:	0e12      	lsrs	r2, r2, #24
 8000746:	0fc9      	lsrs	r1, r1, #31
 8000748:	09b6      	lsrs	r6, r6, #6
 800074a:	2aff      	cmp	r2, #255	; 0xff
 800074c:	d05b      	beq.n	8000806 <__aeabi_fsub+0xe2>
 800074e:	2001      	movs	r0, #1
 8000750:	4041      	eors	r1, r0
 8000752:	428c      	cmp	r4, r1
 8000754:	d039      	beq.n	80007ca <__aeabi_fsub+0xa6>
 8000756:	1aa8      	subs	r0, r5, r2
 8000758:	2800      	cmp	r0, #0
 800075a:	dd5a      	ble.n	8000812 <__aeabi_fsub+0xee>
 800075c:	2a00      	cmp	r2, #0
 800075e:	d06a      	beq.n	8000836 <__aeabi_fsub+0x112>
 8000760:	2dff      	cmp	r5, #255	; 0xff
 8000762:	d100      	bne.n	8000766 <__aeabi_fsub+0x42>
 8000764:	e0d9      	b.n	800091a <__aeabi_fsub+0x1f6>
 8000766:	2280      	movs	r2, #128	; 0x80
 8000768:	04d2      	lsls	r2, r2, #19
 800076a:	4316      	orrs	r6, r2
 800076c:	281b      	cmp	r0, #27
 800076e:	dc00      	bgt.n	8000772 <__aeabi_fsub+0x4e>
 8000770:	e0e9      	b.n	8000946 <__aeabi_fsub+0x222>
 8000772:	2001      	movs	r0, #1
 8000774:	4663      	mov	r3, ip
 8000776:	1a18      	subs	r0, r3, r0
 8000778:	0143      	lsls	r3, r0, #5
 800077a:	d400      	bmi.n	800077e <__aeabi_fsub+0x5a>
 800077c:	e0b4      	b.n	80008e8 <__aeabi_fsub+0x1c4>
 800077e:	0180      	lsls	r0, r0, #6
 8000780:	0987      	lsrs	r7, r0, #6
 8000782:	0038      	movs	r0, r7
 8000784:	f002 f8d4 	bl	8002930 <__clzsi2>
 8000788:	3805      	subs	r0, #5
 800078a:	4087      	lsls	r7, r0
 800078c:	4285      	cmp	r5, r0
 800078e:	dc00      	bgt.n	8000792 <__aeabi_fsub+0x6e>
 8000790:	e0cc      	b.n	800092c <__aeabi_fsub+0x208>
 8000792:	1a2d      	subs	r5, r5, r0
 8000794:	48b5      	ldr	r0, [pc, #724]	; (8000a6c <__aeabi_fsub+0x348>)
 8000796:	4038      	ands	r0, r7
 8000798:	0743      	lsls	r3, r0, #29
 800079a:	d004      	beq.n	80007a6 <__aeabi_fsub+0x82>
 800079c:	230f      	movs	r3, #15
 800079e:	4003      	ands	r3, r0
 80007a0:	2b04      	cmp	r3, #4
 80007a2:	d000      	beq.n	80007a6 <__aeabi_fsub+0x82>
 80007a4:	3004      	adds	r0, #4
 80007a6:	0143      	lsls	r3, r0, #5
 80007a8:	d400      	bmi.n	80007ac <__aeabi_fsub+0x88>
 80007aa:	e0a0      	b.n	80008ee <__aeabi_fsub+0x1ca>
 80007ac:	1c6a      	adds	r2, r5, #1
 80007ae:	2dfe      	cmp	r5, #254	; 0xfe
 80007b0:	d100      	bne.n	80007b4 <__aeabi_fsub+0x90>
 80007b2:	e08d      	b.n	80008d0 <__aeabi_fsub+0x1ac>
 80007b4:	0180      	lsls	r0, r0, #6
 80007b6:	0a47      	lsrs	r7, r0, #9
 80007b8:	b2d2      	uxtb	r2, r2
 80007ba:	05d0      	lsls	r0, r2, #23
 80007bc:	4338      	orrs	r0, r7
 80007be:	07e4      	lsls	r4, r4, #31
 80007c0:	4320      	orrs	r0, r4
 80007c2:	bcc0      	pop	{r6, r7}
 80007c4:	46b9      	mov	r9, r7
 80007c6:	46b0      	mov	r8, r6
 80007c8:	bdf8      	pop	{r3, r4, r5, r6, r7, pc}
 80007ca:	1aa8      	subs	r0, r5, r2
 80007cc:	4680      	mov	r8, r0
 80007ce:	2800      	cmp	r0, #0
 80007d0:	dd45      	ble.n	800085e <__aeabi_fsub+0x13a>
 80007d2:	2a00      	cmp	r2, #0
 80007d4:	d070      	beq.n	80008b8 <__aeabi_fsub+0x194>
 80007d6:	2dff      	cmp	r5, #255	; 0xff
 80007d8:	d100      	bne.n	80007dc <__aeabi_fsub+0xb8>
 80007da:	e09e      	b.n	800091a <__aeabi_fsub+0x1f6>
 80007dc:	2380      	movs	r3, #128	; 0x80
 80007de:	04db      	lsls	r3, r3, #19
 80007e0:	431e      	orrs	r6, r3
 80007e2:	4643      	mov	r3, r8
 80007e4:	2b1b      	cmp	r3, #27
 80007e6:	dc00      	bgt.n	80007ea <__aeabi_fsub+0xc6>
 80007e8:	e0d2      	b.n	8000990 <__aeabi_fsub+0x26c>
 80007ea:	2001      	movs	r0, #1
 80007ec:	4460      	add	r0, ip
 80007ee:	0143      	lsls	r3, r0, #5
 80007f0:	d57a      	bpl.n	80008e8 <__aeabi_fsub+0x1c4>
 80007f2:	3501      	adds	r5, #1
 80007f4:	2dff      	cmp	r5, #255	; 0xff
 80007f6:	d06b      	beq.n	80008d0 <__aeabi_fsub+0x1ac>
 80007f8:	2301      	movs	r3, #1
 80007fa:	4a9d      	ldr	r2, [pc, #628]	; (8000a70 <__aeabi_fsub+0x34c>)
 80007fc:	4003      	ands	r3, r0
 80007fe:	0840      	lsrs	r0, r0, #1
 8000800:	4010      	ands	r0, r2
 8000802:	4318      	orrs	r0, r3
 8000804:	e7c8      	b.n	8000798 <__aeabi_fsub+0x74>
 8000806:	2e00      	cmp	r6, #0
 8000808:	d020      	beq.n	800084c <__aeabi_fsub+0x128>
 800080a:	428c      	cmp	r4, r1
 800080c:	d023      	beq.n	8000856 <__aeabi_fsub+0x132>
 800080e:	0028      	movs	r0, r5
 8000810:	38ff      	subs	r0, #255	; 0xff
 8000812:	2800      	cmp	r0, #0
 8000814:	d039      	beq.n	800088a <__aeabi_fsub+0x166>
 8000816:	1b57      	subs	r7, r2, r5
 8000818:	2d00      	cmp	r5, #0
 800081a:	d000      	beq.n	800081e <__aeabi_fsub+0xfa>
 800081c:	e09d      	b.n	800095a <__aeabi_fsub+0x236>
 800081e:	4663      	mov	r3, ip
 8000820:	2b00      	cmp	r3, #0
 8000822:	d100      	bne.n	8000826 <__aeabi_fsub+0x102>
 8000824:	e0db      	b.n	80009de <__aeabi_fsub+0x2ba>
 8000826:	1e7b      	subs	r3, r7, #1
 8000828:	2f01      	cmp	r7, #1
 800082a:	d100      	bne.n	800082e <__aeabi_fsub+0x10a>
 800082c:	e10d      	b.n	8000a4a <__aeabi_fsub+0x326>
 800082e:	2fff      	cmp	r7, #255	; 0xff
 8000830:	d071      	beq.n	8000916 <__aeabi_fsub+0x1f2>
 8000832:	001f      	movs	r7, r3
 8000834:	e098      	b.n	8000968 <__aeabi_fsub+0x244>
 8000836:	2e00      	cmp	r6, #0
 8000838:	d100      	bne.n	800083c <__aeabi_fsub+0x118>
 800083a:	e0a7      	b.n	800098c <__aeabi_fsub+0x268>
 800083c:	1e42      	subs	r2, r0, #1
 800083e:	2801      	cmp	r0, #1
 8000840:	d100      	bne.n	8000844 <__aeabi_fsub+0x120>
 8000842:	e0e6      	b.n	8000a12 <__aeabi_fsub+0x2ee>
 8000844:	28ff      	cmp	r0, #255	; 0xff
 8000846:	d068      	beq.n	800091a <__aeabi_fsub+0x1f6>
 8000848:	0010      	movs	r0, r2
 800084a:	e78f      	b.n	800076c <__aeabi_fsub+0x48>
 800084c:	2001      	movs	r0, #1
 800084e:	4041      	eors	r1, r0
 8000850:	42a1      	cmp	r1, r4
 8000852:	d000      	beq.n	8000856 <__aeabi_fsub+0x132>
 8000854:	e77f      	b.n	8000756 <__aeabi_fsub+0x32>
 8000856:	20ff      	movs	r0, #255	; 0xff
 8000858:	4240      	negs	r0, r0
 800085a:	4680      	mov	r8, r0
 800085c:	44a8      	add	r8, r5
 800085e:	4640      	mov	r0, r8
 8000860:	2800      	cmp	r0, #0
 8000862:	d038      	beq.n	80008d6 <__aeabi_fsub+0x1b2>
 8000864:	1b51      	subs	r1, r2, r5
 8000866:	2d00      	cmp	r5, #0
 8000868:	d100      	bne.n	800086c <__aeabi_fsub+0x148>
 800086a:	e0ae      	b.n	80009ca <__aeabi_fsub+0x2a6>
 800086c:	2aff      	cmp	r2, #255	; 0xff
 800086e:	d100      	bne.n	8000872 <__aeabi_fsub+0x14e>
 8000870:	e0df      	b.n	8000a32 <__aeabi_fsub+0x30e>
 8000872:	2380      	movs	r3, #128	; 0x80
 8000874:	4660      	mov	r0, ip
 8000876:	04db      	lsls	r3, r3, #19
 8000878:	4318      	orrs	r0, r3
 800087a:	4684      	mov	ip, r0
 800087c:	291b      	cmp	r1, #27
 800087e:	dc00      	bgt.n	8000882 <__aeabi_fsub+0x15e>
 8000880:	e0d9      	b.n	8000a36 <__aeabi_fsub+0x312>
 8000882:	2001      	movs	r0, #1
 8000884:	0015      	movs	r5, r2
 8000886:	1980      	adds	r0, r0, r6
 8000888:	e7b1      	b.n	80007ee <__aeabi_fsub+0xca>
 800088a:	20fe      	movs	r0, #254	; 0xfe
 800088c:	1c6a      	adds	r2, r5, #1
 800088e:	4210      	tst	r0, r2
 8000890:	d171      	bne.n	8000976 <__aeabi_fsub+0x252>
 8000892:	2d00      	cmp	r5, #0
 8000894:	d000      	beq.n	8000898 <__aeabi_fsub+0x174>
 8000896:	e0a6      	b.n	80009e6 <__aeabi_fsub+0x2c2>
 8000898:	4663      	mov	r3, ip
 800089a:	2b00      	cmp	r3, #0
 800089c:	d100      	bne.n	80008a0 <__aeabi_fsub+0x17c>
 800089e:	e0d9      	b.n	8000a54 <__aeabi_fsub+0x330>
 80008a0:	2200      	movs	r2, #0
 80008a2:	2e00      	cmp	r6, #0
 80008a4:	d100      	bne.n	80008a8 <__aeabi_fsub+0x184>
 80008a6:	e788      	b.n	80007ba <__aeabi_fsub+0x96>
 80008a8:	1b98      	subs	r0, r3, r6
 80008aa:	0143      	lsls	r3, r0, #5
 80008ac:	d400      	bmi.n	80008b0 <__aeabi_fsub+0x18c>
 80008ae:	e0e1      	b.n	8000a74 <__aeabi_fsub+0x350>
 80008b0:	4663      	mov	r3, ip
 80008b2:	000c      	movs	r4, r1
 80008b4:	1af0      	subs	r0, r6, r3
 80008b6:	e76f      	b.n	8000798 <__aeabi_fsub+0x74>
 80008b8:	2e00      	cmp	r6, #0
 80008ba:	d100      	bne.n	80008be <__aeabi_fsub+0x19a>
 80008bc:	e0b7      	b.n	8000a2e <__aeabi_fsub+0x30a>
 80008be:	0002      	movs	r2, r0
 80008c0:	3a01      	subs	r2, #1
 80008c2:	2801      	cmp	r0, #1
 80008c4:	d100      	bne.n	80008c8 <__aeabi_fsub+0x1a4>
 80008c6:	e09c      	b.n	8000a02 <__aeabi_fsub+0x2de>
 80008c8:	28ff      	cmp	r0, #255	; 0xff
 80008ca:	d026      	beq.n	800091a <__aeabi_fsub+0x1f6>
 80008cc:	4690      	mov	r8, r2
 80008ce:	e788      	b.n	80007e2 <__aeabi_fsub+0xbe>
 80008d0:	22ff      	movs	r2, #255	; 0xff
 80008d2:	2700      	movs	r7, #0
 80008d4:	e771      	b.n	80007ba <__aeabi_fsub+0x96>
 80008d6:	20fe      	movs	r0, #254	; 0xfe
 80008d8:	1c6a      	adds	r2, r5, #1
 80008da:	4210      	tst	r0, r2
 80008dc:	d064      	beq.n	80009a8 <__aeabi_fsub+0x284>
 80008de:	2aff      	cmp	r2, #255	; 0xff
 80008e0:	d0f6      	beq.n	80008d0 <__aeabi_fsub+0x1ac>
 80008e2:	0015      	movs	r5, r2
 80008e4:	4466      	add	r6, ip
 80008e6:	0870      	lsrs	r0, r6, #1
 80008e8:	0743      	lsls	r3, r0, #29
 80008ea:	d000      	beq.n	80008ee <__aeabi_fsub+0x1ca>
 80008ec:	e756      	b.n	800079c <__aeabi_fsub+0x78>
 80008ee:	08c3      	lsrs	r3, r0, #3
 80008f0:	2dff      	cmp	r5, #255	; 0xff
 80008f2:	d012      	beq.n	800091a <__aeabi_fsub+0x1f6>
 80008f4:	025b      	lsls	r3, r3, #9
 80008f6:	0a5f      	lsrs	r7, r3, #9
 80008f8:	b2ea      	uxtb	r2, r5
 80008fa:	e75e      	b.n	80007ba <__aeabi_fsub+0x96>
 80008fc:	4662      	mov	r2, ip
 80008fe:	2a00      	cmp	r2, #0
 8000900:	d100      	bne.n	8000904 <__aeabi_fsub+0x1e0>
 8000902:	e096      	b.n	8000a32 <__aeabi_fsub+0x30e>
 8000904:	2e00      	cmp	r6, #0
 8000906:	d008      	beq.n	800091a <__aeabi_fsub+0x1f6>
 8000908:	2280      	movs	r2, #128	; 0x80
 800090a:	03d2      	lsls	r2, r2, #15
 800090c:	4213      	tst	r3, r2
 800090e:	d004      	beq.n	800091a <__aeabi_fsub+0x1f6>
 8000910:	4648      	mov	r0, r9
 8000912:	4210      	tst	r0, r2
 8000914:	d101      	bne.n	800091a <__aeabi_fsub+0x1f6>
 8000916:	000c      	movs	r4, r1
 8000918:	464b      	mov	r3, r9
 800091a:	2b00      	cmp	r3, #0
 800091c:	d0d8      	beq.n	80008d0 <__aeabi_fsub+0x1ac>
 800091e:	2780      	movs	r7, #128	; 0x80
 8000920:	03ff      	lsls	r7, r7, #15
 8000922:	431f      	orrs	r7, r3
 8000924:	027f      	lsls	r7, r7, #9
 8000926:	22ff      	movs	r2, #255	; 0xff
 8000928:	0a7f      	lsrs	r7, r7, #9
 800092a:	e746      	b.n	80007ba <__aeabi_fsub+0x96>
 800092c:	2320      	movs	r3, #32
 800092e:	003a      	movs	r2, r7
 8000930:	1b45      	subs	r5, r0, r5
 8000932:	0038      	movs	r0, r7
 8000934:	3501      	adds	r5, #1
 8000936:	40ea      	lsrs	r2, r5
 8000938:	1b5d      	subs	r5, r3, r5
 800093a:	40a8      	lsls	r0, r5
 800093c:	1e43      	subs	r3, r0, #1
 800093e:	4198      	sbcs	r0, r3
 8000940:	2500      	movs	r5, #0
 8000942:	4310      	orrs	r0, r2
 8000944:	e728      	b.n	8000798 <__aeabi_fsub+0x74>
 8000946:	2320      	movs	r3, #32
 8000948:	1a1b      	subs	r3, r3, r0
 800094a:	0032      	movs	r2, r6
 800094c:	409e      	lsls	r6, r3
 800094e:	40c2      	lsrs	r2, r0
 8000950:	0030      	movs	r0, r6
 8000952:	1e43      	subs	r3, r0, #1
 8000954:	4198      	sbcs	r0, r3
 8000956:	4310      	orrs	r0, r2
 8000958:	e70c      	b.n	8000774 <__aeabi_fsub+0x50>
 800095a:	2aff      	cmp	r2, #255	; 0xff
 800095c:	d0db      	beq.n	8000916 <__aeabi_fsub+0x1f2>
 800095e:	2380      	movs	r3, #128	; 0x80
 8000960:	4660      	mov	r0, ip
 8000962:	04db      	lsls	r3, r3, #19
 8000964:	4318      	orrs	r0, r3
 8000966:	4684      	mov	ip, r0
 8000968:	2f1b      	cmp	r7, #27
 800096a:	dd56      	ble.n	8000a1a <__aeabi_fsub+0x2f6>
 800096c:	2001      	movs	r0, #1
 800096e:	000c      	movs	r4, r1
 8000970:	0015      	movs	r5, r2
 8000972:	1a30      	subs	r0, r6, r0
 8000974:	e700      	b.n	8000778 <__aeabi_fsub+0x54>
 8000976:	4663      	mov	r3, ip
 8000978:	1b9f      	subs	r7, r3, r6
 800097a:	017b      	lsls	r3, r7, #5
 800097c:	d43d      	bmi.n	80009fa <__aeabi_fsub+0x2d6>
 800097e:	2f00      	cmp	r7, #0
 8000980:	d000      	beq.n	8000984 <__aeabi_fsub+0x260>
 8000982:	e6fe      	b.n	8000782 <__aeabi_fsub+0x5e>
 8000984:	2400      	movs	r4, #0
 8000986:	2200      	movs	r2, #0
 8000988:	2700      	movs	r7, #0
 800098a:	e716      	b.n	80007ba <__aeabi_fsub+0x96>
 800098c:	0005      	movs	r5, r0
 800098e:	e7af      	b.n	80008f0 <__aeabi_fsub+0x1cc>
 8000990:	0032      	movs	r2, r6
 8000992:	4643      	mov	r3, r8
 8000994:	4641      	mov	r1, r8
 8000996:	40da      	lsrs	r2, r3
 8000998:	2320      	movs	r3, #32
 800099a:	1a5b      	subs	r3, r3, r1
 800099c:	409e      	lsls	r6, r3
 800099e:	0030      	movs	r0, r6
 80009a0:	1e43      	subs	r3, r0, #1
 80009a2:	4198      	sbcs	r0, r3
 80009a4:	4310      	orrs	r0, r2
 80009a6:	e721      	b.n	80007ec <__aeabi_fsub+0xc8>
 80009a8:	2d00      	cmp	r5, #0
 80009aa:	d1a7      	bne.n	80008fc <__aeabi_fsub+0x1d8>
 80009ac:	4663      	mov	r3, ip
 80009ae:	2b00      	cmp	r3, #0
 80009b0:	d059      	beq.n	8000a66 <__aeabi_fsub+0x342>
 80009b2:	2200      	movs	r2, #0
 80009b4:	2e00      	cmp	r6, #0
 80009b6:	d100      	bne.n	80009ba <__aeabi_fsub+0x296>
 80009b8:	e6ff      	b.n	80007ba <__aeabi_fsub+0x96>
 80009ba:	0030      	movs	r0, r6
 80009bc:	4460      	add	r0, ip
 80009be:	0143      	lsls	r3, r0, #5
 80009c0:	d592      	bpl.n	80008e8 <__aeabi_fsub+0x1c4>
 80009c2:	4b2a      	ldr	r3, [pc, #168]	; (8000a6c <__aeabi_fsub+0x348>)
 80009c4:	3501      	adds	r5, #1
 80009c6:	4018      	ands	r0, r3
 80009c8:	e78e      	b.n	80008e8 <__aeabi_fsub+0x1c4>
 80009ca:	4663      	mov	r3, ip
 80009cc:	2b00      	cmp	r3, #0
 80009ce:	d047      	beq.n	8000a60 <__aeabi_fsub+0x33c>
 80009d0:	1e4b      	subs	r3, r1, #1
 80009d2:	2901      	cmp	r1, #1
 80009d4:	d015      	beq.n	8000a02 <__aeabi_fsub+0x2de>
 80009d6:	29ff      	cmp	r1, #255	; 0xff
 80009d8:	d02b      	beq.n	8000a32 <__aeabi_fsub+0x30e>
 80009da:	0019      	movs	r1, r3
 80009dc:	e74e      	b.n	800087c <__aeabi_fsub+0x158>
 80009de:	000c      	movs	r4, r1
 80009e0:	464b      	mov	r3, r9
 80009e2:	003d      	movs	r5, r7
 80009e4:	e784      	b.n	80008f0 <__aeabi_fsub+0x1cc>
 80009e6:	4662      	mov	r2, ip
 80009e8:	2a00      	cmp	r2, #0
 80009ea:	d18b      	bne.n	8000904 <__aeabi_fsub+0x1e0>
 80009ec:	2e00      	cmp	r6, #0
 80009ee:	d192      	bne.n	8000916 <__aeabi_fsub+0x1f2>
 80009f0:	2780      	movs	r7, #128	; 0x80
 80009f2:	2400      	movs	r4, #0
 80009f4:	22ff      	movs	r2, #255	; 0xff
 80009f6:	03ff      	lsls	r7, r7, #15
 80009f8:	e6df      	b.n	80007ba <__aeabi_fsub+0x96>
 80009fa:	4663      	mov	r3, ip
 80009fc:	000c      	movs	r4, r1
 80009fe:	1af7      	subs	r7, r6, r3
 8000a00:	e6bf      	b.n	8000782 <__aeabi_fsub+0x5e>
 8000a02:	0030      	movs	r0, r6
 8000a04:	4460      	add	r0, ip
 8000a06:	2501      	movs	r5, #1
 8000a08:	0143      	lsls	r3, r0, #5
 8000a0a:	d400      	bmi.n	8000a0e <__aeabi_fsub+0x2ea>
 8000a0c:	e76c      	b.n	80008e8 <__aeabi_fsub+0x1c4>
 8000a0e:	2502      	movs	r5, #2
 8000a10:	e6f2      	b.n	80007f8 <__aeabi_fsub+0xd4>
 8000a12:	4663      	mov	r3, ip
 8000a14:	2501      	movs	r5, #1
 8000a16:	1b98      	subs	r0, r3, r6
 8000a18:	e6ae      	b.n	8000778 <__aeabi_fsub+0x54>
 8000a1a:	2320      	movs	r3, #32
 8000a1c:	4664      	mov	r4, ip
 8000a1e:	4660      	mov	r0, ip
 8000a20:	40fc      	lsrs	r4, r7
 8000a22:	1bdf      	subs	r7, r3, r7
 8000a24:	40b8      	lsls	r0, r7
 8000a26:	1e43      	subs	r3, r0, #1
 8000a28:	4198      	sbcs	r0, r3
 8000a2a:	4320      	orrs	r0, r4
 8000a2c:	e79f      	b.n	800096e <__aeabi_fsub+0x24a>
 8000a2e:	0005      	movs	r5, r0
 8000a30:	e75e      	b.n	80008f0 <__aeabi_fsub+0x1cc>
 8000a32:	464b      	mov	r3, r9
 8000a34:	e771      	b.n	800091a <__aeabi_fsub+0x1f6>
 8000a36:	2320      	movs	r3, #32
 8000a38:	4665      	mov	r5, ip
 8000a3a:	4660      	mov	r0, ip
 8000a3c:	40cd      	lsrs	r5, r1
 8000a3e:	1a59      	subs	r1, r3, r1
 8000a40:	4088      	lsls	r0, r1
 8000a42:	1e43      	subs	r3, r0, #1
 8000a44:	4198      	sbcs	r0, r3
 8000a46:	4328      	orrs	r0, r5
 8000a48:	e71c      	b.n	8000884 <__aeabi_fsub+0x160>
 8000a4a:	4663      	mov	r3, ip
 8000a4c:	000c      	movs	r4, r1
 8000a4e:	2501      	movs	r5, #1
 8000a50:	1af0      	subs	r0, r6, r3
 8000a52:	e691      	b.n	8000778 <__aeabi_fsub+0x54>
 8000a54:	2e00      	cmp	r6, #0
 8000a56:	d095      	beq.n	8000984 <__aeabi_fsub+0x260>
 8000a58:	000c      	movs	r4, r1
 8000a5a:	464f      	mov	r7, r9
 8000a5c:	2200      	movs	r2, #0
 8000a5e:	e6ac      	b.n	80007ba <__aeabi_fsub+0x96>
 8000a60:	464b      	mov	r3, r9
 8000a62:	000d      	movs	r5, r1
 8000a64:	e744      	b.n	80008f0 <__aeabi_fsub+0x1cc>
 8000a66:	464f      	mov	r7, r9
 8000a68:	2200      	movs	r2, #0
 8000a6a:	e6a6      	b.n	80007ba <__aeabi_fsub+0x96>
 8000a6c:	fbffffff 	.word	0xfbffffff
 8000a70:	7dffffff 	.word	0x7dffffff
 8000a74:	2800      	cmp	r0, #0
 8000a76:	d000      	beq.n	8000a7a <__aeabi_fsub+0x356>
 8000a78:	e736      	b.n	80008e8 <__aeabi_fsub+0x1c4>
 8000a7a:	2400      	movs	r4, #0
 8000a7c:	2700      	movs	r7, #0
 8000a7e:	e69c      	b.n	80007ba <__aeabi_fsub+0x96>

08000a80 <__aeabi_f2iz>:
 8000a80:	0241      	lsls	r1, r0, #9
 8000a82:	0042      	lsls	r2, r0, #1
 8000a84:	0fc3      	lsrs	r3, r0, #31
 8000a86:	0a49      	lsrs	r1, r1, #9
 8000a88:	2000      	movs	r0, #0
 8000a8a:	0e12      	lsrs	r2, r2, #24
 8000a8c:	2a7e      	cmp	r2, #126	; 0x7e
 8000a8e:	dd03      	ble.n	8000a98 <__aeabi_f2iz+0x18>
 8000a90:	2a9d      	cmp	r2, #157	; 0x9d
 8000a92:	dd02      	ble.n	8000a9a <__aeabi_f2iz+0x1a>
 8000a94:	4a09      	ldr	r2, [pc, #36]	; (8000abc <__aeabi_f2iz+0x3c>)
 8000a96:	1898      	adds	r0, r3, r2
 8000a98:	4770      	bx	lr
 8000a9a:	2080      	movs	r0, #128	; 0x80
 8000a9c:	0400      	lsls	r0, r0, #16
 8000a9e:	4301      	orrs	r1, r0
 8000aa0:	2a95      	cmp	r2, #149	; 0x95
 8000aa2:	dc07      	bgt.n	8000ab4 <__aeabi_f2iz+0x34>
 8000aa4:	2096      	movs	r0, #150	; 0x96
 8000aa6:	1a82      	subs	r2, r0, r2
 8000aa8:	40d1      	lsrs	r1, r2
 8000aaa:	4248      	negs	r0, r1
 8000aac:	2b00      	cmp	r3, #0
 8000aae:	d1f3      	bne.n	8000a98 <__aeabi_f2iz+0x18>
 8000ab0:	0008      	movs	r0, r1
 8000ab2:	e7f1      	b.n	8000a98 <__aeabi_f2iz+0x18>
 8000ab4:	3a96      	subs	r2, #150	; 0x96
 8000ab6:	4091      	lsls	r1, r2
 8000ab8:	e7f7      	b.n	8000aaa <__aeabi_f2iz+0x2a>
 8000aba:	46c0      	nop			; (mov r8, r8)
 8000abc:	7fffffff 	.word	0x7fffffff

08000ac0 <__aeabi_i2f>:
 8000ac0:	b5f8      	push	{r3, r4, r5, r6, r7, lr}
 8000ac2:	2800      	cmp	r0, #0
 8000ac4:	d013      	beq.n	8000aee <__aeabi_i2f+0x2e>
 8000ac6:	17c3      	asrs	r3, r0, #31
 8000ac8:	18c6      	adds	r6, r0, r3
 8000aca:	405e      	eors	r6, r3
 8000acc:	0fc4      	lsrs	r4, r0, #31
 8000ace:	0030      	movs	r0, r6
 8000ad0:	f001 ff2e 	bl	8002930 <__clzsi2>
 8000ad4:	239e      	movs	r3, #158	; 0x9e
 8000ad6:	0005      	movs	r5, r0
 8000ad8:	1a1b      	subs	r3, r3, r0
 8000ada:	2b96      	cmp	r3, #150	; 0x96
 8000adc:	dc0f      	bgt.n	8000afe <__aeabi_i2f+0x3e>
 8000ade:	2808      	cmp	r0, #8
 8000ae0:	dd01      	ble.n	8000ae6 <__aeabi_i2f+0x26>
 8000ae2:	3d08      	subs	r5, #8
 8000ae4:	40ae      	lsls	r6, r5
 8000ae6:	0276      	lsls	r6, r6, #9
 8000ae8:	0a76      	lsrs	r6, r6, #9
 8000aea:	b2d8      	uxtb	r0, r3
 8000aec:	e002      	b.n	8000af4 <__aeabi_i2f+0x34>
 8000aee:	2400      	movs	r4, #0
 8000af0:	2000      	movs	r0, #0
 8000af2:	2600      	movs	r6, #0
 8000af4:	05c0      	lsls	r0, r0, #23
 8000af6:	4330      	orrs	r0, r6
 8000af8:	07e4      	lsls	r4, r4, #31
 8000afa:	4320      	orrs	r0, r4
 8000afc:	bdf8      	pop	{r3, r4, r5, r6, r7, pc}
 8000afe:	2b99      	cmp	r3, #153	; 0x99
 8000b00:	dd0c      	ble.n	8000b1c <__aeabi_i2f+0x5c>
 8000b02:	2205      	movs	r2, #5
 8000b04:	0031      	movs	r1, r6
 8000b06:	1a12      	subs	r2, r2, r0
 8000b08:	40d1      	lsrs	r1, r2
 8000b0a:	000a      	movs	r2, r1
 8000b0c:	0001      	movs	r1, r0
 8000b0e:	0030      	movs	r0, r6
 8000b10:	311b      	adds	r1, #27
 8000b12:	4088      	lsls	r0, r1
 8000b14:	1e41      	subs	r1, r0, #1
 8000b16:	4188      	sbcs	r0, r1
 8000b18:	4302      	orrs	r2, r0
 8000b1a:	0016      	movs	r6, r2
 8000b1c:	2d05      	cmp	r5, #5
 8000b1e:	dc12      	bgt.n	8000b46 <__aeabi_i2f+0x86>
 8000b20:	0031      	movs	r1, r6
 8000b22:	4f0d      	ldr	r7, [pc, #52]	; (8000b58 <__aeabi_i2f+0x98>)
 8000b24:	4039      	ands	r1, r7
 8000b26:	0772      	lsls	r2, r6, #29
 8000b28:	d009      	beq.n	8000b3e <__aeabi_i2f+0x7e>
 8000b2a:	200f      	movs	r0, #15
 8000b2c:	4030      	ands	r0, r6
 8000b2e:	2804      	cmp	r0, #4
 8000b30:	d005      	beq.n	8000b3e <__aeabi_i2f+0x7e>
 8000b32:	3104      	adds	r1, #4
 8000b34:	014a      	lsls	r2, r1, #5
 8000b36:	d502      	bpl.n	8000b3e <__aeabi_i2f+0x7e>
 8000b38:	239f      	movs	r3, #159	; 0x9f
 8000b3a:	4039      	ands	r1, r7
 8000b3c:	1b5b      	subs	r3, r3, r5
 8000b3e:	0189      	lsls	r1, r1, #6
 8000b40:	0a4e      	lsrs	r6, r1, #9
 8000b42:	b2d8      	uxtb	r0, r3
 8000b44:	e7d6      	b.n	8000af4 <__aeabi_i2f+0x34>
 8000b46:	1f6a      	subs	r2, r5, #5
 8000b48:	4096      	lsls	r6, r2
 8000b4a:	0031      	movs	r1, r6
 8000b4c:	4f02      	ldr	r7, [pc, #8]	; (8000b58 <__aeabi_i2f+0x98>)
 8000b4e:	4039      	ands	r1, r7
 8000b50:	0772      	lsls	r2, r6, #29
 8000b52:	d0f4      	beq.n	8000b3e <__aeabi_i2f+0x7e>
 8000b54:	e7e9      	b.n	8000b2a <__aeabi_i2f+0x6a>
 8000b56:	46c0      	nop			; (mov r8, r8)
 8000b58:	fbffffff 	.word	0xfbffffff

08000b5c <__aeabi_ui2f>:
 8000b5c:	b570      	push	{r4, r5, r6, lr}
 8000b5e:	1e05      	subs	r5, r0, #0
 8000b60:	d00e      	beq.n	8000b80 <__aeabi_ui2f+0x24>
 8000b62:	f001 fee5 	bl	8002930 <__clzsi2>
 8000b66:	239e      	movs	r3, #158	; 0x9e
 8000b68:	0004      	movs	r4, r0
 8000b6a:	1a1b      	subs	r3, r3, r0
 8000b6c:	2b96      	cmp	r3, #150	; 0x96
 8000b6e:	dc0c      	bgt.n	8000b8a <__aeabi_ui2f+0x2e>
 8000b70:	2808      	cmp	r0, #8
 8000b72:	dd01      	ble.n	8000b78 <__aeabi_ui2f+0x1c>
 8000b74:	3c08      	subs	r4, #8
 8000b76:	40a5      	lsls	r5, r4
 8000b78:	026d      	lsls	r5, r5, #9
 8000b7a:	0a6d      	lsrs	r5, r5, #9
 8000b7c:	b2d8      	uxtb	r0, r3
 8000b7e:	e001      	b.n	8000b84 <__aeabi_ui2f+0x28>
 8000b80:	2000      	movs	r0, #0
 8000b82:	2500      	movs	r5, #0
 8000b84:	05c0      	lsls	r0, r0, #23
 8000b86:	4328      	orrs	r0, r5
 8000b88:	bd70      	pop	{r4, r5, r6, pc}
 8000b8a:	2b99      	cmp	r3, #153	; 0x99
 8000b8c:	dd09      	ble.n	8000ba2 <__aeabi_ui2f+0x46>
 8000b8e:	0002      	movs	r2, r0
 8000b90:	0029      	movs	r1, r5
 8000b92:	321b      	adds	r2, #27
 8000b94:	4091      	lsls	r1, r2
 8000b96:	1e4a      	subs	r2, r1, #1
 8000b98:	4191      	sbcs	r1, r2
 8000b9a:	2205      	movs	r2, #5
 8000b9c:	1a12      	subs	r2, r2, r0
 8000b9e:	40d5      	lsrs	r5, r2
 8000ba0:	430d      	orrs	r5, r1
 8000ba2:	2c05      	cmp	r4, #5
 8000ba4:	dc12      	bgt.n	8000bcc <__aeabi_ui2f+0x70>
 8000ba6:	0029      	movs	r1, r5
 8000ba8:	4e0c      	ldr	r6, [pc, #48]	; (8000bdc <__aeabi_ui2f+0x80>)
 8000baa:	4031      	ands	r1, r6
 8000bac:	076a      	lsls	r2, r5, #29
 8000bae:	d009      	beq.n	8000bc4 <__aeabi_ui2f+0x68>
 8000bb0:	200f      	movs	r0, #15
 8000bb2:	4028      	ands	r0, r5
 8000bb4:	2804      	cmp	r0, #4
 8000bb6:	d005      	beq.n	8000bc4 <__aeabi_ui2f+0x68>
 8000bb8:	3104      	adds	r1, #4
 8000bba:	014a      	lsls	r2, r1, #5
 8000bbc:	d502      	bpl.n	8000bc4 <__aeabi_ui2f+0x68>
 8000bbe:	239f      	movs	r3, #159	; 0x9f
 8000bc0:	4031      	ands	r1, r6
 8000bc2:	1b1b      	subs	r3, r3, r4
 8000bc4:	0189      	lsls	r1, r1, #6
 8000bc6:	0a4d      	lsrs	r5, r1, #9
 8000bc8:	b2d8      	uxtb	r0, r3
 8000bca:	e7db      	b.n	8000b84 <__aeabi_ui2f+0x28>
 8000bcc:	1f62      	subs	r2, r4, #5
 8000bce:	4095      	lsls	r5, r2
 8000bd0:	0029      	movs	r1, r5
 8000bd2:	4e02      	ldr	r6, [pc, #8]	; (8000bdc <__aeabi_ui2f+0x80>)
 8000bd4:	4031      	ands	r1, r6
 8000bd6:	076a      	lsls	r2, r5, #29
 8000bd8:	d0f4      	beq.n	8000bc4 <__aeabi_ui2f+0x68>
 8000bda:	e7e9      	b.n	8000bb0 <__aeabi_ui2f+0x54>
 8000bdc:	fbffffff 	.word	0xfbffffff

08000be0 <__aeabi_dadd>:
 8000be0:	b5f0      	push	{r4, r5, r6, r7, lr}
 8000be2:	464f      	mov	r7, r9
 8000be4:	4646      	mov	r6, r8
 8000be6:	46d6      	mov	lr, sl
 8000be8:	000d      	movs	r5, r1
 8000bea:	0004      	movs	r4, r0
 8000bec:	b5c0      	push	{r6, r7, lr}
 8000bee:	001f      	movs	r7, r3
 8000bf0:	0011      	movs	r1, r2
 8000bf2:	0328      	lsls	r0, r5, #12
 8000bf4:	0f62      	lsrs	r2, r4, #29
 8000bf6:	0a40      	lsrs	r0, r0, #9
 8000bf8:	4310      	orrs	r0, r2
 8000bfa:	007a      	lsls	r2, r7, #1
 8000bfc:	0d52      	lsrs	r2, r2, #21
 8000bfe:	00e3      	lsls	r3, r4, #3
 8000c00:	033c      	lsls	r4, r7, #12
 8000c02:	4691      	mov	r9, r2
 8000c04:	0a64      	lsrs	r4, r4, #9
 8000c06:	0ffa      	lsrs	r2, r7, #31
 8000c08:	0f4f      	lsrs	r7, r1, #29
 8000c0a:	006e      	lsls	r6, r5, #1
 8000c0c:	4327      	orrs	r7, r4
 8000c0e:	4692      	mov	sl, r2
 8000c10:	46b8      	mov	r8, r7
 8000c12:	0d76      	lsrs	r6, r6, #21
 8000c14:	0fed      	lsrs	r5, r5, #31
 8000c16:	00c9      	lsls	r1, r1, #3
 8000c18:	4295      	cmp	r5, r2
 8000c1a:	d100      	bne.n	8000c1e <__aeabi_dadd+0x3e>
 8000c1c:	e099      	b.n	8000d52 <__aeabi_dadd+0x172>
 8000c1e:	464c      	mov	r4, r9
 8000c20:	1b34      	subs	r4, r6, r4
 8000c22:	46a4      	mov	ip, r4
 8000c24:	2c00      	cmp	r4, #0
 8000c26:	dc00      	bgt.n	8000c2a <__aeabi_dadd+0x4a>
 8000c28:	e07c      	b.n	8000d24 <__aeabi_dadd+0x144>
 8000c2a:	464a      	mov	r2, r9
 8000c2c:	2a00      	cmp	r2, #0
 8000c2e:	d100      	bne.n	8000c32 <__aeabi_dadd+0x52>
 8000c30:	e0b8      	b.n	8000da4 <__aeabi_dadd+0x1c4>
 8000c32:	4ac5      	ldr	r2, [pc, #788]	; (8000f48 <__aeabi_dadd+0x368>)
 8000c34:	4296      	cmp	r6, r2
 8000c36:	d100      	bne.n	8000c3a <__aeabi_dadd+0x5a>
 8000c38:	e11c      	b.n	8000e74 <__aeabi_dadd+0x294>
 8000c3a:	2280      	movs	r2, #128	; 0x80
 8000c3c:	003c      	movs	r4, r7
 8000c3e:	0412      	lsls	r2, r2, #16
 8000c40:	4314      	orrs	r4, r2
 8000c42:	46a0      	mov	r8, r4
 8000c44:	4662      	mov	r2, ip
 8000c46:	2a38      	cmp	r2, #56	; 0x38
 8000c48:	dd00      	ble.n	8000c4c <__aeabi_dadd+0x6c>
 8000c4a:	e161      	b.n	8000f10 <__aeabi_dadd+0x330>
 8000c4c:	2a1f      	cmp	r2, #31
 8000c4e:	dd00      	ble.n	8000c52 <__aeabi_dadd+0x72>
 8000c50:	e1cc      	b.n	8000fec <__aeabi_dadd+0x40c>
 8000c52:	4664      	mov	r4, ip
 8000c54:	2220      	movs	r2, #32
 8000c56:	1b12      	subs	r2, r2, r4
 8000c58:	4644      	mov	r4, r8
 8000c5a:	4094      	lsls	r4, r2
 8000c5c:	000f      	movs	r7, r1
 8000c5e:	46a1      	mov	r9, r4
 8000c60:	4664      	mov	r4, ip
 8000c62:	4091      	lsls	r1, r2
 8000c64:	40e7      	lsrs	r7, r4
 8000c66:	464c      	mov	r4, r9
 8000c68:	1e4a      	subs	r2, r1, #1
 8000c6a:	4191      	sbcs	r1, r2
 8000c6c:	433c      	orrs	r4, r7
 8000c6e:	4642      	mov	r2, r8
 8000c70:	4321      	orrs	r1, r4
 8000c72:	4664      	mov	r4, ip
 8000c74:	40e2      	lsrs	r2, r4
 8000c76:	1a80      	subs	r0, r0, r2
 8000c78:	1a5c      	subs	r4, r3, r1
 8000c7a:	42a3      	cmp	r3, r4
 8000c7c:	419b      	sbcs	r3, r3
 8000c7e:	425f      	negs	r7, r3
 8000c80:	1bc7      	subs	r7, r0, r7
 8000c82:	023b      	lsls	r3, r7, #8
 8000c84:	d400      	bmi.n	8000c88 <__aeabi_dadd+0xa8>
 8000c86:	e0d0      	b.n	8000e2a <__aeabi_dadd+0x24a>
 8000c88:	027f      	lsls	r7, r7, #9
 8000c8a:	0a7f      	lsrs	r7, r7, #9
 8000c8c:	2f00      	cmp	r7, #0
 8000c8e:	d100      	bne.n	8000c92 <__aeabi_dadd+0xb2>
 8000c90:	e0ff      	b.n	8000e92 <__aeabi_dadd+0x2b2>
 8000c92:	0038      	movs	r0, r7
 8000c94:	f001 fe4c 	bl	8002930 <__clzsi2>
 8000c98:	0001      	movs	r1, r0
 8000c9a:	3908      	subs	r1, #8
 8000c9c:	2320      	movs	r3, #32
 8000c9e:	0022      	movs	r2, r4
 8000ca0:	1a5b      	subs	r3, r3, r1
 8000ca2:	408f      	lsls	r7, r1
 8000ca4:	40da      	lsrs	r2, r3
 8000ca6:	408c      	lsls	r4, r1
 8000ca8:	4317      	orrs	r7, r2
 8000caa:	42b1      	cmp	r1, r6
 8000cac:	da00      	bge.n	8000cb0 <__aeabi_dadd+0xd0>
 8000cae:	e0ff      	b.n	8000eb0 <__aeabi_dadd+0x2d0>
 8000cb0:	1b89      	subs	r1, r1, r6
 8000cb2:	1c4b      	adds	r3, r1, #1
 8000cb4:	2b1f      	cmp	r3, #31
 8000cb6:	dd00      	ble.n	8000cba <__aeabi_dadd+0xda>
 8000cb8:	e0a8      	b.n	8000e0c <__aeabi_dadd+0x22c>
 8000cba:	2220      	movs	r2, #32
 8000cbc:	0039      	movs	r1, r7
 8000cbe:	1ad2      	subs	r2, r2, r3
 8000cc0:	0020      	movs	r0, r4
 8000cc2:	4094      	lsls	r4, r2
 8000cc4:	4091      	lsls	r1, r2
 8000cc6:	40d8      	lsrs	r0, r3
 8000cc8:	1e62      	subs	r2, r4, #1
 8000cca:	4194      	sbcs	r4, r2
 8000ccc:	40df      	lsrs	r7, r3
 8000cce:	2600      	movs	r6, #0
 8000cd0:	4301      	orrs	r1, r0
 8000cd2:	430c      	orrs	r4, r1
 8000cd4:	0763      	lsls	r3, r4, #29
 8000cd6:	d009      	beq.n	8000cec <__aeabi_dadd+0x10c>
 8000cd8:	230f      	movs	r3, #15
 8000cda:	4023      	ands	r3, r4
 8000cdc:	2b04      	cmp	r3, #4
 8000cde:	d005      	beq.n	8000cec <__aeabi_dadd+0x10c>
 8000ce0:	1d23      	adds	r3, r4, #4
 8000ce2:	42a3      	cmp	r3, r4
 8000ce4:	41a4      	sbcs	r4, r4
 8000ce6:	4264      	negs	r4, r4
 8000ce8:	193f      	adds	r7, r7, r4
 8000cea:	001c      	movs	r4, r3
 8000cec:	023b      	lsls	r3, r7, #8
 8000cee:	d400      	bmi.n	8000cf2 <__aeabi_dadd+0x112>
 8000cf0:	e09e      	b.n	8000e30 <__aeabi_dadd+0x250>
 8000cf2:	4b95      	ldr	r3, [pc, #596]	; (8000f48 <__aeabi_dadd+0x368>)
 8000cf4:	3601      	adds	r6, #1
 8000cf6:	429e      	cmp	r6, r3
 8000cf8:	d100      	bne.n	8000cfc <__aeabi_dadd+0x11c>
 8000cfa:	e0b7      	b.n	8000e6c <__aeabi_dadd+0x28c>
 8000cfc:	4a93      	ldr	r2, [pc, #588]	; (8000f4c <__aeabi_dadd+0x36c>)
 8000cfe:	08e4      	lsrs	r4, r4, #3
 8000d00:	4017      	ands	r7, r2
 8000d02:	077b      	lsls	r3, r7, #29
 8000d04:	0571      	lsls	r1, r6, #21
 8000d06:	027f      	lsls	r7, r7, #9
 8000d08:	4323      	orrs	r3, r4
 8000d0a:	0b3f      	lsrs	r7, r7, #12
 8000d0c:	0d4a      	lsrs	r2, r1, #21
 8000d0e:	0512      	lsls	r2, r2, #20
 8000d10:	433a      	orrs	r2, r7
 8000d12:	07ed      	lsls	r5, r5, #31
 8000d14:	432a      	orrs	r2, r5
 8000d16:	0018      	movs	r0, r3
 8000d18:	0011      	movs	r1, r2
 8000d1a:	bce0      	pop	{r5, r6, r7}
 8000d1c:	46ba      	mov	sl, r7
 8000d1e:	46b1      	mov	r9, r6
 8000d20:	46a8      	mov	r8, r5
 8000d22:	bdf0      	pop	{r4, r5, r6, r7, pc}
 8000d24:	2c00      	cmp	r4, #0
 8000d26:	d04b      	beq.n	8000dc0 <__aeabi_dadd+0x1e0>
 8000d28:	464c      	mov	r4, r9
 8000d2a:	1ba4      	subs	r4, r4, r6
 8000d2c:	46a4      	mov	ip, r4
 8000d2e:	2e00      	cmp	r6, #0
 8000d30:	d000      	beq.n	8000d34 <__aeabi_dadd+0x154>
 8000d32:	e123      	b.n	8000f7c <__aeabi_dadd+0x39c>
 8000d34:	0004      	movs	r4, r0
 8000d36:	431c      	orrs	r4, r3
 8000d38:	d100      	bne.n	8000d3c <__aeabi_dadd+0x15c>
 8000d3a:	e1af      	b.n	800109c <__aeabi_dadd+0x4bc>
 8000d3c:	4662      	mov	r2, ip
 8000d3e:	1e54      	subs	r4, r2, #1
 8000d40:	2a01      	cmp	r2, #1
 8000d42:	d100      	bne.n	8000d46 <__aeabi_dadd+0x166>
 8000d44:	e215      	b.n	8001172 <__aeabi_dadd+0x592>
 8000d46:	4d80      	ldr	r5, [pc, #512]	; (8000f48 <__aeabi_dadd+0x368>)
 8000d48:	45ac      	cmp	ip, r5
 8000d4a:	d100      	bne.n	8000d4e <__aeabi_dadd+0x16e>
 8000d4c:	e1c8      	b.n	80010e0 <__aeabi_dadd+0x500>
 8000d4e:	46a4      	mov	ip, r4
 8000d50:	e11b      	b.n	8000f8a <__aeabi_dadd+0x3aa>
 8000d52:	464a      	mov	r2, r9
 8000d54:	1ab2      	subs	r2, r6, r2
 8000d56:	4694      	mov	ip, r2
 8000d58:	2a00      	cmp	r2, #0
 8000d5a:	dc00      	bgt.n	8000d5e <__aeabi_dadd+0x17e>
 8000d5c:	e0ac      	b.n	8000eb8 <__aeabi_dadd+0x2d8>
 8000d5e:	464a      	mov	r2, r9
 8000d60:	2a00      	cmp	r2, #0
 8000d62:	d043      	beq.n	8000dec <__aeabi_dadd+0x20c>
 8000d64:	4a78      	ldr	r2, [pc, #480]	; (8000f48 <__aeabi_dadd+0x368>)
 8000d66:	4296      	cmp	r6, r2
 8000d68:	d100      	bne.n	8000d6c <__aeabi_dadd+0x18c>
 8000d6a:	e1af      	b.n	80010cc <__aeabi_dadd+0x4ec>
 8000d6c:	2280      	movs	r2, #128	; 0x80
 8000d6e:	003c      	movs	r4, r7
 8000d70:	0412      	lsls	r2, r2, #16
 8000d72:	4314      	orrs	r4, r2
 8000d74:	46a0      	mov	r8, r4
 8000d76:	4662      	mov	r2, ip
 8000d78:	2a38      	cmp	r2, #56	; 0x38
 8000d7a:	dc67      	bgt.n	8000e4c <__aeabi_dadd+0x26c>
 8000d7c:	2a1f      	cmp	r2, #31
 8000d7e:	dc00      	bgt.n	8000d82 <__aeabi_dadd+0x1a2>
 8000d80:	e15f      	b.n	8001042 <__aeabi_dadd+0x462>
 8000d82:	4647      	mov	r7, r8
 8000d84:	3a20      	subs	r2, #32
 8000d86:	40d7      	lsrs	r7, r2
 8000d88:	4662      	mov	r2, ip
 8000d8a:	2a20      	cmp	r2, #32
 8000d8c:	d005      	beq.n	8000d9a <__aeabi_dadd+0x1ba>
 8000d8e:	4664      	mov	r4, ip
 8000d90:	2240      	movs	r2, #64	; 0x40
 8000d92:	1b12      	subs	r2, r2, r4
 8000d94:	4644      	mov	r4, r8
 8000d96:	4094      	lsls	r4, r2
 8000d98:	4321      	orrs	r1, r4
 8000d9a:	1e4a      	subs	r2, r1, #1
 8000d9c:	4191      	sbcs	r1, r2
 8000d9e:	000c      	movs	r4, r1
 8000da0:	433c      	orrs	r4, r7
 8000da2:	e057      	b.n	8000e54 <__aeabi_dadd+0x274>
 8000da4:	003a      	movs	r2, r7
 8000da6:	430a      	orrs	r2, r1
 8000da8:	d100      	bne.n	8000dac <__aeabi_dadd+0x1cc>
 8000daa:	e105      	b.n	8000fb8 <__aeabi_dadd+0x3d8>
 8000dac:	0022      	movs	r2, r4
 8000dae:	3a01      	subs	r2, #1
 8000db0:	2c01      	cmp	r4, #1
 8000db2:	d100      	bne.n	8000db6 <__aeabi_dadd+0x1d6>
 8000db4:	e182      	b.n	80010bc <__aeabi_dadd+0x4dc>
 8000db6:	4c64      	ldr	r4, [pc, #400]	; (8000f48 <__aeabi_dadd+0x368>)
 8000db8:	45a4      	cmp	ip, r4
 8000dba:	d05b      	beq.n	8000e74 <__aeabi_dadd+0x294>
 8000dbc:	4694      	mov	ip, r2
 8000dbe:	e741      	b.n	8000c44 <__aeabi_dadd+0x64>
 8000dc0:	4c63      	ldr	r4, [pc, #396]	; (8000f50 <__aeabi_dadd+0x370>)
 8000dc2:	1c77      	adds	r7, r6, #1
 8000dc4:	4227      	tst	r7, r4
 8000dc6:	d000      	beq.n	8000dca <__aeabi_dadd+0x1ea>
 8000dc8:	e0c4      	b.n	8000f54 <__aeabi_dadd+0x374>
 8000dca:	0004      	movs	r4, r0
 8000dcc:	431c      	orrs	r4, r3
 8000dce:	2e00      	cmp	r6, #0
 8000dd0:	d000      	beq.n	8000dd4 <__aeabi_dadd+0x1f4>
 8000dd2:	e169      	b.n	80010a8 <__aeabi_dadd+0x4c8>
 8000dd4:	2c00      	cmp	r4, #0
 8000dd6:	d100      	bne.n	8000dda <__aeabi_dadd+0x1fa>
 8000dd8:	e1bf      	b.n	800115a <__aeabi_dadd+0x57a>
 8000dda:	4644      	mov	r4, r8
 8000ddc:	430c      	orrs	r4, r1
 8000dde:	d000      	beq.n	8000de2 <__aeabi_dadd+0x202>
 8000de0:	e1d0      	b.n	8001184 <__aeabi_dadd+0x5a4>
 8000de2:	0742      	lsls	r2, r0, #29
 8000de4:	08db      	lsrs	r3, r3, #3
 8000de6:	4313      	orrs	r3, r2
 8000de8:	08c0      	lsrs	r0, r0, #3
 8000dea:	e029      	b.n	8000e40 <__aeabi_dadd+0x260>
 8000dec:	003a      	movs	r2, r7
 8000dee:	430a      	orrs	r2, r1
 8000df0:	d100      	bne.n	8000df4 <__aeabi_dadd+0x214>
 8000df2:	e170      	b.n	80010d6 <__aeabi_dadd+0x4f6>
 8000df4:	4662      	mov	r2, ip
 8000df6:	4664      	mov	r4, ip
 8000df8:	3a01      	subs	r2, #1
 8000dfa:	2c01      	cmp	r4, #1
 8000dfc:	d100      	bne.n	8000e00 <__aeabi_dadd+0x220>
 8000dfe:	e0e0      	b.n	8000fc2 <__aeabi_dadd+0x3e2>
 8000e00:	4c51      	ldr	r4, [pc, #324]	; (8000f48 <__aeabi_dadd+0x368>)
 8000e02:	45a4      	cmp	ip, r4
 8000e04:	d100      	bne.n	8000e08 <__aeabi_dadd+0x228>
 8000e06:	e161      	b.n	80010cc <__aeabi_dadd+0x4ec>
 8000e08:	4694      	mov	ip, r2
 8000e0a:	e7b4      	b.n	8000d76 <__aeabi_dadd+0x196>
 8000e0c:	003a      	movs	r2, r7
 8000e0e:	391f      	subs	r1, #31
 8000e10:	40ca      	lsrs	r2, r1
 8000e12:	0011      	movs	r1, r2
 8000e14:	2b20      	cmp	r3, #32
 8000e16:	d003      	beq.n	8000e20 <__aeabi_dadd+0x240>
 8000e18:	2240      	movs	r2, #64	; 0x40
 8000e1a:	1ad3      	subs	r3, r2, r3
 8000e1c:	409f      	lsls	r7, r3
 8000e1e:	433c      	orrs	r4, r7
 8000e20:	1e63      	subs	r3, r4, #1
 8000e22:	419c      	sbcs	r4, r3
 8000e24:	2700      	movs	r7, #0
 8000e26:	2600      	movs	r6, #0
 8000e28:	430c      	orrs	r4, r1
 8000e2a:	0763      	lsls	r3, r4, #29
 8000e2c:	d000      	beq.n	8000e30 <__aeabi_dadd+0x250>
 8000e2e:	e753      	b.n	8000cd8 <__aeabi_dadd+0xf8>
 8000e30:	46b4      	mov	ip, r6
 8000e32:	08e4      	lsrs	r4, r4, #3
 8000e34:	077b      	lsls	r3, r7, #29
 8000e36:	4323      	orrs	r3, r4
 8000e38:	08f8      	lsrs	r0, r7, #3
 8000e3a:	4a43      	ldr	r2, [pc, #268]	; (8000f48 <__aeabi_dadd+0x368>)
 8000e3c:	4594      	cmp	ip, r2
 8000e3e:	d01d      	beq.n	8000e7c <__aeabi_dadd+0x29c>
 8000e40:	4662      	mov	r2, ip
 8000e42:	0307      	lsls	r7, r0, #12
 8000e44:	0552      	lsls	r2, r2, #21
 8000e46:	0b3f      	lsrs	r7, r7, #12
 8000e48:	0d52      	lsrs	r2, r2, #21
 8000e4a:	e760      	b.n	8000d0e <__aeabi_dadd+0x12e>
 8000e4c:	4644      	mov	r4, r8
 8000e4e:	430c      	orrs	r4, r1
 8000e50:	1e62      	subs	r2, r4, #1
 8000e52:	4194      	sbcs	r4, r2
 8000e54:	18e4      	adds	r4, r4, r3
 8000e56:	429c      	cmp	r4, r3
 8000e58:	419b      	sbcs	r3, r3
 8000e5a:	425f      	negs	r7, r3
 8000e5c:	183f      	adds	r7, r7, r0
 8000e5e:	023b      	lsls	r3, r7, #8
 8000e60:	d5e3      	bpl.n	8000e2a <__aeabi_dadd+0x24a>
 8000e62:	4b39      	ldr	r3, [pc, #228]	; (8000f48 <__aeabi_dadd+0x368>)
 8000e64:	3601      	adds	r6, #1
 8000e66:	429e      	cmp	r6, r3
 8000e68:	d000      	beq.n	8000e6c <__aeabi_dadd+0x28c>
 8000e6a:	e0b5      	b.n	8000fd8 <__aeabi_dadd+0x3f8>
 8000e6c:	0032      	movs	r2, r6
 8000e6e:	2700      	movs	r7, #0
 8000e70:	2300      	movs	r3, #0
 8000e72:	e74c      	b.n	8000d0e <__aeabi_dadd+0x12e>
 8000e74:	0742      	lsls	r2, r0, #29
 8000e76:	08db      	lsrs	r3, r3, #3
 8000e78:	4313      	orrs	r3, r2
 8000e7a:	08c0      	lsrs	r0, r0, #3
 8000e7c:	001a      	movs	r2, r3
 8000e7e:	4302      	orrs	r2, r0
 8000e80:	d100      	bne.n	8000e84 <__aeabi_dadd+0x2a4>
 8000e82:	e1e1      	b.n	8001248 <__aeabi_dadd+0x668>
 8000e84:	2780      	movs	r7, #128	; 0x80
 8000e86:	033f      	lsls	r7, r7, #12
 8000e88:	4307      	orrs	r7, r0
 8000e8a:	033f      	lsls	r7, r7, #12
 8000e8c:	4a2e      	ldr	r2, [pc, #184]	; (8000f48 <__aeabi_dadd+0x368>)
 8000e8e:	0b3f      	lsrs	r7, r7, #12
 8000e90:	e73d      	b.n	8000d0e <__aeabi_dadd+0x12e>
 8000e92:	0020      	movs	r0, r4
 8000e94:	f001 fd4c 	bl	8002930 <__clzsi2>
 8000e98:	0001      	movs	r1, r0
 8000e9a:	3118      	adds	r1, #24
 8000e9c:	291f      	cmp	r1, #31
 8000e9e:	dc00      	bgt.n	8000ea2 <__aeabi_dadd+0x2c2>
 8000ea0:	e6fc      	b.n	8000c9c <__aeabi_dadd+0xbc>
 8000ea2:	3808      	subs	r0, #8
 8000ea4:	4084      	lsls	r4, r0
 8000ea6:	0027      	movs	r7, r4
 8000ea8:	2400      	movs	r4, #0
 8000eaa:	42b1      	cmp	r1, r6
 8000eac:	db00      	blt.n	8000eb0 <__aeabi_dadd+0x2d0>
 8000eae:	e6ff      	b.n	8000cb0 <__aeabi_dadd+0xd0>
 8000eb0:	4a26      	ldr	r2, [pc, #152]	; (8000f4c <__aeabi_dadd+0x36c>)
 8000eb2:	1a76      	subs	r6, r6, r1
 8000eb4:	4017      	ands	r7, r2
 8000eb6:	e70d      	b.n	8000cd4 <__aeabi_dadd+0xf4>
 8000eb8:	2a00      	cmp	r2, #0
 8000eba:	d02f      	beq.n	8000f1c <__aeabi_dadd+0x33c>
 8000ebc:	464a      	mov	r2, r9
 8000ebe:	1b92      	subs	r2, r2, r6
 8000ec0:	4694      	mov	ip, r2
 8000ec2:	2e00      	cmp	r6, #0
 8000ec4:	d100      	bne.n	8000ec8 <__aeabi_dadd+0x2e8>
 8000ec6:	e0ad      	b.n	8001024 <__aeabi_dadd+0x444>
 8000ec8:	4a1f      	ldr	r2, [pc, #124]	; (8000f48 <__aeabi_dadd+0x368>)
 8000eca:	4591      	cmp	r9, r2
 8000ecc:	d100      	bne.n	8000ed0 <__aeabi_dadd+0x2f0>
 8000ece:	e10f      	b.n	80010f0 <__aeabi_dadd+0x510>
 8000ed0:	2280      	movs	r2, #128	; 0x80
 8000ed2:	0412      	lsls	r2, r2, #16
 8000ed4:	4310      	orrs	r0, r2
 8000ed6:	4662      	mov	r2, ip
 8000ed8:	2a38      	cmp	r2, #56	; 0x38
 8000eda:	dd00      	ble.n	8000ede <__aeabi_dadd+0x2fe>
 8000edc:	e10f      	b.n	80010fe <__aeabi_dadd+0x51e>
 8000ede:	2a1f      	cmp	r2, #31
 8000ee0:	dd00      	ble.n	8000ee4 <__aeabi_dadd+0x304>
 8000ee2:	e180      	b.n	80011e6 <__aeabi_dadd+0x606>
 8000ee4:	4664      	mov	r4, ip
 8000ee6:	2220      	movs	r2, #32
 8000ee8:	001e      	movs	r6, r3
 8000eea:	1b12      	subs	r2, r2, r4
 8000eec:	4667      	mov	r7, ip
 8000eee:	0004      	movs	r4, r0
 8000ef0:	4093      	lsls	r3, r2
 8000ef2:	4094      	lsls	r4, r2
 8000ef4:	40fe      	lsrs	r6, r7
 8000ef6:	1e5a      	subs	r2, r3, #1
 8000ef8:	4193      	sbcs	r3, r2
 8000efa:	40f8      	lsrs	r0, r7
 8000efc:	4334      	orrs	r4, r6
 8000efe:	431c      	orrs	r4, r3
 8000f00:	4480      	add	r8, r0
 8000f02:	1864      	adds	r4, r4, r1
 8000f04:	428c      	cmp	r4, r1
 8000f06:	41bf      	sbcs	r7, r7
 8000f08:	427f      	negs	r7, r7
 8000f0a:	464e      	mov	r6, r9
 8000f0c:	4447      	add	r7, r8
 8000f0e:	e7a6      	b.n	8000e5e <__aeabi_dadd+0x27e>
 8000f10:	4642      	mov	r2, r8
 8000f12:	430a      	orrs	r2, r1
 8000f14:	0011      	movs	r1, r2
 8000f16:	1e4a      	subs	r2, r1, #1
 8000f18:	4191      	sbcs	r1, r2
 8000f1a:	e6ad      	b.n	8000c78 <__aeabi_dadd+0x98>
 8000f1c:	4c0c      	ldr	r4, [pc, #48]	; (8000f50 <__aeabi_dadd+0x370>)
 8000f1e:	1c72      	adds	r2, r6, #1
 8000f20:	4222      	tst	r2, r4
 8000f22:	d000      	beq.n	8000f26 <__aeabi_dadd+0x346>
 8000f24:	e0a1      	b.n	800106a <__aeabi_dadd+0x48a>
 8000f26:	0002      	movs	r2, r0
 8000f28:	431a      	orrs	r2, r3
 8000f2a:	2e00      	cmp	r6, #0
 8000f2c:	d000      	beq.n	8000f30 <__aeabi_dadd+0x350>
 8000f2e:	e0fa      	b.n	8001126 <__aeabi_dadd+0x546>
 8000f30:	2a00      	cmp	r2, #0
 8000f32:	d100      	bne.n	8000f36 <__aeabi_dadd+0x356>
 8000f34:	e145      	b.n	80011c2 <__aeabi_dadd+0x5e2>
 8000f36:	003a      	movs	r2, r7
 8000f38:	430a      	orrs	r2, r1
 8000f3a:	d000      	beq.n	8000f3e <__aeabi_dadd+0x35e>
 8000f3c:	e146      	b.n	80011cc <__aeabi_dadd+0x5ec>
 8000f3e:	0742      	lsls	r2, r0, #29
 8000f40:	08db      	lsrs	r3, r3, #3
 8000f42:	4313      	orrs	r3, r2
 8000f44:	08c0      	lsrs	r0, r0, #3
 8000f46:	e77b      	b.n	8000e40 <__aeabi_dadd+0x260>
 8000f48:	000007ff 	.word	0x000007ff
 8000f4c:	ff7fffff 	.word	0xff7fffff
 8000f50:	000007fe 	.word	0x000007fe
 8000f54:	4647      	mov	r7, r8
 8000f56:	1a5c      	subs	r4, r3, r1
 8000f58:	1bc2      	subs	r2, r0, r7
 8000f5a:	42a3      	cmp	r3, r4
 8000f5c:	41bf      	sbcs	r7, r7
 8000f5e:	427f      	negs	r7, r7
 8000f60:	46b9      	mov	r9, r7
 8000f62:	0017      	movs	r7, r2
 8000f64:	464a      	mov	r2, r9
 8000f66:	1abf      	subs	r7, r7, r2
 8000f68:	023a      	lsls	r2, r7, #8
 8000f6a:	d500      	bpl.n	8000f6e <__aeabi_dadd+0x38e>
 8000f6c:	e08d      	b.n	800108a <__aeabi_dadd+0x4aa>
 8000f6e:	0023      	movs	r3, r4
 8000f70:	433b      	orrs	r3, r7
 8000f72:	d000      	beq.n	8000f76 <__aeabi_dadd+0x396>
 8000f74:	e68a      	b.n	8000c8c <__aeabi_dadd+0xac>
 8000f76:	2000      	movs	r0, #0
 8000f78:	2500      	movs	r5, #0
 8000f7a:	e761      	b.n	8000e40 <__aeabi_dadd+0x260>
 8000f7c:	4cb4      	ldr	r4, [pc, #720]	; (8001250 <__aeabi_dadd+0x670>)
 8000f7e:	45a1      	cmp	r9, r4
 8000f80:	d100      	bne.n	8000f84 <__aeabi_dadd+0x3a4>
 8000f82:	e0ad      	b.n	80010e0 <__aeabi_dadd+0x500>
 8000f84:	2480      	movs	r4, #128	; 0x80
 8000f86:	0424      	lsls	r4, r4, #16
 8000f88:	4320      	orrs	r0, r4
 8000f8a:	4664      	mov	r4, ip
 8000f8c:	2c38      	cmp	r4, #56	; 0x38
 8000f8e:	dc3d      	bgt.n	800100c <__aeabi_dadd+0x42c>
 8000f90:	4662      	mov	r2, ip
 8000f92:	2c1f      	cmp	r4, #31
 8000f94:	dd00      	ble.n	8000f98 <__aeabi_dadd+0x3b8>
 8000f96:	e0b7      	b.n	8001108 <__aeabi_dadd+0x528>
 8000f98:	2520      	movs	r5, #32
 8000f9a:	001e      	movs	r6, r3
 8000f9c:	1b2d      	subs	r5, r5, r4
 8000f9e:	0004      	movs	r4, r0
 8000fa0:	40ab      	lsls	r3, r5
 8000fa2:	40ac      	lsls	r4, r5
 8000fa4:	40d6      	lsrs	r6, r2
 8000fa6:	40d0      	lsrs	r0, r2
 8000fa8:	4642      	mov	r2, r8
 8000faa:	1e5d      	subs	r5, r3, #1
 8000fac:	41ab      	sbcs	r3, r5
 8000fae:	4334      	orrs	r4, r6
 8000fb0:	1a12      	subs	r2, r2, r0
 8000fb2:	4690      	mov	r8, r2
 8000fb4:	4323      	orrs	r3, r4
 8000fb6:	e02c      	b.n	8001012 <__aeabi_dadd+0x432>
 8000fb8:	0742      	lsls	r2, r0, #29
 8000fba:	08db      	lsrs	r3, r3, #3
 8000fbc:	4313      	orrs	r3, r2
 8000fbe:	08c0      	lsrs	r0, r0, #3
 8000fc0:	e73b      	b.n	8000e3a <__aeabi_dadd+0x25a>
 8000fc2:	185c      	adds	r4, r3, r1
 8000fc4:	429c      	cmp	r4, r3
 8000fc6:	419b      	sbcs	r3, r3
 8000fc8:	4440      	add	r0, r8
 8000fca:	425b      	negs	r3, r3
 8000fcc:	18c7      	adds	r7, r0, r3
 8000fce:	2601      	movs	r6, #1
 8000fd0:	023b      	lsls	r3, r7, #8
 8000fd2:	d400      	bmi.n	8000fd6 <__aeabi_dadd+0x3f6>
 8000fd4:	e729      	b.n	8000e2a <__aeabi_dadd+0x24a>
 8000fd6:	2602      	movs	r6, #2
 8000fd8:	4a9e      	ldr	r2, [pc, #632]	; (8001254 <__aeabi_dadd+0x674>)
 8000fda:	0863      	lsrs	r3, r4, #1
 8000fdc:	4017      	ands	r7, r2
 8000fde:	2201      	movs	r2, #1
 8000fe0:	4014      	ands	r4, r2
 8000fe2:	431c      	orrs	r4, r3
 8000fe4:	07fb      	lsls	r3, r7, #31
 8000fe6:	431c      	orrs	r4, r3
 8000fe8:	087f      	lsrs	r7, r7, #1
 8000fea:	e673      	b.n	8000cd4 <__aeabi_dadd+0xf4>
 8000fec:	4644      	mov	r4, r8
 8000fee:	3a20      	subs	r2, #32
 8000ff0:	40d4      	lsrs	r4, r2
 8000ff2:	4662      	mov	r2, ip
 8000ff4:	2a20      	cmp	r2, #32
 8000ff6:	d005      	beq.n	8001004 <__aeabi_dadd+0x424>
 8000ff8:	4667      	mov	r7, ip
 8000ffa:	2240      	movs	r2, #64	; 0x40
 8000ffc:	1bd2      	subs	r2, r2, r7
 8000ffe:	4647      	mov	r7, r8
 8001000:	4097      	lsls	r7, r2
 8001002:	4339      	orrs	r1, r7
 8001004:	1e4a      	subs	r2, r1, #1
 8001006:	4191      	sbcs	r1, r2
 8001008:	4321      	orrs	r1, r4
 800100a:	e635      	b.n	8000c78 <__aeabi_dadd+0x98>
 800100c:	4303      	orrs	r3, r0
 800100e:	1e58      	subs	r0, r3, #1
 8001010:	4183      	sbcs	r3, r0
 8001012:	1acc      	subs	r4, r1, r3
 8001014:	42a1      	cmp	r1, r4
 8001016:	41bf      	sbcs	r7, r7
 8001018:	4643      	mov	r3, r8
 800101a:	427f      	negs	r7, r7
 800101c:	4655      	mov	r5, sl
 800101e:	464e      	mov	r6, r9
 8001020:	1bdf      	subs	r7, r3, r7
 8001022:	e62e      	b.n	8000c82 <__aeabi_dadd+0xa2>
 8001024:	0002      	movs	r2, r0
 8001026:	431a      	orrs	r2, r3
 8001028:	d100      	bne.n	800102c <__aeabi_dadd+0x44c>
 800102a:	e0bd      	b.n	80011a8 <__aeabi_dadd+0x5c8>
 800102c:	4662      	mov	r2, ip
 800102e:	4664      	mov	r4, ip
 8001030:	3a01      	subs	r2, #1
 8001032:	2c01      	cmp	r4, #1
 8001034:	d100      	bne.n	8001038 <__aeabi_dadd+0x458>
 8001036:	e0e5      	b.n	8001204 <__aeabi_dadd+0x624>
 8001038:	4c85      	ldr	r4, [pc, #532]	; (8001250 <__aeabi_dadd+0x670>)
 800103a:	45a4      	cmp	ip, r4
 800103c:	d058      	beq.n	80010f0 <__aeabi_dadd+0x510>
 800103e:	4694      	mov	ip, r2
 8001040:	e749      	b.n	8000ed6 <__aeabi_dadd+0x2f6>
 8001042:	4664      	mov	r4, ip
 8001044:	2220      	movs	r2, #32
 8001046:	1b12      	subs	r2, r2, r4
 8001048:	4644      	mov	r4, r8
 800104a:	4094      	lsls	r4, r2
 800104c:	000f      	movs	r7, r1
 800104e:	46a1      	mov	r9, r4
 8001050:	4664      	mov	r4, ip
 8001052:	4091      	lsls	r1, r2
 8001054:	40e7      	lsrs	r7, r4
 8001056:	464c      	mov	r4, r9
 8001058:	1e4a      	subs	r2, r1, #1
 800105a:	4191      	sbcs	r1, r2
 800105c:	433c      	orrs	r4, r7
 800105e:	4642      	mov	r2, r8
 8001060:	430c      	orrs	r4, r1
 8001062:	4661      	mov	r1, ip
 8001064:	40ca      	lsrs	r2, r1
 8001066:	1880      	adds	r0, r0, r2
 8001068:	e6f4      	b.n	8000e54 <__aeabi_dadd+0x274>
 800106a:	4c79      	ldr	r4, [pc, #484]	; (8001250 <__aeabi_dadd+0x670>)
 800106c:	42a2      	cmp	r2, r4
 800106e:	d100      	bne.n	8001072 <__aeabi_dadd+0x492>
 8001070:	e6fd      	b.n	8000e6e <__aeabi_dadd+0x28e>
 8001072:	1859      	adds	r1, r3, r1
 8001074:	4299      	cmp	r1, r3
 8001076:	419b      	sbcs	r3, r3
 8001078:	4440      	add	r0, r8
 800107a:	425f      	negs	r7, r3
 800107c:	19c7      	adds	r7, r0, r7
 800107e:	07fc      	lsls	r4, r7, #31
 8001080:	0849      	lsrs	r1, r1, #1
 8001082:	0016      	movs	r6, r2
 8001084:	430c      	orrs	r4, r1
 8001086:	087f      	lsrs	r7, r7, #1
 8001088:	e6cf      	b.n	8000e2a <__aeabi_dadd+0x24a>
 800108a:	1acc      	subs	r4, r1, r3
 800108c:	42a1      	cmp	r1, r4
 800108e:	41bf      	sbcs	r7, r7
 8001090:	4643      	mov	r3, r8
 8001092:	427f      	negs	r7, r7
 8001094:	1a18      	subs	r0, r3, r0
 8001096:	4655      	mov	r5, sl
 8001098:	1bc7      	subs	r7, r0, r7
 800109a:	e5f7      	b.n	8000c8c <__aeabi_dadd+0xac>
 800109c:	08c9      	lsrs	r1, r1, #3
 800109e:	077b      	lsls	r3, r7, #29
 80010a0:	4655      	mov	r5, sl
 80010a2:	430b      	orrs	r3, r1
 80010a4:	08f8      	lsrs	r0, r7, #3
 80010a6:	e6c8      	b.n	8000e3a <__aeabi_dadd+0x25a>
 80010a8:	2c00      	cmp	r4, #0
 80010aa:	d000      	beq.n	80010ae <__aeabi_dadd+0x4ce>
 80010ac:	e081      	b.n	80011b2 <__aeabi_dadd+0x5d2>
 80010ae:	4643      	mov	r3, r8
 80010b0:	430b      	orrs	r3, r1
 80010b2:	d115      	bne.n	80010e0 <__aeabi_dadd+0x500>
 80010b4:	2080      	movs	r0, #128	; 0x80
 80010b6:	2500      	movs	r5, #0
 80010b8:	0300      	lsls	r0, r0, #12
 80010ba:	e6e3      	b.n	8000e84 <__aeabi_dadd+0x2a4>
 80010bc:	1a5c      	subs	r4, r3, r1
 80010be:	42a3      	cmp	r3, r4
 80010c0:	419b      	sbcs	r3, r3
 80010c2:	1bc7      	subs	r7, r0, r7
 80010c4:	425b      	negs	r3, r3
 80010c6:	2601      	movs	r6, #1
 80010c8:	1aff      	subs	r7, r7, r3
 80010ca:	e5da      	b.n	8000c82 <__aeabi_dadd+0xa2>
 80010cc:	0742      	lsls	r2, r0, #29
 80010ce:	08db      	lsrs	r3, r3, #3
 80010d0:	4313      	orrs	r3, r2
 80010d2:	08c0      	lsrs	r0, r0, #3
 80010d4:	e6d2      	b.n	8000e7c <__aeabi_dadd+0x29c>
 80010d6:	0742      	lsls	r2, r0, #29
 80010d8:	08db      	lsrs	r3, r3, #3
 80010da:	4313      	orrs	r3, r2
 80010dc:	08c0      	lsrs	r0, r0, #3
 80010de:	e6ac      	b.n	8000e3a <__aeabi_dadd+0x25a>
 80010e0:	4643      	mov	r3, r8
 80010e2:	4642      	mov	r2, r8
 80010e4:	08c9      	lsrs	r1, r1, #3
 80010e6:	075b      	lsls	r3, r3, #29
 80010e8:	4655      	mov	r5, sl
 80010ea:	430b      	orrs	r3, r1
 80010ec:	08d0      	lsrs	r0, r2, #3
 80010ee:	e6c5      	b.n	8000e7c <__aeabi_dadd+0x29c>
 80010f0:	4643      	mov	r3, r8
 80010f2:	4642      	mov	r2, r8
 80010f4:	075b      	lsls	r3, r3, #29
 80010f6:	08c9      	lsrs	r1, r1, #3
 80010f8:	430b      	orrs	r3, r1
 80010fa:	08d0      	lsrs	r0, r2, #3
 80010fc:	e6be      	b.n	8000e7c <__aeabi_dadd+0x29c>
 80010fe:	4303      	orrs	r3, r0
 8001100:	001c      	movs	r4, r3
 8001102:	1e63      	subs	r3, r4, #1
 8001104:	419c      	sbcs	r4, r3
 8001106:	e6fc      	b.n	8000f02 <__aeabi_dadd+0x322>
 8001108:	0002      	movs	r2, r0
 800110a:	3c20      	subs	r4, #32
 800110c:	40e2      	lsrs	r2, r4
 800110e:	0014      	movs	r4, r2
 8001110:	4662      	mov	r2, ip
 8001112:	2a20      	cmp	r2, #32
 8001114:	d003      	beq.n	800111e <__aeabi_dadd+0x53e>
 8001116:	2540      	movs	r5, #64	; 0x40
 8001118:	1aad      	subs	r5, r5, r2
 800111a:	40a8      	lsls	r0, r5
 800111c:	4303      	orrs	r3, r0
 800111e:	1e58      	subs	r0, r3, #1
 8001120:	4183      	sbcs	r3, r0
 8001122:	4323      	orrs	r3, r4
 8001124:	e775      	b.n	8001012 <__aeabi_dadd+0x432>
 8001126:	2a00      	cmp	r2, #0
 8001128:	d0e2      	beq.n	80010f0 <__aeabi_dadd+0x510>
 800112a:	003a      	movs	r2, r7
 800112c:	430a      	orrs	r2, r1
 800112e:	d0cd      	beq.n	80010cc <__aeabi_dadd+0x4ec>
 8001130:	0742      	lsls	r2, r0, #29
 8001132:	08db      	lsrs	r3, r3, #3
 8001134:	4313      	orrs	r3, r2
 8001136:	2280      	movs	r2, #128	; 0x80
 8001138:	08c0      	lsrs	r0, r0, #3
 800113a:	0312      	lsls	r2, r2, #12
 800113c:	4210      	tst	r0, r2
 800113e:	d006      	beq.n	800114e <__aeabi_dadd+0x56e>
 8001140:	08fc      	lsrs	r4, r7, #3
 8001142:	4214      	tst	r4, r2
 8001144:	d103      	bne.n	800114e <__aeabi_dadd+0x56e>
 8001146:	0020      	movs	r0, r4
 8001148:	08cb      	lsrs	r3, r1, #3
 800114a:	077a      	lsls	r2, r7, #29
 800114c:	4313      	orrs	r3, r2
 800114e:	0f5a      	lsrs	r2, r3, #29
 8001150:	00db      	lsls	r3, r3, #3
 8001152:	0752      	lsls	r2, r2, #29
 8001154:	08db      	lsrs	r3, r3, #3
 8001156:	4313      	orrs	r3, r2
 8001158:	e690      	b.n	8000e7c <__aeabi_dadd+0x29c>
 800115a:	4643      	mov	r3, r8
 800115c:	430b      	orrs	r3, r1
 800115e:	d100      	bne.n	8001162 <__aeabi_dadd+0x582>
 8001160:	e709      	b.n	8000f76 <__aeabi_dadd+0x396>
 8001162:	4643      	mov	r3, r8
 8001164:	4642      	mov	r2, r8
 8001166:	08c9      	lsrs	r1, r1, #3
 8001168:	075b      	lsls	r3, r3, #29
 800116a:	4655      	mov	r5, sl
 800116c:	430b      	orrs	r3, r1
 800116e:	08d0      	lsrs	r0, r2, #3
 8001170:	e666      	b.n	8000e40 <__aeabi_dadd+0x260>
 8001172:	1acc      	subs	r4, r1, r3
 8001174:	42a1      	cmp	r1, r4
 8001176:	4189      	sbcs	r1, r1
 8001178:	1a3f      	subs	r7, r7, r0
 800117a:	4249      	negs	r1, r1
 800117c:	4655      	mov	r5, sl
 800117e:	2601      	movs	r6, #1
 8001180:	1a7f      	subs	r7, r7, r1
 8001182:	e57e      	b.n	8000c82 <__aeabi_dadd+0xa2>
 8001184:	4642      	mov	r2, r8
 8001186:	1a5c      	subs	r4, r3, r1
 8001188:	1a87      	subs	r7, r0, r2
 800118a:	42a3      	cmp	r3, r4
 800118c:	4192      	sbcs	r2, r2
 800118e:	4252      	negs	r2, r2
 8001190:	1abf      	subs	r7, r7, r2
 8001192:	023a      	lsls	r2, r7, #8
 8001194:	d53d      	bpl.n	8001212 <__aeabi_dadd+0x632>
 8001196:	1acc      	subs	r4, r1, r3
 8001198:	42a1      	cmp	r1, r4
 800119a:	4189      	sbcs	r1, r1
 800119c:	4643      	mov	r3, r8
 800119e:	4249      	negs	r1, r1
 80011a0:	1a1f      	subs	r7, r3, r0
 80011a2:	4655      	mov	r5, sl
 80011a4:	1a7f      	subs	r7, r7, r1
 80011a6:	e595      	b.n	8000cd4 <__aeabi_dadd+0xf4>
 80011a8:	077b      	lsls	r3, r7, #29
 80011aa:	08c9      	lsrs	r1, r1, #3
 80011ac:	430b      	orrs	r3, r1
 80011ae:	08f8      	lsrs	r0, r7, #3
 80011b0:	e643      	b.n	8000e3a <__aeabi_dadd+0x25a>
 80011b2:	4644      	mov	r4, r8
 80011b4:	08db      	lsrs	r3, r3, #3
 80011b6:	430c      	orrs	r4, r1
 80011b8:	d130      	bne.n	800121c <__aeabi_dadd+0x63c>
 80011ba:	0742      	lsls	r2, r0, #29
 80011bc:	4313      	orrs	r3, r2
 80011be:	08c0      	lsrs	r0, r0, #3
 80011c0:	e65c      	b.n	8000e7c <__aeabi_dadd+0x29c>
 80011c2:	077b      	lsls	r3, r7, #29
 80011c4:	08c9      	lsrs	r1, r1, #3
 80011c6:	430b      	orrs	r3, r1
 80011c8:	08f8      	lsrs	r0, r7, #3
 80011ca:	e639      	b.n	8000e40 <__aeabi_dadd+0x260>
 80011cc:	185c      	adds	r4, r3, r1
 80011ce:	429c      	cmp	r4, r3
 80011d0:	419b      	sbcs	r3, r3
 80011d2:	4440      	add	r0, r8
 80011d4:	425b      	negs	r3, r3
 80011d6:	18c7      	adds	r7, r0, r3
 80011d8:	023b      	lsls	r3, r7, #8
 80011da:	d400      	bmi.n	80011de <__aeabi_dadd+0x5fe>
 80011dc:	e625      	b.n	8000e2a <__aeabi_dadd+0x24a>
 80011de:	4b1d      	ldr	r3, [pc, #116]	; (8001254 <__aeabi_dadd+0x674>)
 80011e0:	2601      	movs	r6, #1
 80011e2:	401f      	ands	r7, r3
 80011e4:	e621      	b.n	8000e2a <__aeabi_dadd+0x24a>
 80011e6:	0004      	movs	r4, r0
 80011e8:	3a20      	subs	r2, #32
 80011ea:	40d4      	lsrs	r4, r2
 80011ec:	4662      	mov	r2, ip
 80011ee:	2a20      	cmp	r2, #32
 80011f0:	d004      	beq.n	80011fc <__aeabi_dadd+0x61c>
 80011f2:	2240      	movs	r2, #64	; 0x40
 80011f4:	4666      	mov	r6, ip
 80011f6:	1b92      	subs	r2, r2, r6
 80011f8:	4090      	lsls	r0, r2
 80011fa:	4303      	orrs	r3, r0
 80011fc:	1e5a      	subs	r2, r3, #1
 80011fe:	4193      	sbcs	r3, r2
 8001200:	431c      	orrs	r4, r3
 8001202:	e67e      	b.n	8000f02 <__aeabi_dadd+0x322>
 8001204:	185c      	adds	r4, r3, r1
 8001206:	428c      	cmp	r4, r1
 8001208:	4189      	sbcs	r1, r1
 800120a:	4440      	add	r0, r8
 800120c:	4249      	negs	r1, r1
 800120e:	1847      	adds	r7, r0, r1
 8001210:	e6dd      	b.n	8000fce <__aeabi_dadd+0x3ee>
 8001212:	0023      	movs	r3, r4
 8001214:	433b      	orrs	r3, r7
 8001216:	d100      	bne.n	800121a <__aeabi_dadd+0x63a>
 8001218:	e6ad      	b.n	8000f76 <__aeabi_dadd+0x396>
 800121a:	e606      	b.n	8000e2a <__aeabi_dadd+0x24a>
 800121c:	0744      	lsls	r4, r0, #29
 800121e:	4323      	orrs	r3, r4
 8001220:	2480      	movs	r4, #128	; 0x80
 8001222:	08c0      	lsrs	r0, r0, #3
 8001224:	0324      	lsls	r4, r4, #12
 8001226:	4220      	tst	r0, r4
 8001228:	d008      	beq.n	800123c <__aeabi_dadd+0x65c>
 800122a:	4642      	mov	r2, r8
 800122c:	08d6      	lsrs	r6, r2, #3
 800122e:	4226      	tst	r6, r4
 8001230:	d104      	bne.n	800123c <__aeabi_dadd+0x65c>
 8001232:	4655      	mov	r5, sl
 8001234:	0030      	movs	r0, r6
 8001236:	08cb      	lsrs	r3, r1, #3
 8001238:	0751      	lsls	r1, r2, #29
 800123a:	430b      	orrs	r3, r1
 800123c:	0f5a      	lsrs	r2, r3, #29
 800123e:	00db      	lsls	r3, r3, #3
 8001240:	08db      	lsrs	r3, r3, #3
 8001242:	0752      	lsls	r2, r2, #29
 8001244:	4313      	orrs	r3, r2
 8001246:	e619      	b.n	8000e7c <__aeabi_dadd+0x29c>
 8001248:	2300      	movs	r3, #0
 800124a:	4a01      	ldr	r2, [pc, #4]	; (8001250 <__aeabi_dadd+0x670>)
 800124c:	001f      	movs	r7, r3
 800124e:	e55e      	b.n	8000d0e <__aeabi_dadd+0x12e>
 8001250:	000007ff 	.word	0x000007ff
 8001254:	ff7fffff 	.word	0xff7fffff

08001258 <__aeabi_ddiv>:
 8001258:	b5f0      	push	{r4, r5, r6, r7, lr}
 800125a:	4657      	mov	r7, sl
 800125c:	464e      	mov	r6, r9
 800125e:	4645      	mov	r5, r8
 8001260:	46de      	mov	lr, fp
 8001262:	b5e0      	push	{r5, r6, r7, lr}
 8001264:	4681      	mov	r9, r0
 8001266:	0005      	movs	r5, r0
 8001268:	030c      	lsls	r4, r1, #12
 800126a:	0048      	lsls	r0, r1, #1
 800126c:	4692      	mov	sl, r2
 800126e:	001f      	movs	r7, r3
 8001270:	b085      	sub	sp, #20
 8001272:	0b24      	lsrs	r4, r4, #12
 8001274:	0d40      	lsrs	r0, r0, #21
 8001276:	0fce      	lsrs	r6, r1, #31
 8001278:	2800      	cmp	r0, #0
 800127a:	d100      	bne.n	800127e <__aeabi_ddiv+0x26>
 800127c:	e156      	b.n	800152c <__aeabi_ddiv+0x2d4>
 800127e:	4bd4      	ldr	r3, [pc, #848]	; (80015d0 <__aeabi_ddiv+0x378>)
 8001280:	4298      	cmp	r0, r3
 8001282:	d100      	bne.n	8001286 <__aeabi_ddiv+0x2e>
 8001284:	e172      	b.n	800156c <__aeabi_ddiv+0x314>
 8001286:	0f6b      	lsrs	r3, r5, #29
 8001288:	00e4      	lsls	r4, r4, #3
 800128a:	431c      	orrs	r4, r3
 800128c:	2380      	movs	r3, #128	; 0x80
 800128e:	041b      	lsls	r3, r3, #16
 8001290:	4323      	orrs	r3, r4
 8001292:	4698      	mov	r8, r3
 8001294:	4bcf      	ldr	r3, [pc, #828]	; (80015d4 <__aeabi_ddiv+0x37c>)
 8001296:	00ed      	lsls	r5, r5, #3
 8001298:	469b      	mov	fp, r3
 800129a:	2300      	movs	r3, #0
 800129c:	4699      	mov	r9, r3
 800129e:	4483      	add	fp, r0
 80012a0:	9300      	str	r3, [sp, #0]
 80012a2:	033c      	lsls	r4, r7, #12
 80012a4:	007b      	lsls	r3, r7, #1
 80012a6:	4650      	mov	r0, sl
 80012a8:	0b24      	lsrs	r4, r4, #12
 80012aa:	0d5b      	lsrs	r3, r3, #21
 80012ac:	0fff      	lsrs	r7, r7, #31
 80012ae:	2b00      	cmp	r3, #0
 80012b0:	d100      	bne.n	80012b4 <__aeabi_ddiv+0x5c>
 80012b2:	e11f      	b.n	80014f4 <__aeabi_ddiv+0x29c>
 80012b4:	4ac6      	ldr	r2, [pc, #792]	; (80015d0 <__aeabi_ddiv+0x378>)
 80012b6:	4293      	cmp	r3, r2
 80012b8:	d100      	bne.n	80012bc <__aeabi_ddiv+0x64>
 80012ba:	e162      	b.n	8001582 <__aeabi_ddiv+0x32a>
 80012bc:	49c5      	ldr	r1, [pc, #788]	; (80015d4 <__aeabi_ddiv+0x37c>)
 80012be:	0f42      	lsrs	r2, r0, #29
 80012c0:	468c      	mov	ip, r1
 80012c2:	00e4      	lsls	r4, r4, #3
 80012c4:	4659      	mov	r1, fp
 80012c6:	4314      	orrs	r4, r2
 80012c8:	2280      	movs	r2, #128	; 0x80
 80012ca:	4463      	add	r3, ip
 80012cc:	0412      	lsls	r2, r2, #16
 80012ce:	1acb      	subs	r3, r1, r3
 80012d0:	4314      	orrs	r4, r2
 80012d2:	469b      	mov	fp, r3
 80012d4:	00c2      	lsls	r2, r0, #3
 80012d6:	2000      	movs	r0, #0
 80012d8:	0033      	movs	r3, r6
 80012da:	407b      	eors	r3, r7
 80012dc:	469a      	mov	sl, r3
 80012de:	464b      	mov	r3, r9
 80012e0:	2b0f      	cmp	r3, #15
 80012e2:	d827      	bhi.n	8001334 <__aeabi_ddiv+0xdc>
 80012e4:	49bc      	ldr	r1, [pc, #752]	; (80015d8 <__aeabi_ddiv+0x380>)
 80012e6:	009b      	lsls	r3, r3, #2
 80012e8:	58cb      	ldr	r3, [r1, r3]
 80012ea:	469f      	mov	pc, r3
 80012ec:	46b2      	mov	sl, r6
 80012ee:	9b00      	ldr	r3, [sp, #0]
 80012f0:	2b02      	cmp	r3, #2
 80012f2:	d016      	beq.n	8001322 <__aeabi_ddiv+0xca>
 80012f4:	2b03      	cmp	r3, #3
 80012f6:	d100      	bne.n	80012fa <__aeabi_ddiv+0xa2>
 80012f8:	e28e      	b.n	8001818 <__aeabi_ddiv+0x5c0>
 80012fa:	2b01      	cmp	r3, #1
 80012fc:	d000      	beq.n	8001300 <__aeabi_ddiv+0xa8>
 80012fe:	e0d9      	b.n	80014b4 <__aeabi_ddiv+0x25c>
 8001300:	2300      	movs	r3, #0
 8001302:	2400      	movs	r4, #0
 8001304:	2500      	movs	r5, #0
 8001306:	4652      	mov	r2, sl
 8001308:	051b      	lsls	r3, r3, #20
 800130a:	4323      	orrs	r3, r4
 800130c:	07d2      	lsls	r2, r2, #31
 800130e:	4313      	orrs	r3, r2
 8001310:	0028      	movs	r0, r5
 8001312:	0019      	movs	r1, r3
 8001314:	b005      	add	sp, #20
 8001316:	bcf0      	pop	{r4, r5, r6, r7}
 8001318:	46bb      	mov	fp, r7
 800131a:	46b2      	mov	sl, r6
 800131c:	46a9      	mov	r9, r5
 800131e:	46a0      	mov	r8, r4
 8001320:	bdf0      	pop	{r4, r5, r6, r7, pc}
 8001322:	2400      	movs	r4, #0
 8001324:	2500      	movs	r5, #0
 8001326:	4baa      	ldr	r3, [pc, #680]	; (80015d0 <__aeabi_ddiv+0x378>)
 8001328:	e7ed      	b.n	8001306 <__aeabi_ddiv+0xae>
 800132a:	46ba      	mov	sl, r7
 800132c:	46a0      	mov	r8, r4
 800132e:	0015      	movs	r5, r2
 8001330:	9000      	str	r0, [sp, #0]
 8001332:	e7dc      	b.n	80012ee <__aeabi_ddiv+0x96>
 8001334:	4544      	cmp	r4, r8
 8001336:	d200      	bcs.n	800133a <__aeabi_ddiv+0xe2>
 8001338:	e1c7      	b.n	80016ca <__aeabi_ddiv+0x472>
 800133a:	d100      	bne.n	800133e <__aeabi_ddiv+0xe6>
 800133c:	e1c2      	b.n	80016c4 <__aeabi_ddiv+0x46c>
 800133e:	2301      	movs	r3, #1
 8001340:	425b      	negs	r3, r3
 8001342:	469c      	mov	ip, r3
 8001344:	002e      	movs	r6, r5
 8001346:	4640      	mov	r0, r8
 8001348:	2500      	movs	r5, #0
 800134a:	44e3      	add	fp, ip
 800134c:	0223      	lsls	r3, r4, #8
 800134e:	0e14      	lsrs	r4, r2, #24
 8001350:	431c      	orrs	r4, r3
 8001352:	0c1b      	lsrs	r3, r3, #16
 8001354:	4699      	mov	r9, r3
 8001356:	0423      	lsls	r3, r4, #16
 8001358:	0c1f      	lsrs	r7, r3, #16
 800135a:	0212      	lsls	r2, r2, #8
 800135c:	4649      	mov	r1, r9
 800135e:	9200      	str	r2, [sp, #0]
 8001360:	9701      	str	r7, [sp, #4]
 8001362:	f7fe ff73 	bl	800024c <__aeabi_uidivmod>
 8001366:	0002      	movs	r2, r0
 8001368:	437a      	muls	r2, r7
 800136a:	040b      	lsls	r3, r1, #16
 800136c:	0c31      	lsrs	r1, r6, #16
 800136e:	4680      	mov	r8, r0
 8001370:	4319      	orrs	r1, r3
 8001372:	428a      	cmp	r2, r1
 8001374:	d907      	bls.n	8001386 <__aeabi_ddiv+0x12e>
 8001376:	2301      	movs	r3, #1
 8001378:	425b      	negs	r3, r3
 800137a:	469c      	mov	ip, r3
 800137c:	1909      	adds	r1, r1, r4
 800137e:	44e0      	add	r8, ip
 8001380:	428c      	cmp	r4, r1
 8001382:	d800      	bhi.n	8001386 <__aeabi_ddiv+0x12e>
 8001384:	e207      	b.n	8001796 <__aeabi_ddiv+0x53e>
 8001386:	1a88      	subs	r0, r1, r2
 8001388:	4649      	mov	r1, r9
 800138a:	f7fe ff5f 	bl	800024c <__aeabi_uidivmod>
 800138e:	0409      	lsls	r1, r1, #16
 8001390:	468c      	mov	ip, r1
 8001392:	0431      	lsls	r1, r6, #16
 8001394:	4666      	mov	r6, ip
 8001396:	9a01      	ldr	r2, [sp, #4]
 8001398:	0c09      	lsrs	r1, r1, #16
 800139a:	4342      	muls	r2, r0
 800139c:	0003      	movs	r3, r0
 800139e:	4331      	orrs	r1, r6
 80013a0:	428a      	cmp	r2, r1
 80013a2:	d904      	bls.n	80013ae <__aeabi_ddiv+0x156>
 80013a4:	1909      	adds	r1, r1, r4
 80013a6:	3b01      	subs	r3, #1
 80013a8:	428c      	cmp	r4, r1
 80013aa:	d800      	bhi.n	80013ae <__aeabi_ddiv+0x156>
 80013ac:	e1ed      	b.n	800178a <__aeabi_ddiv+0x532>
 80013ae:	1a88      	subs	r0, r1, r2
 80013b0:	4642      	mov	r2, r8
 80013b2:	0412      	lsls	r2, r2, #16
 80013b4:	431a      	orrs	r2, r3
 80013b6:	4690      	mov	r8, r2
 80013b8:	4641      	mov	r1, r8
 80013ba:	9b00      	ldr	r3, [sp, #0]
 80013bc:	040e      	lsls	r6, r1, #16
 80013be:	0c1b      	lsrs	r3, r3, #16
 80013c0:	001f      	movs	r7, r3
 80013c2:	9302      	str	r3, [sp, #8]
 80013c4:	9b00      	ldr	r3, [sp, #0]
 80013c6:	0c36      	lsrs	r6, r6, #16
 80013c8:	041b      	lsls	r3, r3, #16
 80013ca:	0c19      	lsrs	r1, r3, #16
 80013cc:	000b      	movs	r3, r1
 80013ce:	4373      	muls	r3, r6
 80013d0:	0c12      	lsrs	r2, r2, #16
 80013d2:	437e      	muls	r6, r7
 80013d4:	9103      	str	r1, [sp, #12]
 80013d6:	4351      	muls	r1, r2
 80013d8:	437a      	muls	r2, r7
 80013da:	0c1f      	lsrs	r7, r3, #16
 80013dc:	46bc      	mov	ip, r7
 80013de:	1876      	adds	r6, r6, r1
 80013e0:	4466      	add	r6, ip
 80013e2:	42b1      	cmp	r1, r6
 80013e4:	d903      	bls.n	80013ee <__aeabi_ddiv+0x196>
 80013e6:	2180      	movs	r1, #128	; 0x80
 80013e8:	0249      	lsls	r1, r1, #9
 80013ea:	468c      	mov	ip, r1
 80013ec:	4462      	add	r2, ip
 80013ee:	0c31      	lsrs	r1, r6, #16
 80013f0:	188a      	adds	r2, r1, r2
 80013f2:	0431      	lsls	r1, r6, #16
 80013f4:	041e      	lsls	r6, r3, #16
 80013f6:	0c36      	lsrs	r6, r6, #16
 80013f8:	198e      	adds	r6, r1, r6
 80013fa:	4290      	cmp	r0, r2
 80013fc:	d302      	bcc.n	8001404 <__aeabi_ddiv+0x1ac>
 80013fe:	d112      	bne.n	8001426 <__aeabi_ddiv+0x1ce>
 8001400:	42b5      	cmp	r5, r6
 8001402:	d210      	bcs.n	8001426 <__aeabi_ddiv+0x1ce>
 8001404:	4643      	mov	r3, r8
 8001406:	1e59      	subs	r1, r3, #1
 8001408:	9b00      	ldr	r3, [sp, #0]
 800140a:	469c      	mov	ip, r3
 800140c:	4465      	add	r5, ip
 800140e:	001f      	movs	r7, r3
 8001410:	429d      	cmp	r5, r3
 8001412:	419b      	sbcs	r3, r3
 8001414:	425b      	negs	r3, r3
 8001416:	191b      	adds	r3, r3, r4
 8001418:	18c0      	adds	r0, r0, r3
 800141a:	4284      	cmp	r4, r0
 800141c:	d200      	bcs.n	8001420 <__aeabi_ddiv+0x1c8>
 800141e:	e1a0      	b.n	8001762 <__aeabi_ddiv+0x50a>
 8001420:	d100      	bne.n	8001424 <__aeabi_ddiv+0x1cc>
 8001422:	e19b      	b.n	800175c <__aeabi_ddiv+0x504>
 8001424:	4688      	mov	r8, r1
 8001426:	1bae      	subs	r6, r5, r6
 8001428:	42b5      	cmp	r5, r6
 800142a:	41ad      	sbcs	r5, r5
 800142c:	1a80      	subs	r0, r0, r2
 800142e:	426d      	negs	r5, r5
 8001430:	1b40      	subs	r0, r0, r5
 8001432:	4284      	cmp	r4, r0
 8001434:	d100      	bne.n	8001438 <__aeabi_ddiv+0x1e0>
 8001436:	e1d5      	b.n	80017e4 <__aeabi_ddiv+0x58c>
 8001438:	4649      	mov	r1, r9
 800143a:	f7fe ff07 	bl	800024c <__aeabi_uidivmod>
 800143e:	9a01      	ldr	r2, [sp, #4]
 8001440:	040b      	lsls	r3, r1, #16
 8001442:	4342      	muls	r2, r0
 8001444:	0c31      	lsrs	r1, r6, #16
 8001446:	0005      	movs	r5, r0
 8001448:	4319      	orrs	r1, r3
 800144a:	428a      	cmp	r2, r1
 800144c:	d900      	bls.n	8001450 <__aeabi_ddiv+0x1f8>
 800144e:	e16c      	b.n	800172a <__aeabi_ddiv+0x4d2>
 8001450:	1a88      	subs	r0, r1, r2
 8001452:	4649      	mov	r1, r9
 8001454:	f7fe fefa 	bl	800024c <__aeabi_uidivmod>
 8001458:	9a01      	ldr	r2, [sp, #4]
 800145a:	0436      	lsls	r6, r6, #16
 800145c:	4342      	muls	r2, r0
 800145e:	0409      	lsls	r1, r1, #16
 8001460:	0c36      	lsrs	r6, r6, #16
 8001462:	0003      	movs	r3, r0
 8001464:	430e      	orrs	r6, r1
 8001466:	42b2      	cmp	r2, r6
 8001468:	d900      	bls.n	800146c <__aeabi_ddiv+0x214>
 800146a:	e153      	b.n	8001714 <__aeabi_ddiv+0x4bc>
 800146c:	9803      	ldr	r0, [sp, #12]
 800146e:	1ab6      	subs	r6, r6, r2
 8001470:	0002      	movs	r2, r0
 8001472:	042d      	lsls	r5, r5, #16
 8001474:	431d      	orrs	r5, r3
 8001476:	9f02      	ldr	r7, [sp, #8]
 8001478:	042b      	lsls	r3, r5, #16
 800147a:	0c1b      	lsrs	r3, r3, #16
 800147c:	435a      	muls	r2, r3
 800147e:	437b      	muls	r3, r7
 8001480:	469c      	mov	ip, r3
 8001482:	0c29      	lsrs	r1, r5, #16
 8001484:	4348      	muls	r0, r1
 8001486:	0c13      	lsrs	r3, r2, #16
 8001488:	4484      	add	ip, r0
 800148a:	4463      	add	r3, ip
 800148c:	4379      	muls	r1, r7
 800148e:	4298      	cmp	r0, r3
 8001490:	d903      	bls.n	800149a <__aeabi_ddiv+0x242>
 8001492:	2080      	movs	r0, #128	; 0x80
 8001494:	0240      	lsls	r0, r0, #9
 8001496:	4684      	mov	ip, r0
 8001498:	4461      	add	r1, ip
 800149a:	0c18      	lsrs	r0, r3, #16
 800149c:	0412      	lsls	r2, r2, #16
 800149e:	041b      	lsls	r3, r3, #16
 80014a0:	0c12      	lsrs	r2, r2, #16
 80014a2:	1841      	adds	r1, r0, r1
 80014a4:	189b      	adds	r3, r3, r2
 80014a6:	428e      	cmp	r6, r1
 80014a8:	d200      	bcs.n	80014ac <__aeabi_ddiv+0x254>
 80014aa:	e0ff      	b.n	80016ac <__aeabi_ddiv+0x454>
 80014ac:	d100      	bne.n	80014b0 <__aeabi_ddiv+0x258>
 80014ae:	e0fa      	b.n	80016a6 <__aeabi_ddiv+0x44e>
 80014b0:	2301      	movs	r3, #1
 80014b2:	431d      	orrs	r5, r3
 80014b4:	4a49      	ldr	r2, [pc, #292]	; (80015dc <__aeabi_ddiv+0x384>)
 80014b6:	445a      	add	r2, fp
 80014b8:	2a00      	cmp	r2, #0
 80014ba:	dc00      	bgt.n	80014be <__aeabi_ddiv+0x266>
 80014bc:	e0aa      	b.n	8001614 <__aeabi_ddiv+0x3bc>
 80014be:	076b      	lsls	r3, r5, #29
 80014c0:	d000      	beq.n	80014c4 <__aeabi_ddiv+0x26c>
 80014c2:	e13d      	b.n	8001740 <__aeabi_ddiv+0x4e8>
 80014c4:	08ed      	lsrs	r5, r5, #3
 80014c6:	4643      	mov	r3, r8
 80014c8:	01db      	lsls	r3, r3, #7
 80014ca:	d506      	bpl.n	80014da <__aeabi_ddiv+0x282>
 80014cc:	4642      	mov	r2, r8
 80014ce:	4b44      	ldr	r3, [pc, #272]	; (80015e0 <__aeabi_ddiv+0x388>)
 80014d0:	401a      	ands	r2, r3
 80014d2:	4690      	mov	r8, r2
 80014d4:	2280      	movs	r2, #128	; 0x80
 80014d6:	00d2      	lsls	r2, r2, #3
 80014d8:	445a      	add	r2, fp
 80014da:	4b42      	ldr	r3, [pc, #264]	; (80015e4 <__aeabi_ddiv+0x38c>)
 80014dc:	429a      	cmp	r2, r3
 80014de:	dd00      	ble.n	80014e2 <__aeabi_ddiv+0x28a>
 80014e0:	e71f      	b.n	8001322 <__aeabi_ddiv+0xca>
 80014e2:	4643      	mov	r3, r8
 80014e4:	075b      	lsls	r3, r3, #29
 80014e6:	431d      	orrs	r5, r3
 80014e8:	4643      	mov	r3, r8
 80014ea:	0552      	lsls	r2, r2, #21
 80014ec:	025c      	lsls	r4, r3, #9
 80014ee:	0b24      	lsrs	r4, r4, #12
 80014f0:	0d53      	lsrs	r3, r2, #21
 80014f2:	e708      	b.n	8001306 <__aeabi_ddiv+0xae>
 80014f4:	4652      	mov	r2, sl
 80014f6:	4322      	orrs	r2, r4
 80014f8:	d100      	bne.n	80014fc <__aeabi_ddiv+0x2a4>
 80014fa:	e07b      	b.n	80015f4 <__aeabi_ddiv+0x39c>
 80014fc:	2c00      	cmp	r4, #0
 80014fe:	d100      	bne.n	8001502 <__aeabi_ddiv+0x2aa>
 8001500:	e0fa      	b.n	80016f8 <__aeabi_ddiv+0x4a0>
 8001502:	0020      	movs	r0, r4
 8001504:	f001 fa14 	bl	8002930 <__clzsi2>
 8001508:	0002      	movs	r2, r0
 800150a:	3a0b      	subs	r2, #11
 800150c:	231d      	movs	r3, #29
 800150e:	0001      	movs	r1, r0
 8001510:	1a9b      	subs	r3, r3, r2
 8001512:	4652      	mov	r2, sl
 8001514:	3908      	subs	r1, #8
 8001516:	40da      	lsrs	r2, r3
 8001518:	408c      	lsls	r4, r1
 800151a:	4314      	orrs	r4, r2
 800151c:	4652      	mov	r2, sl
 800151e:	408a      	lsls	r2, r1
 8001520:	4b31      	ldr	r3, [pc, #196]	; (80015e8 <__aeabi_ddiv+0x390>)
 8001522:	4458      	add	r0, fp
 8001524:	469b      	mov	fp, r3
 8001526:	4483      	add	fp, r0
 8001528:	2000      	movs	r0, #0
 800152a:	e6d5      	b.n	80012d8 <__aeabi_ddiv+0x80>
 800152c:	464b      	mov	r3, r9
 800152e:	4323      	orrs	r3, r4
 8001530:	4698      	mov	r8, r3
 8001532:	d044      	beq.n	80015be <__aeabi_ddiv+0x366>
 8001534:	2c00      	cmp	r4, #0
 8001536:	d100      	bne.n	800153a <__aeabi_ddiv+0x2e2>
 8001538:	e0ce      	b.n	80016d8 <__aeabi_ddiv+0x480>
 800153a:	0020      	movs	r0, r4
 800153c:	f001 f9f8 	bl	8002930 <__clzsi2>
 8001540:	0001      	movs	r1, r0
 8001542:	0002      	movs	r2, r0
 8001544:	390b      	subs	r1, #11
 8001546:	231d      	movs	r3, #29
 8001548:	1a5b      	subs	r3, r3, r1
 800154a:	4649      	mov	r1, r9
 800154c:	0010      	movs	r0, r2
 800154e:	40d9      	lsrs	r1, r3
 8001550:	3808      	subs	r0, #8
 8001552:	4084      	lsls	r4, r0
 8001554:	000b      	movs	r3, r1
 8001556:	464d      	mov	r5, r9
 8001558:	4323      	orrs	r3, r4
 800155a:	4698      	mov	r8, r3
 800155c:	4085      	lsls	r5, r0
 800155e:	4823      	ldr	r0, [pc, #140]	; (80015ec <__aeabi_ddiv+0x394>)
 8001560:	1a83      	subs	r3, r0, r2
 8001562:	469b      	mov	fp, r3
 8001564:	2300      	movs	r3, #0
 8001566:	4699      	mov	r9, r3
 8001568:	9300      	str	r3, [sp, #0]
 800156a:	e69a      	b.n	80012a2 <__aeabi_ddiv+0x4a>
 800156c:	464b      	mov	r3, r9
 800156e:	4323      	orrs	r3, r4
 8001570:	4698      	mov	r8, r3
 8001572:	d11d      	bne.n	80015b0 <__aeabi_ddiv+0x358>
 8001574:	2308      	movs	r3, #8
 8001576:	4699      	mov	r9, r3
 8001578:	3b06      	subs	r3, #6
 800157a:	2500      	movs	r5, #0
 800157c:	4683      	mov	fp, r0
 800157e:	9300      	str	r3, [sp, #0]
 8001580:	e68f      	b.n	80012a2 <__aeabi_ddiv+0x4a>
 8001582:	4652      	mov	r2, sl
 8001584:	4322      	orrs	r2, r4
 8001586:	d109      	bne.n	800159c <__aeabi_ddiv+0x344>
 8001588:	2302      	movs	r3, #2
 800158a:	4649      	mov	r1, r9
 800158c:	4319      	orrs	r1, r3
 800158e:	4b18      	ldr	r3, [pc, #96]	; (80015f0 <__aeabi_ddiv+0x398>)
 8001590:	4689      	mov	r9, r1
 8001592:	469c      	mov	ip, r3
 8001594:	2400      	movs	r4, #0
 8001596:	2002      	movs	r0, #2
 8001598:	44e3      	add	fp, ip
 800159a:	e69d      	b.n	80012d8 <__aeabi_ddiv+0x80>
 800159c:	2303      	movs	r3, #3
 800159e:	464a      	mov	r2, r9
 80015a0:	431a      	orrs	r2, r3
 80015a2:	4b13      	ldr	r3, [pc, #76]	; (80015f0 <__aeabi_ddiv+0x398>)
 80015a4:	4691      	mov	r9, r2
 80015a6:	469c      	mov	ip, r3
 80015a8:	4652      	mov	r2, sl
 80015aa:	2003      	movs	r0, #3
 80015ac:	44e3      	add	fp, ip
 80015ae:	e693      	b.n	80012d8 <__aeabi_ddiv+0x80>
 80015b0:	230c      	movs	r3, #12
 80015b2:	4699      	mov	r9, r3
 80015b4:	3b09      	subs	r3, #9
 80015b6:	46a0      	mov	r8, r4
 80015b8:	4683      	mov	fp, r0
 80015ba:	9300      	str	r3, [sp, #0]
 80015bc:	e671      	b.n	80012a2 <__aeabi_ddiv+0x4a>
 80015be:	2304      	movs	r3, #4
 80015c0:	4699      	mov	r9, r3
 80015c2:	2300      	movs	r3, #0
 80015c4:	469b      	mov	fp, r3
 80015c6:	3301      	adds	r3, #1
 80015c8:	2500      	movs	r5, #0
 80015ca:	9300      	str	r3, [sp, #0]
 80015cc:	e669      	b.n	80012a2 <__aeabi_ddiv+0x4a>
 80015ce:	46c0      	nop			; (mov r8, r8)
 80015d0:	000007ff 	.word	0x000007ff
 80015d4:	fffffc01 	.word	0xfffffc01
 80015d8:	0800b1cc 	.word	0x0800b1cc
 80015dc:	000003ff 	.word	0x000003ff
 80015e0:	feffffff 	.word	0xfeffffff
 80015e4:	000007fe 	.word	0x000007fe
 80015e8:	000003f3 	.word	0x000003f3
 80015ec:	fffffc0d 	.word	0xfffffc0d
 80015f0:	fffff801 	.word	0xfffff801
 80015f4:	4649      	mov	r1, r9
 80015f6:	2301      	movs	r3, #1
 80015f8:	4319      	orrs	r1, r3
 80015fa:	4689      	mov	r9, r1
 80015fc:	2400      	movs	r4, #0
 80015fe:	2001      	movs	r0, #1
 8001600:	e66a      	b.n	80012d8 <__aeabi_ddiv+0x80>
 8001602:	2300      	movs	r3, #0
 8001604:	2480      	movs	r4, #128	; 0x80
 8001606:	469a      	mov	sl, r3
 8001608:	2500      	movs	r5, #0
 800160a:	4b8a      	ldr	r3, [pc, #552]	; (8001834 <__aeabi_ddiv+0x5dc>)
 800160c:	0324      	lsls	r4, r4, #12
 800160e:	e67a      	b.n	8001306 <__aeabi_ddiv+0xae>
 8001610:	2501      	movs	r5, #1
 8001612:	426d      	negs	r5, r5
 8001614:	2301      	movs	r3, #1
 8001616:	1a9b      	subs	r3, r3, r2
 8001618:	2b38      	cmp	r3, #56	; 0x38
 800161a:	dd00      	ble.n	800161e <__aeabi_ddiv+0x3c6>
 800161c:	e670      	b.n	8001300 <__aeabi_ddiv+0xa8>
 800161e:	2b1f      	cmp	r3, #31
 8001620:	dc00      	bgt.n	8001624 <__aeabi_ddiv+0x3cc>
 8001622:	e0bf      	b.n	80017a4 <__aeabi_ddiv+0x54c>
 8001624:	211f      	movs	r1, #31
 8001626:	4249      	negs	r1, r1
 8001628:	1a8a      	subs	r2, r1, r2
 800162a:	4641      	mov	r1, r8
 800162c:	40d1      	lsrs	r1, r2
 800162e:	000a      	movs	r2, r1
 8001630:	2b20      	cmp	r3, #32
 8001632:	d004      	beq.n	800163e <__aeabi_ddiv+0x3e6>
 8001634:	4641      	mov	r1, r8
 8001636:	4b80      	ldr	r3, [pc, #512]	; (8001838 <__aeabi_ddiv+0x5e0>)
 8001638:	445b      	add	r3, fp
 800163a:	4099      	lsls	r1, r3
 800163c:	430d      	orrs	r5, r1
 800163e:	1e6b      	subs	r3, r5, #1
 8001640:	419d      	sbcs	r5, r3
 8001642:	2307      	movs	r3, #7
 8001644:	432a      	orrs	r2, r5
 8001646:	001d      	movs	r5, r3
 8001648:	2400      	movs	r4, #0
 800164a:	4015      	ands	r5, r2
 800164c:	4213      	tst	r3, r2
 800164e:	d100      	bne.n	8001652 <__aeabi_ddiv+0x3fa>
 8001650:	e0d4      	b.n	80017fc <__aeabi_ddiv+0x5a4>
 8001652:	210f      	movs	r1, #15
 8001654:	2300      	movs	r3, #0
 8001656:	4011      	ands	r1, r2
 8001658:	2904      	cmp	r1, #4
 800165a:	d100      	bne.n	800165e <__aeabi_ddiv+0x406>
 800165c:	e0cb      	b.n	80017f6 <__aeabi_ddiv+0x59e>
 800165e:	1d11      	adds	r1, r2, #4
 8001660:	4291      	cmp	r1, r2
 8001662:	4192      	sbcs	r2, r2
 8001664:	4252      	negs	r2, r2
 8001666:	189b      	adds	r3, r3, r2
 8001668:	000a      	movs	r2, r1
 800166a:	0219      	lsls	r1, r3, #8
 800166c:	d400      	bmi.n	8001670 <__aeabi_ddiv+0x418>
 800166e:	e0c2      	b.n	80017f6 <__aeabi_ddiv+0x59e>
 8001670:	2301      	movs	r3, #1
 8001672:	2400      	movs	r4, #0
 8001674:	2500      	movs	r5, #0
 8001676:	e646      	b.n	8001306 <__aeabi_ddiv+0xae>
 8001678:	2380      	movs	r3, #128	; 0x80
 800167a:	4641      	mov	r1, r8
 800167c:	031b      	lsls	r3, r3, #12
 800167e:	4219      	tst	r1, r3
 8001680:	d008      	beq.n	8001694 <__aeabi_ddiv+0x43c>
 8001682:	421c      	tst	r4, r3
 8001684:	d106      	bne.n	8001694 <__aeabi_ddiv+0x43c>
 8001686:	431c      	orrs	r4, r3
 8001688:	0324      	lsls	r4, r4, #12
 800168a:	46ba      	mov	sl, r7
 800168c:	0015      	movs	r5, r2
 800168e:	4b69      	ldr	r3, [pc, #420]	; (8001834 <__aeabi_ddiv+0x5dc>)
 8001690:	0b24      	lsrs	r4, r4, #12
 8001692:	e638      	b.n	8001306 <__aeabi_ddiv+0xae>
 8001694:	2480      	movs	r4, #128	; 0x80
 8001696:	4643      	mov	r3, r8
 8001698:	0324      	lsls	r4, r4, #12
 800169a:	431c      	orrs	r4, r3
 800169c:	0324      	lsls	r4, r4, #12
 800169e:	46b2      	mov	sl, r6
 80016a0:	4b64      	ldr	r3, [pc, #400]	; (8001834 <__aeabi_ddiv+0x5dc>)
 80016a2:	0b24      	lsrs	r4, r4, #12
 80016a4:	e62f      	b.n	8001306 <__aeabi_ddiv+0xae>
 80016a6:	2b00      	cmp	r3, #0
 80016a8:	d100      	bne.n	80016ac <__aeabi_ddiv+0x454>
 80016aa:	e703      	b.n	80014b4 <__aeabi_ddiv+0x25c>
 80016ac:	19a6      	adds	r6, r4, r6
 80016ae:	1e68      	subs	r0, r5, #1
 80016b0:	42a6      	cmp	r6, r4
 80016b2:	d200      	bcs.n	80016b6 <__aeabi_ddiv+0x45e>
 80016b4:	e08d      	b.n	80017d2 <__aeabi_ddiv+0x57a>
 80016b6:	428e      	cmp	r6, r1
 80016b8:	d200      	bcs.n	80016bc <__aeabi_ddiv+0x464>
 80016ba:	e0a3      	b.n	8001804 <__aeabi_ddiv+0x5ac>
 80016bc:	d100      	bne.n	80016c0 <__aeabi_ddiv+0x468>
 80016be:	e0b3      	b.n	8001828 <__aeabi_ddiv+0x5d0>
 80016c0:	0005      	movs	r5, r0
 80016c2:	e6f5      	b.n	80014b0 <__aeabi_ddiv+0x258>
 80016c4:	42aa      	cmp	r2, r5
 80016c6:	d900      	bls.n	80016ca <__aeabi_ddiv+0x472>
 80016c8:	e639      	b.n	800133e <__aeabi_ddiv+0xe6>
 80016ca:	4643      	mov	r3, r8
 80016cc:	07de      	lsls	r6, r3, #31
 80016ce:	0858      	lsrs	r0, r3, #1
 80016d0:	086b      	lsrs	r3, r5, #1
 80016d2:	431e      	orrs	r6, r3
 80016d4:	07ed      	lsls	r5, r5, #31
 80016d6:	e639      	b.n	800134c <__aeabi_ddiv+0xf4>
 80016d8:	4648      	mov	r0, r9
 80016da:	f001 f929 	bl	8002930 <__clzsi2>
 80016de:	0001      	movs	r1, r0
 80016e0:	0002      	movs	r2, r0
 80016e2:	3115      	adds	r1, #21
 80016e4:	3220      	adds	r2, #32
 80016e6:	291c      	cmp	r1, #28
 80016e8:	dc00      	bgt.n	80016ec <__aeabi_ddiv+0x494>
 80016ea:	e72c      	b.n	8001546 <__aeabi_ddiv+0x2ee>
 80016ec:	464b      	mov	r3, r9
 80016ee:	3808      	subs	r0, #8
 80016f0:	4083      	lsls	r3, r0
 80016f2:	2500      	movs	r5, #0
 80016f4:	4698      	mov	r8, r3
 80016f6:	e732      	b.n	800155e <__aeabi_ddiv+0x306>
 80016f8:	f001 f91a 	bl	8002930 <__clzsi2>
 80016fc:	0003      	movs	r3, r0
 80016fe:	001a      	movs	r2, r3
 8001700:	3215      	adds	r2, #21
 8001702:	3020      	adds	r0, #32
 8001704:	2a1c      	cmp	r2, #28
 8001706:	dc00      	bgt.n	800170a <__aeabi_ddiv+0x4b2>
 8001708:	e700      	b.n	800150c <__aeabi_ddiv+0x2b4>
 800170a:	4654      	mov	r4, sl
 800170c:	3b08      	subs	r3, #8
 800170e:	2200      	movs	r2, #0
 8001710:	409c      	lsls	r4, r3
 8001712:	e705      	b.n	8001520 <__aeabi_ddiv+0x2c8>
 8001714:	1936      	adds	r6, r6, r4
 8001716:	3b01      	subs	r3, #1
 8001718:	42b4      	cmp	r4, r6
 800171a:	d900      	bls.n	800171e <__aeabi_ddiv+0x4c6>
 800171c:	e6a6      	b.n	800146c <__aeabi_ddiv+0x214>
 800171e:	42b2      	cmp	r2, r6
 8001720:	d800      	bhi.n	8001724 <__aeabi_ddiv+0x4cc>
 8001722:	e6a3      	b.n	800146c <__aeabi_ddiv+0x214>
 8001724:	1e83      	subs	r3, r0, #2
 8001726:	1936      	adds	r6, r6, r4
 8001728:	e6a0      	b.n	800146c <__aeabi_ddiv+0x214>
 800172a:	1909      	adds	r1, r1, r4
 800172c:	3d01      	subs	r5, #1
 800172e:	428c      	cmp	r4, r1
 8001730:	d900      	bls.n	8001734 <__aeabi_ddiv+0x4dc>
 8001732:	e68d      	b.n	8001450 <__aeabi_ddiv+0x1f8>
 8001734:	428a      	cmp	r2, r1
 8001736:	d800      	bhi.n	800173a <__aeabi_ddiv+0x4e2>
 8001738:	e68a      	b.n	8001450 <__aeabi_ddiv+0x1f8>
 800173a:	1e85      	subs	r5, r0, #2
 800173c:	1909      	adds	r1, r1, r4
 800173e:	e687      	b.n	8001450 <__aeabi_ddiv+0x1f8>
 8001740:	230f      	movs	r3, #15
 8001742:	402b      	ands	r3, r5
 8001744:	2b04      	cmp	r3, #4
 8001746:	d100      	bne.n	800174a <__aeabi_ddiv+0x4f2>
 8001748:	e6bc      	b.n	80014c4 <__aeabi_ddiv+0x26c>
 800174a:	2305      	movs	r3, #5
 800174c:	425b      	negs	r3, r3
 800174e:	42ab      	cmp	r3, r5
 8001750:	419b      	sbcs	r3, r3
 8001752:	3504      	adds	r5, #4
 8001754:	425b      	negs	r3, r3
 8001756:	08ed      	lsrs	r5, r5, #3
 8001758:	4498      	add	r8, r3
 800175a:	e6b4      	b.n	80014c6 <__aeabi_ddiv+0x26e>
 800175c:	42af      	cmp	r7, r5
 800175e:	d900      	bls.n	8001762 <__aeabi_ddiv+0x50a>
 8001760:	e660      	b.n	8001424 <__aeabi_ddiv+0x1cc>
 8001762:	4282      	cmp	r2, r0
 8001764:	d804      	bhi.n	8001770 <__aeabi_ddiv+0x518>
 8001766:	d000      	beq.n	800176a <__aeabi_ddiv+0x512>
 8001768:	e65c      	b.n	8001424 <__aeabi_ddiv+0x1cc>
 800176a:	42ae      	cmp	r6, r5
 800176c:	d800      	bhi.n	8001770 <__aeabi_ddiv+0x518>
 800176e:	e659      	b.n	8001424 <__aeabi_ddiv+0x1cc>
 8001770:	2302      	movs	r3, #2
 8001772:	425b      	negs	r3, r3
 8001774:	469c      	mov	ip, r3
 8001776:	9b00      	ldr	r3, [sp, #0]
 8001778:	44e0      	add	r8, ip
 800177a:	469c      	mov	ip, r3
 800177c:	4465      	add	r5, ip
 800177e:	429d      	cmp	r5, r3
 8001780:	419b      	sbcs	r3, r3
 8001782:	425b      	negs	r3, r3
 8001784:	191b      	adds	r3, r3, r4
 8001786:	18c0      	adds	r0, r0, r3
 8001788:	e64d      	b.n	8001426 <__aeabi_ddiv+0x1ce>
 800178a:	428a      	cmp	r2, r1
 800178c:	d800      	bhi.n	8001790 <__aeabi_ddiv+0x538>
 800178e:	e60e      	b.n	80013ae <__aeabi_ddiv+0x156>
 8001790:	1e83      	subs	r3, r0, #2
 8001792:	1909      	adds	r1, r1, r4
 8001794:	e60b      	b.n	80013ae <__aeabi_ddiv+0x156>
 8001796:	428a      	cmp	r2, r1
 8001798:	d800      	bhi.n	800179c <__aeabi_ddiv+0x544>
 800179a:	e5f4      	b.n	8001386 <__aeabi_ddiv+0x12e>
 800179c:	1e83      	subs	r3, r0, #2
 800179e:	4698      	mov	r8, r3
 80017a0:	1909      	adds	r1, r1, r4
 80017a2:	e5f0      	b.n	8001386 <__aeabi_ddiv+0x12e>
 80017a4:	4925      	ldr	r1, [pc, #148]	; (800183c <__aeabi_ddiv+0x5e4>)
 80017a6:	0028      	movs	r0, r5
 80017a8:	4459      	add	r1, fp
 80017aa:	408d      	lsls	r5, r1
 80017ac:	4642      	mov	r2, r8
 80017ae:	408a      	lsls	r2, r1
 80017b0:	1e69      	subs	r1, r5, #1
 80017b2:	418d      	sbcs	r5, r1
 80017b4:	4641      	mov	r1, r8
 80017b6:	40d8      	lsrs	r0, r3
 80017b8:	40d9      	lsrs	r1, r3
 80017ba:	4302      	orrs	r2, r0
 80017bc:	432a      	orrs	r2, r5
 80017be:	000b      	movs	r3, r1
 80017c0:	0751      	lsls	r1, r2, #29
 80017c2:	d100      	bne.n	80017c6 <__aeabi_ddiv+0x56e>
 80017c4:	e751      	b.n	800166a <__aeabi_ddiv+0x412>
 80017c6:	210f      	movs	r1, #15
 80017c8:	4011      	ands	r1, r2
 80017ca:	2904      	cmp	r1, #4
 80017cc:	d000      	beq.n	80017d0 <__aeabi_ddiv+0x578>
 80017ce:	e746      	b.n	800165e <__aeabi_ddiv+0x406>
 80017d0:	e74b      	b.n	800166a <__aeabi_ddiv+0x412>
 80017d2:	0005      	movs	r5, r0
 80017d4:	428e      	cmp	r6, r1
 80017d6:	d000      	beq.n	80017da <__aeabi_ddiv+0x582>
 80017d8:	e66a      	b.n	80014b0 <__aeabi_ddiv+0x258>
 80017da:	9a00      	ldr	r2, [sp, #0]
 80017dc:	4293      	cmp	r3, r2
 80017de:	d000      	beq.n	80017e2 <__aeabi_ddiv+0x58a>
 80017e0:	e666      	b.n	80014b0 <__aeabi_ddiv+0x258>
 80017e2:	e667      	b.n	80014b4 <__aeabi_ddiv+0x25c>
 80017e4:	4a16      	ldr	r2, [pc, #88]	; (8001840 <__aeabi_ddiv+0x5e8>)
 80017e6:	445a      	add	r2, fp
 80017e8:	2a00      	cmp	r2, #0
 80017ea:	dc00      	bgt.n	80017ee <__aeabi_ddiv+0x596>
 80017ec:	e710      	b.n	8001610 <__aeabi_ddiv+0x3b8>
 80017ee:	2301      	movs	r3, #1
 80017f0:	2500      	movs	r5, #0
 80017f2:	4498      	add	r8, r3
 80017f4:	e667      	b.n	80014c6 <__aeabi_ddiv+0x26e>
 80017f6:	075d      	lsls	r5, r3, #29
 80017f8:	025b      	lsls	r3, r3, #9
 80017fa:	0b1c      	lsrs	r4, r3, #12
 80017fc:	08d2      	lsrs	r2, r2, #3
 80017fe:	2300      	movs	r3, #0
 8001800:	4315      	orrs	r5, r2
 8001802:	e580      	b.n	8001306 <__aeabi_ddiv+0xae>
 8001804:	9800      	ldr	r0, [sp, #0]
 8001806:	3d02      	subs	r5, #2
 8001808:	0042      	lsls	r2, r0, #1
 800180a:	4282      	cmp	r2, r0
 800180c:	41bf      	sbcs	r7, r7
 800180e:	427f      	negs	r7, r7
 8001810:	193c      	adds	r4, r7, r4
 8001812:	1936      	adds	r6, r6, r4
 8001814:	9200      	str	r2, [sp, #0]
 8001816:	e7dd      	b.n	80017d4 <__aeabi_ddiv+0x57c>
 8001818:	2480      	movs	r4, #128	; 0x80
 800181a:	4643      	mov	r3, r8
 800181c:	0324      	lsls	r4, r4, #12
 800181e:	431c      	orrs	r4, r3
 8001820:	0324      	lsls	r4, r4, #12
 8001822:	4b04      	ldr	r3, [pc, #16]	; (8001834 <__aeabi_ddiv+0x5dc>)
 8001824:	0b24      	lsrs	r4, r4, #12
 8001826:	e56e      	b.n	8001306 <__aeabi_ddiv+0xae>
 8001828:	9a00      	ldr	r2, [sp, #0]
 800182a:	429a      	cmp	r2, r3
 800182c:	d3ea      	bcc.n	8001804 <__aeabi_ddiv+0x5ac>
 800182e:	0005      	movs	r5, r0
 8001830:	e7d3      	b.n	80017da <__aeabi_ddiv+0x582>
 8001832:	46c0      	nop			; (mov r8, r8)
 8001834:	000007ff 	.word	0x000007ff
 8001838:	0000043e 	.word	0x0000043e
 800183c:	0000041e 	.word	0x0000041e
 8001840:	000003ff 	.word	0x000003ff

08001844 <__eqdf2>:
 8001844:	b5f0      	push	{r4, r5, r6, r7, lr}
 8001846:	464e      	mov	r6, r9
 8001848:	4645      	mov	r5, r8
 800184a:	46de      	mov	lr, fp
 800184c:	4657      	mov	r7, sl
 800184e:	4690      	mov	r8, r2
 8001850:	b5e0      	push	{r5, r6, r7, lr}
 8001852:	0017      	movs	r7, r2
 8001854:	031a      	lsls	r2, r3, #12
 8001856:	0b12      	lsrs	r2, r2, #12
 8001858:	0005      	movs	r5, r0
 800185a:	4684      	mov	ip, r0
 800185c:	4819      	ldr	r0, [pc, #100]	; (80018c4 <__eqdf2+0x80>)
 800185e:	030e      	lsls	r6, r1, #12
 8001860:	004c      	lsls	r4, r1, #1
 8001862:	4691      	mov	r9, r2
 8001864:	005a      	lsls	r2, r3, #1
 8001866:	0fdb      	lsrs	r3, r3, #31
 8001868:	469b      	mov	fp, r3
 800186a:	0b36      	lsrs	r6, r6, #12
 800186c:	0d64      	lsrs	r4, r4, #21
 800186e:	0fc9      	lsrs	r1, r1, #31
 8001870:	0d52      	lsrs	r2, r2, #21
 8001872:	4284      	cmp	r4, r0
 8001874:	d019      	beq.n	80018aa <__eqdf2+0x66>
 8001876:	4282      	cmp	r2, r0
 8001878:	d010      	beq.n	800189c <__eqdf2+0x58>
 800187a:	2001      	movs	r0, #1
 800187c:	4294      	cmp	r4, r2
 800187e:	d10e      	bne.n	800189e <__eqdf2+0x5a>
 8001880:	454e      	cmp	r6, r9
 8001882:	d10c      	bne.n	800189e <__eqdf2+0x5a>
 8001884:	2001      	movs	r0, #1
 8001886:	45c4      	cmp	ip, r8
 8001888:	d109      	bne.n	800189e <__eqdf2+0x5a>
 800188a:	4559      	cmp	r1, fp
 800188c:	d017      	beq.n	80018be <__eqdf2+0x7a>
 800188e:	2c00      	cmp	r4, #0
 8001890:	d105      	bne.n	800189e <__eqdf2+0x5a>
 8001892:	0030      	movs	r0, r6
 8001894:	4328      	orrs	r0, r5
 8001896:	1e43      	subs	r3, r0, #1
 8001898:	4198      	sbcs	r0, r3
 800189a:	e000      	b.n	800189e <__eqdf2+0x5a>
 800189c:	2001      	movs	r0, #1
 800189e:	bcf0      	pop	{r4, r5, r6, r7}
 80018a0:	46bb      	mov	fp, r7
 80018a2:	46b2      	mov	sl, r6
 80018a4:	46a9      	mov	r9, r5
 80018a6:	46a0      	mov	r8, r4
 80018a8:	bdf0      	pop	{r4, r5, r6, r7, pc}
 80018aa:	0033      	movs	r3, r6
 80018ac:	2001      	movs	r0, #1
 80018ae:	432b      	orrs	r3, r5
 80018b0:	d1f5      	bne.n	800189e <__eqdf2+0x5a>
 80018b2:	42a2      	cmp	r2, r4
 80018b4:	d1f3      	bne.n	800189e <__eqdf2+0x5a>
 80018b6:	464b      	mov	r3, r9
 80018b8:	433b      	orrs	r3, r7
 80018ba:	d1f0      	bne.n	800189e <__eqdf2+0x5a>
 80018bc:	e7e2      	b.n	8001884 <__eqdf2+0x40>
 80018be:	2000      	movs	r0, #0
 80018c0:	e7ed      	b.n	800189e <__eqdf2+0x5a>
 80018c2:	46c0      	nop			; (mov r8, r8)
 80018c4:	000007ff 	.word	0x000007ff

080018c8 <__gedf2>:
 80018c8:	b5f0      	push	{r4, r5, r6, r7, lr}
 80018ca:	4647      	mov	r7, r8
 80018cc:	46ce      	mov	lr, r9
 80018ce:	0004      	movs	r4, r0
 80018d0:	0018      	movs	r0, r3
 80018d2:	0016      	movs	r6, r2
 80018d4:	031b      	lsls	r3, r3, #12
 80018d6:	0b1b      	lsrs	r3, r3, #12
 80018d8:	4d2d      	ldr	r5, [pc, #180]	; (8001990 <__gedf2+0xc8>)
 80018da:	004a      	lsls	r2, r1, #1
 80018dc:	4699      	mov	r9, r3
 80018de:	b580      	push	{r7, lr}
 80018e0:	0043      	lsls	r3, r0, #1
 80018e2:	030f      	lsls	r7, r1, #12
 80018e4:	46a4      	mov	ip, r4
 80018e6:	46b0      	mov	r8, r6
 80018e8:	0b3f      	lsrs	r7, r7, #12
 80018ea:	0d52      	lsrs	r2, r2, #21
 80018ec:	0fc9      	lsrs	r1, r1, #31
 80018ee:	0d5b      	lsrs	r3, r3, #21
 80018f0:	0fc0      	lsrs	r0, r0, #31
 80018f2:	42aa      	cmp	r2, r5
 80018f4:	d021      	beq.n	800193a <__gedf2+0x72>
 80018f6:	42ab      	cmp	r3, r5
 80018f8:	d013      	beq.n	8001922 <__gedf2+0x5a>
 80018fa:	2a00      	cmp	r2, #0
 80018fc:	d122      	bne.n	8001944 <__gedf2+0x7c>
 80018fe:	433c      	orrs	r4, r7
 8001900:	2b00      	cmp	r3, #0
 8001902:	d102      	bne.n	800190a <__gedf2+0x42>
 8001904:	464d      	mov	r5, r9
 8001906:	432e      	orrs	r6, r5
 8001908:	d022      	beq.n	8001950 <__gedf2+0x88>
 800190a:	2c00      	cmp	r4, #0
 800190c:	d010      	beq.n	8001930 <__gedf2+0x68>
 800190e:	4281      	cmp	r1, r0
 8001910:	d022      	beq.n	8001958 <__gedf2+0x90>
 8001912:	2002      	movs	r0, #2
 8001914:	3901      	subs	r1, #1
 8001916:	4008      	ands	r0, r1
 8001918:	3801      	subs	r0, #1
 800191a:	bcc0      	pop	{r6, r7}
 800191c:	46b9      	mov	r9, r7
 800191e:	46b0      	mov	r8, r6
 8001920:	bdf0      	pop	{r4, r5, r6, r7, pc}
 8001922:	464d      	mov	r5, r9
 8001924:	432e      	orrs	r6, r5
 8001926:	d129      	bne.n	800197c <__gedf2+0xb4>
 8001928:	2a00      	cmp	r2, #0
 800192a:	d1f0      	bne.n	800190e <__gedf2+0x46>
 800192c:	433c      	orrs	r4, r7
 800192e:	d1ee      	bne.n	800190e <__gedf2+0x46>
 8001930:	2800      	cmp	r0, #0
 8001932:	d1f2      	bne.n	800191a <__gedf2+0x52>
 8001934:	2001      	movs	r0, #1
 8001936:	4240      	negs	r0, r0
 8001938:	e7ef      	b.n	800191a <__gedf2+0x52>
 800193a:	003d      	movs	r5, r7
 800193c:	4325      	orrs	r5, r4
 800193e:	d11d      	bne.n	800197c <__gedf2+0xb4>
 8001940:	4293      	cmp	r3, r2
 8001942:	d0ee      	beq.n	8001922 <__gedf2+0x5a>
 8001944:	2b00      	cmp	r3, #0
 8001946:	d1e2      	bne.n	800190e <__gedf2+0x46>
 8001948:	464c      	mov	r4, r9
 800194a:	4326      	orrs	r6, r4
 800194c:	d1df      	bne.n	800190e <__gedf2+0x46>
 800194e:	e7e0      	b.n	8001912 <__gedf2+0x4a>
 8001950:	2000      	movs	r0, #0
 8001952:	2c00      	cmp	r4, #0
 8001954:	d0e1      	beq.n	800191a <__gedf2+0x52>
 8001956:	e7dc      	b.n	8001912 <__gedf2+0x4a>
 8001958:	429a      	cmp	r2, r3
 800195a:	dc0a      	bgt.n	8001972 <__gedf2+0xaa>
 800195c:	dbe8      	blt.n	8001930 <__gedf2+0x68>
 800195e:	454f      	cmp	r7, r9
 8001960:	d8d7      	bhi.n	8001912 <__gedf2+0x4a>
 8001962:	d00e      	beq.n	8001982 <__gedf2+0xba>
 8001964:	2000      	movs	r0, #0
 8001966:	454f      	cmp	r7, r9
 8001968:	d2d7      	bcs.n	800191a <__gedf2+0x52>
 800196a:	2900      	cmp	r1, #0
 800196c:	d0e2      	beq.n	8001934 <__gedf2+0x6c>
 800196e:	0008      	movs	r0, r1
 8001970:	e7d3      	b.n	800191a <__gedf2+0x52>
 8001972:	4243      	negs	r3, r0
 8001974:	4158      	adcs	r0, r3
 8001976:	0040      	lsls	r0, r0, #1
 8001978:	3801      	subs	r0, #1
 800197a:	e7ce      	b.n	800191a <__gedf2+0x52>
 800197c:	2002      	movs	r0, #2
 800197e:	4240      	negs	r0, r0
 8001980:	e7cb      	b.n	800191a <__gedf2+0x52>
 8001982:	45c4      	cmp	ip, r8
 8001984:	d8c5      	bhi.n	8001912 <__gedf2+0x4a>
 8001986:	2000      	movs	r0, #0
 8001988:	45c4      	cmp	ip, r8
 800198a:	d2c6      	bcs.n	800191a <__gedf2+0x52>
 800198c:	e7ed      	b.n	800196a <__gedf2+0xa2>
 800198e:	46c0      	nop			; (mov r8, r8)
 8001990:	000007ff 	.word	0x000007ff

08001994 <__ledf2>:
 8001994:	b5f0      	push	{r4, r5, r6, r7, lr}
 8001996:	4647      	mov	r7, r8
 8001998:	46ce      	mov	lr, r9
 800199a:	0004      	movs	r4, r0
 800199c:	0018      	movs	r0, r3
 800199e:	0016      	movs	r6, r2
 80019a0:	031b      	lsls	r3, r3, #12
 80019a2:	0b1b      	lsrs	r3, r3, #12
 80019a4:	4d2c      	ldr	r5, [pc, #176]	; (8001a58 <__ledf2+0xc4>)
 80019a6:	004a      	lsls	r2, r1, #1
 80019a8:	4699      	mov	r9, r3
 80019aa:	b580      	push	{r7, lr}
 80019ac:	0043      	lsls	r3, r0, #1
 80019ae:	030f      	lsls	r7, r1, #12
 80019b0:	46a4      	mov	ip, r4
 80019b2:	46b0      	mov	r8, r6
 80019b4:	0b3f      	lsrs	r7, r7, #12
 80019b6:	0d52      	lsrs	r2, r2, #21
 80019b8:	0fc9      	lsrs	r1, r1, #31
 80019ba:	0d5b      	lsrs	r3, r3, #21
 80019bc:	0fc0      	lsrs	r0, r0, #31
 80019be:	42aa      	cmp	r2, r5
 80019c0:	d00d      	beq.n	80019de <__ledf2+0x4a>
 80019c2:	42ab      	cmp	r3, r5
 80019c4:	d010      	beq.n	80019e8 <__ledf2+0x54>
 80019c6:	2a00      	cmp	r2, #0
 80019c8:	d127      	bne.n	8001a1a <__ledf2+0x86>
 80019ca:	433c      	orrs	r4, r7
 80019cc:	2b00      	cmp	r3, #0
 80019ce:	d111      	bne.n	80019f4 <__ledf2+0x60>
 80019d0:	464d      	mov	r5, r9
 80019d2:	432e      	orrs	r6, r5
 80019d4:	d10e      	bne.n	80019f4 <__ledf2+0x60>
 80019d6:	2000      	movs	r0, #0
 80019d8:	2c00      	cmp	r4, #0
 80019da:	d015      	beq.n	8001a08 <__ledf2+0x74>
 80019dc:	e00e      	b.n	80019fc <__ledf2+0x68>
 80019de:	003d      	movs	r5, r7
 80019e0:	4325      	orrs	r5, r4
 80019e2:	d110      	bne.n	8001a06 <__ledf2+0x72>
 80019e4:	4293      	cmp	r3, r2
 80019e6:	d118      	bne.n	8001a1a <__ledf2+0x86>
 80019e8:	464d      	mov	r5, r9
 80019ea:	432e      	orrs	r6, r5
 80019ec:	d10b      	bne.n	8001a06 <__ledf2+0x72>
 80019ee:	2a00      	cmp	r2, #0
 80019f0:	d102      	bne.n	80019f8 <__ledf2+0x64>
 80019f2:	433c      	orrs	r4, r7
 80019f4:	2c00      	cmp	r4, #0
 80019f6:	d00b      	beq.n	8001a10 <__ledf2+0x7c>
 80019f8:	4281      	cmp	r1, r0
 80019fa:	d014      	beq.n	8001a26 <__ledf2+0x92>
 80019fc:	2002      	movs	r0, #2
 80019fe:	3901      	subs	r1, #1
 8001a00:	4008      	ands	r0, r1
 8001a02:	3801      	subs	r0, #1
 8001a04:	e000      	b.n	8001a08 <__ledf2+0x74>
 8001a06:	2002      	movs	r0, #2
 8001a08:	bcc0      	pop	{r6, r7}
 8001a0a:	46b9      	mov	r9, r7
 8001a0c:	46b0      	mov	r8, r6
 8001a0e:	bdf0      	pop	{r4, r5, r6, r7, pc}
 8001a10:	2800      	cmp	r0, #0
 8001a12:	d1f9      	bne.n	8001a08 <__ledf2+0x74>
 8001a14:	2001      	movs	r0, #1
 8001a16:	4240      	negs	r0, r0
 8001a18:	e7f6      	b.n	8001a08 <__ledf2+0x74>
 8001a1a:	2b00      	cmp	r3, #0
 8001a1c:	d1ec      	bne.n	80019f8 <__ledf2+0x64>
 8001a1e:	464c      	mov	r4, r9
 8001a20:	4326      	orrs	r6, r4
 8001a22:	d1e9      	bne.n	80019f8 <__ledf2+0x64>
 8001a24:	e7ea      	b.n	80019fc <__ledf2+0x68>
 8001a26:	429a      	cmp	r2, r3
 8001a28:	dd04      	ble.n	8001a34 <__ledf2+0xa0>
 8001a2a:	4243      	negs	r3, r0
 8001a2c:	4158      	adcs	r0, r3
 8001a2e:	0040      	lsls	r0, r0, #1
 8001a30:	3801      	subs	r0, #1
 8001a32:	e7e9      	b.n	8001a08 <__ledf2+0x74>
 8001a34:	429a      	cmp	r2, r3
 8001a36:	dbeb      	blt.n	8001a10 <__ledf2+0x7c>
 8001a38:	454f      	cmp	r7, r9
 8001a3a:	d8df      	bhi.n	80019fc <__ledf2+0x68>
 8001a3c:	d006      	beq.n	8001a4c <__ledf2+0xb8>
 8001a3e:	2000      	movs	r0, #0
 8001a40:	454f      	cmp	r7, r9
 8001a42:	d2e1      	bcs.n	8001a08 <__ledf2+0x74>
 8001a44:	2900      	cmp	r1, #0
 8001a46:	d0e5      	beq.n	8001a14 <__ledf2+0x80>
 8001a48:	0008      	movs	r0, r1
 8001a4a:	e7dd      	b.n	8001a08 <__ledf2+0x74>
 8001a4c:	45c4      	cmp	ip, r8
 8001a4e:	d8d5      	bhi.n	80019fc <__ledf2+0x68>
 8001a50:	2000      	movs	r0, #0
 8001a52:	45c4      	cmp	ip, r8
 8001a54:	d2d8      	bcs.n	8001a08 <__ledf2+0x74>
 8001a56:	e7f5      	b.n	8001a44 <__ledf2+0xb0>
 8001a58:	000007ff 	.word	0x000007ff

08001a5c <__aeabi_dmul>:
 8001a5c:	b5f0      	push	{r4, r5, r6, r7, lr}
 8001a5e:	4657      	mov	r7, sl
 8001a60:	464e      	mov	r6, r9
 8001a62:	4645      	mov	r5, r8
 8001a64:	46de      	mov	lr, fp
 8001a66:	b5e0      	push	{r5, r6, r7, lr}
 8001a68:	4698      	mov	r8, r3
 8001a6a:	030c      	lsls	r4, r1, #12
 8001a6c:	004b      	lsls	r3, r1, #1
 8001a6e:	0006      	movs	r6, r0
 8001a70:	4692      	mov	sl, r2
 8001a72:	b087      	sub	sp, #28
 8001a74:	0b24      	lsrs	r4, r4, #12
 8001a76:	0d5b      	lsrs	r3, r3, #21
 8001a78:	0fcf      	lsrs	r7, r1, #31
 8001a7a:	2b00      	cmp	r3, #0
 8001a7c:	d100      	bne.n	8001a80 <__aeabi_dmul+0x24>
 8001a7e:	e15c      	b.n	8001d3a <__aeabi_dmul+0x2de>
 8001a80:	4ad9      	ldr	r2, [pc, #868]	; (8001de8 <__aeabi_dmul+0x38c>)
 8001a82:	4293      	cmp	r3, r2
 8001a84:	d100      	bne.n	8001a88 <__aeabi_dmul+0x2c>
 8001a86:	e175      	b.n	8001d74 <__aeabi_dmul+0x318>
 8001a88:	0f42      	lsrs	r2, r0, #29
 8001a8a:	00e4      	lsls	r4, r4, #3
 8001a8c:	4314      	orrs	r4, r2
 8001a8e:	2280      	movs	r2, #128	; 0x80
 8001a90:	0412      	lsls	r2, r2, #16
 8001a92:	4314      	orrs	r4, r2
 8001a94:	4ad5      	ldr	r2, [pc, #852]	; (8001dec <__aeabi_dmul+0x390>)
 8001a96:	00c5      	lsls	r5, r0, #3
 8001a98:	4694      	mov	ip, r2
 8001a9a:	4463      	add	r3, ip
 8001a9c:	9300      	str	r3, [sp, #0]
 8001a9e:	2300      	movs	r3, #0
 8001aa0:	4699      	mov	r9, r3
 8001aa2:	469b      	mov	fp, r3
 8001aa4:	4643      	mov	r3, r8
 8001aa6:	4642      	mov	r2, r8
 8001aa8:	031e      	lsls	r6, r3, #12
 8001aaa:	0fd2      	lsrs	r2, r2, #31
 8001aac:	005b      	lsls	r3, r3, #1
 8001aae:	4650      	mov	r0, sl
 8001ab0:	4690      	mov	r8, r2
 8001ab2:	0b36      	lsrs	r6, r6, #12
 8001ab4:	0d5b      	lsrs	r3, r3, #21
 8001ab6:	d100      	bne.n	8001aba <__aeabi_dmul+0x5e>
 8001ab8:	e120      	b.n	8001cfc <__aeabi_dmul+0x2a0>
 8001aba:	4acb      	ldr	r2, [pc, #812]	; (8001de8 <__aeabi_dmul+0x38c>)
 8001abc:	4293      	cmp	r3, r2
 8001abe:	d100      	bne.n	8001ac2 <__aeabi_dmul+0x66>
 8001ac0:	e162      	b.n	8001d88 <__aeabi_dmul+0x32c>
 8001ac2:	49ca      	ldr	r1, [pc, #808]	; (8001dec <__aeabi_dmul+0x390>)
 8001ac4:	0f42      	lsrs	r2, r0, #29
 8001ac6:	468c      	mov	ip, r1
 8001ac8:	9900      	ldr	r1, [sp, #0]
 8001aca:	4463      	add	r3, ip
 8001acc:	00f6      	lsls	r6, r6, #3
 8001ace:	468c      	mov	ip, r1
 8001ad0:	4316      	orrs	r6, r2
 8001ad2:	2280      	movs	r2, #128	; 0x80
 8001ad4:	449c      	add	ip, r3
 8001ad6:	0412      	lsls	r2, r2, #16
 8001ad8:	4663      	mov	r3, ip
 8001ada:	4316      	orrs	r6, r2
 8001adc:	00c2      	lsls	r2, r0, #3
 8001ade:	2000      	movs	r0, #0
 8001ae0:	9300      	str	r3, [sp, #0]
 8001ae2:	9900      	ldr	r1, [sp, #0]
 8001ae4:	4643      	mov	r3, r8
 8001ae6:	3101      	adds	r1, #1
 8001ae8:	468c      	mov	ip, r1
 8001aea:	4649      	mov	r1, r9
 8001aec:	407b      	eors	r3, r7
 8001aee:	9301      	str	r3, [sp, #4]
 8001af0:	290f      	cmp	r1, #15
 8001af2:	d826      	bhi.n	8001b42 <__aeabi_dmul+0xe6>
 8001af4:	4bbe      	ldr	r3, [pc, #760]	; (8001df0 <__aeabi_dmul+0x394>)
 8001af6:	0089      	lsls	r1, r1, #2
 8001af8:	5859      	ldr	r1, [r3, r1]
 8001afa:	468f      	mov	pc, r1
 8001afc:	4643      	mov	r3, r8
 8001afe:	9301      	str	r3, [sp, #4]
 8001b00:	0034      	movs	r4, r6
 8001b02:	0015      	movs	r5, r2
 8001b04:	4683      	mov	fp, r0
 8001b06:	465b      	mov	r3, fp
 8001b08:	2b02      	cmp	r3, #2
 8001b0a:	d016      	beq.n	8001b3a <__aeabi_dmul+0xde>
 8001b0c:	2b03      	cmp	r3, #3
 8001b0e:	d100      	bne.n	8001b12 <__aeabi_dmul+0xb6>
 8001b10:	e203      	b.n	8001f1a <__aeabi_dmul+0x4be>
 8001b12:	2b01      	cmp	r3, #1
 8001b14:	d000      	beq.n	8001b18 <__aeabi_dmul+0xbc>
 8001b16:	e0cd      	b.n	8001cb4 <__aeabi_dmul+0x258>
 8001b18:	2200      	movs	r2, #0
 8001b1a:	2400      	movs	r4, #0
 8001b1c:	2500      	movs	r5, #0
 8001b1e:	9b01      	ldr	r3, [sp, #4]
 8001b20:	0512      	lsls	r2, r2, #20
 8001b22:	4322      	orrs	r2, r4
 8001b24:	07db      	lsls	r3, r3, #31
 8001b26:	431a      	orrs	r2, r3
 8001b28:	0028      	movs	r0, r5
 8001b2a:	0011      	movs	r1, r2
 8001b2c:	b007      	add	sp, #28
 8001b2e:	bcf0      	pop	{r4, r5, r6, r7}
 8001b30:	46bb      	mov	fp, r7
 8001b32:	46b2      	mov	sl, r6
 8001b34:	46a9      	mov	r9, r5
 8001b36:	46a0      	mov	r8, r4
 8001b38:	bdf0      	pop	{r4, r5, r6, r7, pc}
 8001b3a:	2400      	movs	r4, #0
 8001b3c:	2500      	movs	r5, #0
 8001b3e:	4aaa      	ldr	r2, [pc, #680]	; (8001de8 <__aeabi_dmul+0x38c>)
 8001b40:	e7ed      	b.n	8001b1e <__aeabi_dmul+0xc2>
 8001b42:	0c28      	lsrs	r0, r5, #16
 8001b44:	042d      	lsls	r5, r5, #16
 8001b46:	0c2d      	lsrs	r5, r5, #16
 8001b48:	002b      	movs	r3, r5
 8001b4a:	0c11      	lsrs	r1, r2, #16
 8001b4c:	0412      	lsls	r2, r2, #16
 8001b4e:	0c12      	lsrs	r2, r2, #16
 8001b50:	4353      	muls	r3, r2
 8001b52:	4698      	mov	r8, r3
 8001b54:	0013      	movs	r3, r2
 8001b56:	002f      	movs	r7, r5
 8001b58:	4343      	muls	r3, r0
 8001b5a:	4699      	mov	r9, r3
 8001b5c:	434f      	muls	r7, r1
 8001b5e:	444f      	add	r7, r9
 8001b60:	46bb      	mov	fp, r7
 8001b62:	4647      	mov	r7, r8
 8001b64:	000b      	movs	r3, r1
 8001b66:	0c3f      	lsrs	r7, r7, #16
 8001b68:	46ba      	mov	sl, r7
 8001b6a:	4343      	muls	r3, r0
 8001b6c:	44da      	add	sl, fp
 8001b6e:	9302      	str	r3, [sp, #8]
 8001b70:	45d1      	cmp	r9, sl
 8001b72:	d904      	bls.n	8001b7e <__aeabi_dmul+0x122>
 8001b74:	2780      	movs	r7, #128	; 0x80
 8001b76:	027f      	lsls	r7, r7, #9
 8001b78:	46b9      	mov	r9, r7
 8001b7a:	444b      	add	r3, r9
 8001b7c:	9302      	str	r3, [sp, #8]
 8001b7e:	4653      	mov	r3, sl
 8001b80:	0c1b      	lsrs	r3, r3, #16
 8001b82:	469b      	mov	fp, r3
 8001b84:	4653      	mov	r3, sl
 8001b86:	041f      	lsls	r7, r3, #16
 8001b88:	4643      	mov	r3, r8
 8001b8a:	041b      	lsls	r3, r3, #16
 8001b8c:	0c1b      	lsrs	r3, r3, #16
 8001b8e:	4698      	mov	r8, r3
 8001b90:	003b      	movs	r3, r7
 8001b92:	4443      	add	r3, r8
 8001b94:	9304      	str	r3, [sp, #16]
 8001b96:	0c33      	lsrs	r3, r6, #16
 8001b98:	0436      	lsls	r6, r6, #16
 8001b9a:	0c36      	lsrs	r6, r6, #16
 8001b9c:	4698      	mov	r8, r3
 8001b9e:	0033      	movs	r3, r6
 8001ba0:	4343      	muls	r3, r0
 8001ba2:	4699      	mov	r9, r3
 8001ba4:	4643      	mov	r3, r8
 8001ba6:	4343      	muls	r3, r0
 8001ba8:	002f      	movs	r7, r5
 8001baa:	469a      	mov	sl, r3
 8001bac:	4643      	mov	r3, r8
 8001bae:	4377      	muls	r7, r6
 8001bb0:	435d      	muls	r5, r3
 8001bb2:	0c38      	lsrs	r0, r7, #16
 8001bb4:	444d      	add	r5, r9
 8001bb6:	1945      	adds	r5, r0, r5
 8001bb8:	45a9      	cmp	r9, r5
 8001bba:	d903      	bls.n	8001bc4 <__aeabi_dmul+0x168>
 8001bbc:	2380      	movs	r3, #128	; 0x80
 8001bbe:	025b      	lsls	r3, r3, #9
 8001bc0:	4699      	mov	r9, r3
 8001bc2:	44ca      	add	sl, r9
 8001bc4:	043f      	lsls	r7, r7, #16
 8001bc6:	0c28      	lsrs	r0, r5, #16
 8001bc8:	0c3f      	lsrs	r7, r7, #16
 8001bca:	042d      	lsls	r5, r5, #16
 8001bcc:	19ed      	adds	r5, r5, r7
 8001bce:	0c27      	lsrs	r7, r4, #16
 8001bd0:	0424      	lsls	r4, r4, #16
 8001bd2:	0c24      	lsrs	r4, r4, #16
 8001bd4:	0003      	movs	r3, r0
 8001bd6:	0020      	movs	r0, r4
 8001bd8:	4350      	muls	r0, r2
 8001bda:	437a      	muls	r2, r7
 8001bdc:	4691      	mov	r9, r2
 8001bde:	003a      	movs	r2, r7
 8001be0:	4453      	add	r3, sl
 8001be2:	9305      	str	r3, [sp, #20]
 8001be4:	0c03      	lsrs	r3, r0, #16
 8001be6:	469a      	mov	sl, r3
 8001be8:	434a      	muls	r2, r1
 8001bea:	4361      	muls	r1, r4
 8001bec:	4449      	add	r1, r9
 8001bee:	4451      	add	r1, sl
 8001bf0:	44ab      	add	fp, r5
 8001bf2:	4589      	cmp	r9, r1
 8001bf4:	d903      	bls.n	8001bfe <__aeabi_dmul+0x1a2>
 8001bf6:	2380      	movs	r3, #128	; 0x80
 8001bf8:	025b      	lsls	r3, r3, #9
 8001bfa:	4699      	mov	r9, r3
 8001bfc:	444a      	add	r2, r9
 8001bfe:	0400      	lsls	r0, r0, #16
 8001c00:	0c0b      	lsrs	r3, r1, #16
 8001c02:	0c00      	lsrs	r0, r0, #16
 8001c04:	0409      	lsls	r1, r1, #16
 8001c06:	1809      	adds	r1, r1, r0
 8001c08:	0020      	movs	r0, r4
 8001c0a:	4699      	mov	r9, r3
 8001c0c:	4643      	mov	r3, r8
 8001c0e:	4370      	muls	r0, r6
 8001c10:	435c      	muls	r4, r3
 8001c12:	437e      	muls	r6, r7
 8001c14:	435f      	muls	r7, r3
 8001c16:	0c03      	lsrs	r3, r0, #16
 8001c18:	4698      	mov	r8, r3
 8001c1a:	19a4      	adds	r4, r4, r6
 8001c1c:	4444      	add	r4, r8
 8001c1e:	444a      	add	r2, r9
 8001c20:	9703      	str	r7, [sp, #12]
 8001c22:	42a6      	cmp	r6, r4
 8001c24:	d904      	bls.n	8001c30 <__aeabi_dmul+0x1d4>
 8001c26:	2380      	movs	r3, #128	; 0x80
 8001c28:	025b      	lsls	r3, r3, #9
 8001c2a:	4698      	mov	r8, r3
 8001c2c:	4447      	add	r7, r8
 8001c2e:	9703      	str	r7, [sp, #12]
 8001c30:	0423      	lsls	r3, r4, #16
 8001c32:	9e02      	ldr	r6, [sp, #8]
 8001c34:	469a      	mov	sl, r3
 8001c36:	9b05      	ldr	r3, [sp, #20]
 8001c38:	445e      	add	r6, fp
 8001c3a:	4698      	mov	r8, r3
 8001c3c:	42ae      	cmp	r6, r5
 8001c3e:	41ad      	sbcs	r5, r5
 8001c40:	1876      	adds	r6, r6, r1
 8001c42:	428e      	cmp	r6, r1
 8001c44:	4189      	sbcs	r1, r1
 8001c46:	0400      	lsls	r0, r0, #16
 8001c48:	0c00      	lsrs	r0, r0, #16
 8001c4a:	4450      	add	r0, sl
 8001c4c:	4440      	add	r0, r8
 8001c4e:	426d      	negs	r5, r5
 8001c50:	1947      	adds	r7, r0, r5
 8001c52:	46b8      	mov	r8, r7
 8001c54:	4693      	mov	fp, r2
 8001c56:	4249      	negs	r1, r1
 8001c58:	4689      	mov	r9, r1
 8001c5a:	44c3      	add	fp, r8
 8001c5c:	44d9      	add	r9, fp
 8001c5e:	4298      	cmp	r0, r3
 8001c60:	4180      	sbcs	r0, r0
 8001c62:	45a8      	cmp	r8, r5
 8001c64:	41ad      	sbcs	r5, r5
 8001c66:	4593      	cmp	fp, r2
 8001c68:	4192      	sbcs	r2, r2
 8001c6a:	4589      	cmp	r9, r1
 8001c6c:	4189      	sbcs	r1, r1
 8001c6e:	426d      	negs	r5, r5
 8001c70:	4240      	negs	r0, r0
 8001c72:	4328      	orrs	r0, r5
 8001c74:	0c24      	lsrs	r4, r4, #16
 8001c76:	4252      	negs	r2, r2
 8001c78:	4249      	negs	r1, r1
 8001c7a:	430a      	orrs	r2, r1
 8001c7c:	9b03      	ldr	r3, [sp, #12]
 8001c7e:	1900      	adds	r0, r0, r4
 8001c80:	1880      	adds	r0, r0, r2
 8001c82:	18c7      	adds	r7, r0, r3
 8001c84:	464b      	mov	r3, r9
 8001c86:	0ddc      	lsrs	r4, r3, #23
 8001c88:	9b04      	ldr	r3, [sp, #16]
 8001c8a:	0275      	lsls	r5, r6, #9
 8001c8c:	431d      	orrs	r5, r3
 8001c8e:	1e6a      	subs	r2, r5, #1
 8001c90:	4195      	sbcs	r5, r2
 8001c92:	464b      	mov	r3, r9
 8001c94:	0df6      	lsrs	r6, r6, #23
 8001c96:	027f      	lsls	r7, r7, #9
 8001c98:	4335      	orrs	r5, r6
 8001c9a:	025a      	lsls	r2, r3, #9
 8001c9c:	433c      	orrs	r4, r7
 8001c9e:	4315      	orrs	r5, r2
 8001ca0:	01fb      	lsls	r3, r7, #7
 8001ca2:	d400      	bmi.n	8001ca6 <__aeabi_dmul+0x24a>
 8001ca4:	e11c      	b.n	8001ee0 <__aeabi_dmul+0x484>
 8001ca6:	2101      	movs	r1, #1
 8001ca8:	086a      	lsrs	r2, r5, #1
 8001caa:	400d      	ands	r5, r1
 8001cac:	4315      	orrs	r5, r2
 8001cae:	07e2      	lsls	r2, r4, #31
 8001cb0:	4315      	orrs	r5, r2
 8001cb2:	0864      	lsrs	r4, r4, #1
 8001cb4:	494f      	ldr	r1, [pc, #316]	; (8001df4 <__aeabi_dmul+0x398>)
 8001cb6:	4461      	add	r1, ip
 8001cb8:	2900      	cmp	r1, #0
 8001cba:	dc00      	bgt.n	8001cbe <__aeabi_dmul+0x262>
 8001cbc:	e0b0      	b.n	8001e20 <__aeabi_dmul+0x3c4>
 8001cbe:	076b      	lsls	r3, r5, #29
 8001cc0:	d009      	beq.n	8001cd6 <__aeabi_dmul+0x27a>
 8001cc2:	220f      	movs	r2, #15
 8001cc4:	402a      	ands	r2, r5
 8001cc6:	2a04      	cmp	r2, #4
 8001cc8:	d005      	beq.n	8001cd6 <__aeabi_dmul+0x27a>
 8001cca:	1d2a      	adds	r2, r5, #4
 8001ccc:	42aa      	cmp	r2, r5
 8001cce:	41ad      	sbcs	r5, r5
 8001cd0:	426d      	negs	r5, r5
 8001cd2:	1964      	adds	r4, r4, r5
 8001cd4:	0015      	movs	r5, r2
 8001cd6:	01e3      	lsls	r3, r4, #7
 8001cd8:	d504      	bpl.n	8001ce4 <__aeabi_dmul+0x288>
 8001cda:	2180      	movs	r1, #128	; 0x80
 8001cdc:	4a46      	ldr	r2, [pc, #280]	; (8001df8 <__aeabi_dmul+0x39c>)
 8001cde:	00c9      	lsls	r1, r1, #3
 8001ce0:	4014      	ands	r4, r2
 8001ce2:	4461      	add	r1, ip
 8001ce4:	4a45      	ldr	r2, [pc, #276]	; (8001dfc <__aeabi_dmul+0x3a0>)
 8001ce6:	4291      	cmp	r1, r2
 8001ce8:	dd00      	ble.n	8001cec <__aeabi_dmul+0x290>
 8001cea:	e726      	b.n	8001b3a <__aeabi_dmul+0xde>
 8001cec:	0762      	lsls	r2, r4, #29
 8001cee:	08ed      	lsrs	r5, r5, #3
 8001cf0:	0264      	lsls	r4, r4, #9
 8001cf2:	0549      	lsls	r1, r1, #21
 8001cf4:	4315      	orrs	r5, r2
 8001cf6:	0b24      	lsrs	r4, r4, #12
 8001cf8:	0d4a      	lsrs	r2, r1, #21
 8001cfa:	e710      	b.n	8001b1e <__aeabi_dmul+0xc2>
 8001cfc:	4652      	mov	r2, sl
 8001cfe:	4332      	orrs	r2, r6
 8001d00:	d100      	bne.n	8001d04 <__aeabi_dmul+0x2a8>
 8001d02:	e07f      	b.n	8001e04 <__aeabi_dmul+0x3a8>
 8001d04:	2e00      	cmp	r6, #0
 8001d06:	d100      	bne.n	8001d0a <__aeabi_dmul+0x2ae>
 8001d08:	e0dc      	b.n	8001ec4 <__aeabi_dmul+0x468>
 8001d0a:	0030      	movs	r0, r6
 8001d0c:	f000 fe10 	bl	8002930 <__clzsi2>
 8001d10:	0002      	movs	r2, r0
 8001d12:	3a0b      	subs	r2, #11
 8001d14:	231d      	movs	r3, #29
 8001d16:	0001      	movs	r1, r0
 8001d18:	1a9b      	subs	r3, r3, r2
 8001d1a:	4652      	mov	r2, sl
 8001d1c:	3908      	subs	r1, #8
 8001d1e:	40da      	lsrs	r2, r3
 8001d20:	408e      	lsls	r6, r1
 8001d22:	4316      	orrs	r6, r2
 8001d24:	4652      	mov	r2, sl
 8001d26:	408a      	lsls	r2, r1
 8001d28:	9b00      	ldr	r3, [sp, #0]
 8001d2a:	4935      	ldr	r1, [pc, #212]	; (8001e00 <__aeabi_dmul+0x3a4>)
 8001d2c:	1a18      	subs	r0, r3, r0
 8001d2e:	0003      	movs	r3, r0
 8001d30:	468c      	mov	ip, r1
 8001d32:	4463      	add	r3, ip
 8001d34:	2000      	movs	r0, #0
 8001d36:	9300      	str	r3, [sp, #0]
 8001d38:	e6d3      	b.n	8001ae2 <__aeabi_dmul+0x86>
 8001d3a:	0025      	movs	r5, r4
 8001d3c:	4305      	orrs	r5, r0
 8001d3e:	d04a      	beq.n	8001dd6 <__aeabi_dmul+0x37a>
 8001d40:	2c00      	cmp	r4, #0
 8001d42:	d100      	bne.n	8001d46 <__aeabi_dmul+0x2ea>
 8001d44:	e0b0      	b.n	8001ea8 <__aeabi_dmul+0x44c>
 8001d46:	0020      	movs	r0, r4
 8001d48:	f000 fdf2 	bl	8002930 <__clzsi2>
 8001d4c:	0001      	movs	r1, r0
 8001d4e:	0002      	movs	r2, r0
 8001d50:	390b      	subs	r1, #11
 8001d52:	231d      	movs	r3, #29
 8001d54:	0010      	movs	r0, r2
 8001d56:	1a5b      	subs	r3, r3, r1
 8001d58:	0031      	movs	r1, r6
 8001d5a:	0035      	movs	r5, r6
 8001d5c:	3808      	subs	r0, #8
 8001d5e:	4084      	lsls	r4, r0
 8001d60:	40d9      	lsrs	r1, r3
 8001d62:	4085      	lsls	r5, r0
 8001d64:	430c      	orrs	r4, r1
 8001d66:	4826      	ldr	r0, [pc, #152]	; (8001e00 <__aeabi_dmul+0x3a4>)
 8001d68:	1a83      	subs	r3, r0, r2
 8001d6a:	9300      	str	r3, [sp, #0]
 8001d6c:	2300      	movs	r3, #0
 8001d6e:	4699      	mov	r9, r3
 8001d70:	469b      	mov	fp, r3
 8001d72:	e697      	b.n	8001aa4 <__aeabi_dmul+0x48>
 8001d74:	0005      	movs	r5, r0
 8001d76:	4325      	orrs	r5, r4
 8001d78:	d126      	bne.n	8001dc8 <__aeabi_dmul+0x36c>
 8001d7a:	2208      	movs	r2, #8
 8001d7c:	9300      	str	r3, [sp, #0]
 8001d7e:	2302      	movs	r3, #2
 8001d80:	2400      	movs	r4, #0
 8001d82:	4691      	mov	r9, r2
 8001d84:	469b      	mov	fp, r3
 8001d86:	e68d      	b.n	8001aa4 <__aeabi_dmul+0x48>
 8001d88:	4652      	mov	r2, sl
 8001d8a:	9b00      	ldr	r3, [sp, #0]
 8001d8c:	4332      	orrs	r2, r6
 8001d8e:	d110      	bne.n	8001db2 <__aeabi_dmul+0x356>
 8001d90:	4915      	ldr	r1, [pc, #84]	; (8001de8 <__aeabi_dmul+0x38c>)
 8001d92:	2600      	movs	r6, #0
 8001d94:	468c      	mov	ip, r1
 8001d96:	4463      	add	r3, ip
 8001d98:	4649      	mov	r1, r9
 8001d9a:	9300      	str	r3, [sp, #0]
 8001d9c:	2302      	movs	r3, #2
 8001d9e:	4319      	orrs	r1, r3
 8001da0:	4689      	mov	r9, r1
 8001da2:	2002      	movs	r0, #2
 8001da4:	e69d      	b.n	8001ae2 <__aeabi_dmul+0x86>
 8001da6:	465b      	mov	r3, fp
 8001da8:	9701      	str	r7, [sp, #4]
 8001daa:	2b02      	cmp	r3, #2
 8001dac:	d000      	beq.n	8001db0 <__aeabi_dmul+0x354>
 8001dae:	e6ad      	b.n	8001b0c <__aeabi_dmul+0xb0>
 8001db0:	e6c3      	b.n	8001b3a <__aeabi_dmul+0xde>
 8001db2:	4a0d      	ldr	r2, [pc, #52]	; (8001de8 <__aeabi_dmul+0x38c>)
 8001db4:	2003      	movs	r0, #3
 8001db6:	4694      	mov	ip, r2
 8001db8:	4463      	add	r3, ip
 8001dba:	464a      	mov	r2, r9
 8001dbc:	9300      	str	r3, [sp, #0]
 8001dbe:	2303      	movs	r3, #3
 8001dc0:	431a      	orrs	r2, r3
 8001dc2:	4691      	mov	r9, r2
 8001dc4:	4652      	mov	r2, sl
 8001dc6:	e68c      	b.n	8001ae2 <__aeabi_dmul+0x86>
 8001dc8:	220c      	movs	r2, #12
 8001dca:	9300      	str	r3, [sp, #0]
 8001dcc:	2303      	movs	r3, #3
 8001dce:	0005      	movs	r5, r0
 8001dd0:	4691      	mov	r9, r2
 8001dd2:	469b      	mov	fp, r3
 8001dd4:	e666      	b.n	8001aa4 <__aeabi_dmul+0x48>
 8001dd6:	2304      	movs	r3, #4
 8001dd8:	4699      	mov	r9, r3
 8001dda:	2300      	movs	r3, #0
 8001ddc:	9300      	str	r3, [sp, #0]
 8001dde:	3301      	adds	r3, #1
 8001de0:	2400      	movs	r4, #0
 8001de2:	469b      	mov	fp, r3
 8001de4:	e65e      	b.n	8001aa4 <__aeabi_dmul+0x48>
 8001de6:	46c0      	nop			; (mov r8, r8)
 8001de8:	000007ff 	.word	0x000007ff
 8001dec:	fffffc01 	.word	0xfffffc01
 8001df0:	0800b20c 	.word	0x0800b20c
 8001df4:	000003ff 	.word	0x000003ff
 8001df8:	feffffff 	.word	0xfeffffff
 8001dfc:	000007fe 	.word	0x000007fe
 8001e00:	fffffc0d 	.word	0xfffffc0d
 8001e04:	4649      	mov	r1, r9
 8001e06:	2301      	movs	r3, #1
 8001e08:	4319      	orrs	r1, r3
 8001e0a:	4689      	mov	r9, r1
 8001e0c:	2600      	movs	r6, #0
 8001e0e:	2001      	movs	r0, #1
 8001e10:	e667      	b.n	8001ae2 <__aeabi_dmul+0x86>
 8001e12:	2300      	movs	r3, #0
 8001e14:	2480      	movs	r4, #128	; 0x80
 8001e16:	2500      	movs	r5, #0
 8001e18:	4a43      	ldr	r2, [pc, #268]	; (8001f28 <__aeabi_dmul+0x4cc>)
 8001e1a:	9301      	str	r3, [sp, #4]
 8001e1c:	0324      	lsls	r4, r4, #12
 8001e1e:	e67e      	b.n	8001b1e <__aeabi_dmul+0xc2>
 8001e20:	2001      	movs	r0, #1
 8001e22:	1a40      	subs	r0, r0, r1
 8001e24:	2838      	cmp	r0, #56	; 0x38
 8001e26:	dd00      	ble.n	8001e2a <__aeabi_dmul+0x3ce>
 8001e28:	e676      	b.n	8001b18 <__aeabi_dmul+0xbc>
 8001e2a:	281f      	cmp	r0, #31
 8001e2c:	dd5b      	ble.n	8001ee6 <__aeabi_dmul+0x48a>
 8001e2e:	221f      	movs	r2, #31
 8001e30:	0023      	movs	r3, r4
 8001e32:	4252      	negs	r2, r2
 8001e34:	1a51      	subs	r1, r2, r1
 8001e36:	40cb      	lsrs	r3, r1
 8001e38:	0019      	movs	r1, r3
 8001e3a:	2820      	cmp	r0, #32
 8001e3c:	d003      	beq.n	8001e46 <__aeabi_dmul+0x3ea>
 8001e3e:	4a3b      	ldr	r2, [pc, #236]	; (8001f2c <__aeabi_dmul+0x4d0>)
 8001e40:	4462      	add	r2, ip
 8001e42:	4094      	lsls	r4, r2
 8001e44:	4325      	orrs	r5, r4
 8001e46:	1e6a      	subs	r2, r5, #1
 8001e48:	4195      	sbcs	r5, r2
 8001e4a:	002a      	movs	r2, r5
 8001e4c:	430a      	orrs	r2, r1
 8001e4e:	2107      	movs	r1, #7
 8001e50:	000d      	movs	r5, r1
 8001e52:	2400      	movs	r4, #0
 8001e54:	4015      	ands	r5, r2
 8001e56:	4211      	tst	r1, r2
 8001e58:	d05b      	beq.n	8001f12 <__aeabi_dmul+0x4b6>
 8001e5a:	210f      	movs	r1, #15
 8001e5c:	2400      	movs	r4, #0
 8001e5e:	4011      	ands	r1, r2
 8001e60:	2904      	cmp	r1, #4
 8001e62:	d053      	beq.n	8001f0c <__aeabi_dmul+0x4b0>
 8001e64:	1d11      	adds	r1, r2, #4
 8001e66:	4291      	cmp	r1, r2
 8001e68:	4192      	sbcs	r2, r2
 8001e6a:	4252      	negs	r2, r2
 8001e6c:	18a4      	adds	r4, r4, r2
 8001e6e:	000a      	movs	r2, r1
 8001e70:	0223      	lsls	r3, r4, #8
 8001e72:	d54b      	bpl.n	8001f0c <__aeabi_dmul+0x4b0>
 8001e74:	2201      	movs	r2, #1
 8001e76:	2400      	movs	r4, #0
 8001e78:	2500      	movs	r5, #0
 8001e7a:	e650      	b.n	8001b1e <__aeabi_dmul+0xc2>
 8001e7c:	2380      	movs	r3, #128	; 0x80
 8001e7e:	031b      	lsls	r3, r3, #12
 8001e80:	421c      	tst	r4, r3
 8001e82:	d009      	beq.n	8001e98 <__aeabi_dmul+0x43c>
 8001e84:	421e      	tst	r6, r3
 8001e86:	d107      	bne.n	8001e98 <__aeabi_dmul+0x43c>
 8001e88:	4333      	orrs	r3, r6
 8001e8a:	031c      	lsls	r4, r3, #12
 8001e8c:	4643      	mov	r3, r8
 8001e8e:	0015      	movs	r5, r2
 8001e90:	0b24      	lsrs	r4, r4, #12
 8001e92:	4a25      	ldr	r2, [pc, #148]	; (8001f28 <__aeabi_dmul+0x4cc>)
 8001e94:	9301      	str	r3, [sp, #4]
 8001e96:	e642      	b.n	8001b1e <__aeabi_dmul+0xc2>
 8001e98:	2280      	movs	r2, #128	; 0x80
 8001e9a:	0312      	lsls	r2, r2, #12
 8001e9c:	4314      	orrs	r4, r2
 8001e9e:	0324      	lsls	r4, r4, #12
 8001ea0:	4a21      	ldr	r2, [pc, #132]	; (8001f28 <__aeabi_dmul+0x4cc>)
 8001ea2:	0b24      	lsrs	r4, r4, #12
 8001ea4:	9701      	str	r7, [sp, #4]
 8001ea6:	e63a      	b.n	8001b1e <__aeabi_dmul+0xc2>
 8001ea8:	f000 fd42 	bl	8002930 <__clzsi2>
 8001eac:	0001      	movs	r1, r0
 8001eae:	0002      	movs	r2, r0
 8001eb0:	3115      	adds	r1, #21
 8001eb2:	3220      	adds	r2, #32
 8001eb4:	291c      	cmp	r1, #28
 8001eb6:	dc00      	bgt.n	8001eba <__aeabi_dmul+0x45e>
 8001eb8:	e74b      	b.n	8001d52 <__aeabi_dmul+0x2f6>
 8001eba:	0034      	movs	r4, r6
 8001ebc:	3808      	subs	r0, #8
 8001ebe:	2500      	movs	r5, #0
 8001ec0:	4084      	lsls	r4, r0
 8001ec2:	e750      	b.n	8001d66 <__aeabi_dmul+0x30a>
 8001ec4:	f000 fd34 	bl	8002930 <__clzsi2>
 8001ec8:	0003      	movs	r3, r0
 8001eca:	001a      	movs	r2, r3
 8001ecc:	3215      	adds	r2, #21
 8001ece:	3020      	adds	r0, #32
 8001ed0:	2a1c      	cmp	r2, #28
 8001ed2:	dc00      	bgt.n	8001ed6 <__aeabi_dmul+0x47a>
 8001ed4:	e71e      	b.n	8001d14 <__aeabi_dmul+0x2b8>
 8001ed6:	4656      	mov	r6, sl
 8001ed8:	3b08      	subs	r3, #8
 8001eda:	2200      	movs	r2, #0
 8001edc:	409e      	lsls	r6, r3
 8001ede:	e723      	b.n	8001d28 <__aeabi_dmul+0x2cc>
 8001ee0:	9b00      	ldr	r3, [sp, #0]
 8001ee2:	469c      	mov	ip, r3
 8001ee4:	e6e6      	b.n	8001cb4 <__aeabi_dmul+0x258>
 8001ee6:	4912      	ldr	r1, [pc, #72]	; (8001f30 <__aeabi_dmul+0x4d4>)
 8001ee8:	0022      	movs	r2, r4
 8001eea:	4461      	add	r1, ip
 8001eec:	002e      	movs	r6, r5
 8001eee:	408d      	lsls	r5, r1
 8001ef0:	408a      	lsls	r2, r1
 8001ef2:	40c6      	lsrs	r6, r0
 8001ef4:	1e69      	subs	r1, r5, #1
 8001ef6:	418d      	sbcs	r5, r1
 8001ef8:	4332      	orrs	r2, r6
 8001efa:	432a      	orrs	r2, r5
 8001efc:	40c4      	lsrs	r4, r0
 8001efe:	0753      	lsls	r3, r2, #29
 8001f00:	d0b6      	beq.n	8001e70 <__aeabi_dmul+0x414>
 8001f02:	210f      	movs	r1, #15
 8001f04:	4011      	ands	r1, r2
 8001f06:	2904      	cmp	r1, #4
 8001f08:	d1ac      	bne.n	8001e64 <__aeabi_dmul+0x408>
 8001f0a:	e7b1      	b.n	8001e70 <__aeabi_dmul+0x414>
 8001f0c:	0765      	lsls	r5, r4, #29
 8001f0e:	0264      	lsls	r4, r4, #9
 8001f10:	0b24      	lsrs	r4, r4, #12
 8001f12:	08d2      	lsrs	r2, r2, #3
 8001f14:	4315      	orrs	r5, r2
 8001f16:	2200      	movs	r2, #0
 8001f18:	e601      	b.n	8001b1e <__aeabi_dmul+0xc2>
 8001f1a:	2280      	movs	r2, #128	; 0x80
 8001f1c:	0312      	lsls	r2, r2, #12
 8001f1e:	4314      	orrs	r4, r2
 8001f20:	0324      	lsls	r4, r4, #12
 8001f22:	4a01      	ldr	r2, [pc, #4]	; (8001f28 <__aeabi_dmul+0x4cc>)
 8001f24:	0b24      	lsrs	r4, r4, #12
 8001f26:	e5fa      	b.n	8001b1e <__aeabi_dmul+0xc2>
 8001f28:	000007ff 	.word	0x000007ff
 8001f2c:	0000043e 	.word	0x0000043e
 8001f30:	0000041e 	.word	0x0000041e

08001f34 <__aeabi_dsub>:
 8001f34:	b5f8      	push	{r3, r4, r5, r6, r7, lr}
 8001f36:	4657      	mov	r7, sl
 8001f38:	464e      	mov	r6, r9
 8001f3a:	4645      	mov	r5, r8
 8001f3c:	46de      	mov	lr, fp
 8001f3e:	b5e0      	push	{r5, r6, r7, lr}
 8001f40:	001e      	movs	r6, r3
 8001f42:	0017      	movs	r7, r2
 8001f44:	004a      	lsls	r2, r1, #1
 8001f46:	030b      	lsls	r3, r1, #12
 8001f48:	0d52      	lsrs	r2, r2, #21
 8001f4a:	0a5b      	lsrs	r3, r3, #9
 8001f4c:	4690      	mov	r8, r2
 8001f4e:	0f42      	lsrs	r2, r0, #29
 8001f50:	431a      	orrs	r2, r3
 8001f52:	0fcd      	lsrs	r5, r1, #31
 8001f54:	4ccd      	ldr	r4, [pc, #820]	; (800228c <__aeabi_dsub+0x358>)
 8001f56:	0331      	lsls	r1, r6, #12
 8001f58:	00c3      	lsls	r3, r0, #3
 8001f5a:	4694      	mov	ip, r2
 8001f5c:	0070      	lsls	r0, r6, #1
 8001f5e:	0f7a      	lsrs	r2, r7, #29
 8001f60:	0a49      	lsrs	r1, r1, #9
 8001f62:	00ff      	lsls	r7, r7, #3
 8001f64:	469a      	mov	sl, r3
 8001f66:	46b9      	mov	r9, r7
 8001f68:	0d40      	lsrs	r0, r0, #21
 8001f6a:	0ff6      	lsrs	r6, r6, #31
 8001f6c:	4311      	orrs	r1, r2
 8001f6e:	42a0      	cmp	r0, r4
 8001f70:	d100      	bne.n	8001f74 <__aeabi_dsub+0x40>
 8001f72:	e0b1      	b.n	80020d8 <__aeabi_dsub+0x1a4>
 8001f74:	2201      	movs	r2, #1
 8001f76:	4056      	eors	r6, r2
 8001f78:	46b3      	mov	fp, r6
 8001f7a:	42b5      	cmp	r5, r6
 8001f7c:	d100      	bne.n	8001f80 <__aeabi_dsub+0x4c>
 8001f7e:	e088      	b.n	8002092 <__aeabi_dsub+0x15e>
 8001f80:	4642      	mov	r2, r8
 8001f82:	1a12      	subs	r2, r2, r0
 8001f84:	2a00      	cmp	r2, #0
 8001f86:	dc00      	bgt.n	8001f8a <__aeabi_dsub+0x56>
 8001f88:	e0ae      	b.n	80020e8 <__aeabi_dsub+0x1b4>
 8001f8a:	2800      	cmp	r0, #0
 8001f8c:	d100      	bne.n	8001f90 <__aeabi_dsub+0x5c>
 8001f8e:	e0c1      	b.n	8002114 <__aeabi_dsub+0x1e0>
 8001f90:	48be      	ldr	r0, [pc, #760]	; (800228c <__aeabi_dsub+0x358>)
 8001f92:	4580      	cmp	r8, r0
 8001f94:	d100      	bne.n	8001f98 <__aeabi_dsub+0x64>
 8001f96:	e151      	b.n	800223c <__aeabi_dsub+0x308>
 8001f98:	2080      	movs	r0, #128	; 0x80
 8001f9a:	0400      	lsls	r0, r0, #16
 8001f9c:	4301      	orrs	r1, r0
 8001f9e:	2a38      	cmp	r2, #56	; 0x38
 8001fa0:	dd00      	ble.n	8001fa4 <__aeabi_dsub+0x70>
 8001fa2:	e17b      	b.n	800229c <__aeabi_dsub+0x368>
 8001fa4:	2a1f      	cmp	r2, #31
 8001fa6:	dd00      	ble.n	8001faa <__aeabi_dsub+0x76>
 8001fa8:	e1ee      	b.n	8002388 <__aeabi_dsub+0x454>
 8001faa:	2020      	movs	r0, #32
 8001fac:	003e      	movs	r6, r7
 8001fae:	1a80      	subs	r0, r0, r2
 8001fb0:	000c      	movs	r4, r1
 8001fb2:	40d6      	lsrs	r6, r2
 8001fb4:	40d1      	lsrs	r1, r2
 8001fb6:	4087      	lsls	r7, r0
 8001fb8:	4662      	mov	r2, ip
 8001fba:	4084      	lsls	r4, r0
 8001fbc:	1a52      	subs	r2, r2, r1
 8001fbe:	1e78      	subs	r0, r7, #1
 8001fc0:	4187      	sbcs	r7, r0
 8001fc2:	4694      	mov	ip, r2
 8001fc4:	4334      	orrs	r4, r6
 8001fc6:	4327      	orrs	r7, r4
 8001fc8:	1bdc      	subs	r4, r3, r7
 8001fca:	42a3      	cmp	r3, r4
 8001fcc:	419b      	sbcs	r3, r3
 8001fce:	4662      	mov	r2, ip
 8001fd0:	425b      	negs	r3, r3
 8001fd2:	1ad3      	subs	r3, r2, r3
 8001fd4:	4699      	mov	r9, r3
 8001fd6:	464b      	mov	r3, r9
 8001fd8:	021b      	lsls	r3, r3, #8
 8001fda:	d400      	bmi.n	8001fde <__aeabi_dsub+0xaa>
 8001fdc:	e118      	b.n	8002210 <__aeabi_dsub+0x2dc>
 8001fde:	464b      	mov	r3, r9
 8001fe0:	0258      	lsls	r0, r3, #9
 8001fe2:	0a43      	lsrs	r3, r0, #9
 8001fe4:	4699      	mov	r9, r3
 8001fe6:	464b      	mov	r3, r9
 8001fe8:	2b00      	cmp	r3, #0
 8001fea:	d100      	bne.n	8001fee <__aeabi_dsub+0xba>
 8001fec:	e137      	b.n	800225e <__aeabi_dsub+0x32a>
 8001fee:	4648      	mov	r0, r9
 8001ff0:	f000 fc9e 	bl	8002930 <__clzsi2>
 8001ff4:	0001      	movs	r1, r0
 8001ff6:	3908      	subs	r1, #8
 8001ff8:	2320      	movs	r3, #32
 8001ffa:	0022      	movs	r2, r4
 8001ffc:	4648      	mov	r0, r9
 8001ffe:	1a5b      	subs	r3, r3, r1
 8002000:	40da      	lsrs	r2, r3
 8002002:	4088      	lsls	r0, r1
 8002004:	408c      	lsls	r4, r1
 8002006:	4643      	mov	r3, r8
 8002008:	4310      	orrs	r0, r2
 800200a:	4588      	cmp	r8, r1
 800200c:	dd00      	ble.n	8002010 <__aeabi_dsub+0xdc>
 800200e:	e136      	b.n	800227e <__aeabi_dsub+0x34a>
 8002010:	1ac9      	subs	r1, r1, r3
 8002012:	1c4b      	adds	r3, r1, #1
 8002014:	2b1f      	cmp	r3, #31
 8002016:	dd00      	ble.n	800201a <__aeabi_dsub+0xe6>
 8002018:	e0ea      	b.n	80021f0 <__aeabi_dsub+0x2bc>
 800201a:	2220      	movs	r2, #32
 800201c:	0026      	movs	r6, r4
 800201e:	1ad2      	subs	r2, r2, r3
 8002020:	0001      	movs	r1, r0
 8002022:	4094      	lsls	r4, r2
 8002024:	40de      	lsrs	r6, r3
 8002026:	40d8      	lsrs	r0, r3
 8002028:	2300      	movs	r3, #0
 800202a:	4091      	lsls	r1, r2
 800202c:	1e62      	subs	r2, r4, #1
 800202e:	4194      	sbcs	r4, r2
 8002030:	4681      	mov	r9, r0
 8002032:	4698      	mov	r8, r3
 8002034:	4331      	orrs	r1, r6
 8002036:	430c      	orrs	r4, r1
 8002038:	0763      	lsls	r3, r4, #29
 800203a:	d009      	beq.n	8002050 <__aeabi_dsub+0x11c>
 800203c:	230f      	movs	r3, #15
 800203e:	4023      	ands	r3, r4
 8002040:	2b04      	cmp	r3, #4
 8002042:	d005      	beq.n	8002050 <__aeabi_dsub+0x11c>
 8002044:	1d23      	adds	r3, r4, #4
 8002046:	42a3      	cmp	r3, r4
 8002048:	41a4      	sbcs	r4, r4
 800204a:	4264      	negs	r4, r4
 800204c:	44a1      	add	r9, r4
 800204e:	001c      	movs	r4, r3
 8002050:	464b      	mov	r3, r9
 8002052:	021b      	lsls	r3, r3, #8
 8002054:	d400      	bmi.n	8002058 <__aeabi_dsub+0x124>
 8002056:	e0de      	b.n	8002216 <__aeabi_dsub+0x2e2>
 8002058:	4641      	mov	r1, r8
 800205a:	4b8c      	ldr	r3, [pc, #560]	; (800228c <__aeabi_dsub+0x358>)
 800205c:	3101      	adds	r1, #1
 800205e:	4299      	cmp	r1, r3
 8002060:	d100      	bne.n	8002064 <__aeabi_dsub+0x130>
 8002062:	e0e7      	b.n	8002234 <__aeabi_dsub+0x300>
 8002064:	464b      	mov	r3, r9
 8002066:	488a      	ldr	r0, [pc, #552]	; (8002290 <__aeabi_dsub+0x35c>)
 8002068:	08e4      	lsrs	r4, r4, #3
 800206a:	4003      	ands	r3, r0
 800206c:	0018      	movs	r0, r3
 800206e:	0549      	lsls	r1, r1, #21
 8002070:	075b      	lsls	r3, r3, #29
 8002072:	0240      	lsls	r0, r0, #9
 8002074:	4323      	orrs	r3, r4
 8002076:	0d4a      	lsrs	r2, r1, #21
 8002078:	0b04      	lsrs	r4, r0, #12
 800207a:	0512      	lsls	r2, r2, #20
 800207c:	07ed      	lsls	r5, r5, #31
 800207e:	4322      	orrs	r2, r4
 8002080:	432a      	orrs	r2, r5
 8002082:	0018      	movs	r0, r3
 8002084:	0011      	movs	r1, r2
 8002086:	bcf0      	pop	{r4, r5, r6, r7}
 8002088:	46bb      	mov	fp, r7
 800208a:	46b2      	mov	sl, r6
 800208c:	46a9      	mov	r9, r5
 800208e:	46a0      	mov	r8, r4
 8002090:	bdf8      	pop	{r3, r4, r5, r6, r7, pc}
 8002092:	4642      	mov	r2, r8
 8002094:	1a12      	subs	r2, r2, r0
 8002096:	2a00      	cmp	r2, #0
 8002098:	dd52      	ble.n	8002140 <__aeabi_dsub+0x20c>
 800209a:	2800      	cmp	r0, #0
 800209c:	d100      	bne.n	80020a0 <__aeabi_dsub+0x16c>
 800209e:	e09c      	b.n	80021da <__aeabi_dsub+0x2a6>
 80020a0:	45a0      	cmp	r8, r4
 80020a2:	d100      	bne.n	80020a6 <__aeabi_dsub+0x172>
 80020a4:	e0ca      	b.n	800223c <__aeabi_dsub+0x308>
 80020a6:	2080      	movs	r0, #128	; 0x80
 80020a8:	0400      	lsls	r0, r0, #16
 80020aa:	4301      	orrs	r1, r0
 80020ac:	2a38      	cmp	r2, #56	; 0x38
 80020ae:	dd00      	ble.n	80020b2 <__aeabi_dsub+0x17e>
 80020b0:	e149      	b.n	8002346 <__aeabi_dsub+0x412>
 80020b2:	2a1f      	cmp	r2, #31
 80020b4:	dc00      	bgt.n	80020b8 <__aeabi_dsub+0x184>
 80020b6:	e197      	b.n	80023e8 <__aeabi_dsub+0x4b4>
 80020b8:	0010      	movs	r0, r2
 80020ba:	000e      	movs	r6, r1
 80020bc:	3820      	subs	r0, #32
 80020be:	40c6      	lsrs	r6, r0
 80020c0:	2a20      	cmp	r2, #32
 80020c2:	d004      	beq.n	80020ce <__aeabi_dsub+0x19a>
 80020c4:	2040      	movs	r0, #64	; 0x40
 80020c6:	1a82      	subs	r2, r0, r2
 80020c8:	4091      	lsls	r1, r2
 80020ca:	430f      	orrs	r7, r1
 80020cc:	46b9      	mov	r9, r7
 80020ce:	464c      	mov	r4, r9
 80020d0:	1e62      	subs	r2, r4, #1
 80020d2:	4194      	sbcs	r4, r2
 80020d4:	4334      	orrs	r4, r6
 80020d6:	e13a      	b.n	800234e <__aeabi_dsub+0x41a>
 80020d8:	000a      	movs	r2, r1
 80020da:	433a      	orrs	r2, r7
 80020dc:	d028      	beq.n	8002130 <__aeabi_dsub+0x1fc>
 80020de:	46b3      	mov	fp, r6
 80020e0:	42b5      	cmp	r5, r6
 80020e2:	d02b      	beq.n	800213c <__aeabi_dsub+0x208>
 80020e4:	4a6b      	ldr	r2, [pc, #428]	; (8002294 <__aeabi_dsub+0x360>)
 80020e6:	4442      	add	r2, r8
 80020e8:	2a00      	cmp	r2, #0
 80020ea:	d05d      	beq.n	80021a8 <__aeabi_dsub+0x274>
 80020ec:	4642      	mov	r2, r8
 80020ee:	4644      	mov	r4, r8
 80020f0:	1a82      	subs	r2, r0, r2
 80020f2:	2c00      	cmp	r4, #0
 80020f4:	d000      	beq.n	80020f8 <__aeabi_dsub+0x1c4>
 80020f6:	e0f5      	b.n	80022e4 <__aeabi_dsub+0x3b0>
 80020f8:	4665      	mov	r5, ip
 80020fa:	431d      	orrs	r5, r3
 80020fc:	d100      	bne.n	8002100 <__aeabi_dsub+0x1cc>
 80020fe:	e19c      	b.n	800243a <__aeabi_dsub+0x506>
 8002100:	1e55      	subs	r5, r2, #1
 8002102:	2a01      	cmp	r2, #1
 8002104:	d100      	bne.n	8002108 <__aeabi_dsub+0x1d4>
 8002106:	e1fb      	b.n	8002500 <__aeabi_dsub+0x5cc>
 8002108:	4c60      	ldr	r4, [pc, #384]	; (800228c <__aeabi_dsub+0x358>)
 800210a:	42a2      	cmp	r2, r4
 800210c:	d100      	bne.n	8002110 <__aeabi_dsub+0x1dc>
 800210e:	e1bd      	b.n	800248c <__aeabi_dsub+0x558>
 8002110:	002a      	movs	r2, r5
 8002112:	e0f0      	b.n	80022f6 <__aeabi_dsub+0x3c2>
 8002114:	0008      	movs	r0, r1
 8002116:	4338      	orrs	r0, r7
 8002118:	d100      	bne.n	800211c <__aeabi_dsub+0x1e8>
 800211a:	e0c3      	b.n	80022a4 <__aeabi_dsub+0x370>
 800211c:	1e50      	subs	r0, r2, #1
 800211e:	2a01      	cmp	r2, #1
 8002120:	d100      	bne.n	8002124 <__aeabi_dsub+0x1f0>
 8002122:	e1a8      	b.n	8002476 <__aeabi_dsub+0x542>
 8002124:	4c59      	ldr	r4, [pc, #356]	; (800228c <__aeabi_dsub+0x358>)
 8002126:	42a2      	cmp	r2, r4
 8002128:	d100      	bne.n	800212c <__aeabi_dsub+0x1f8>
 800212a:	e087      	b.n	800223c <__aeabi_dsub+0x308>
 800212c:	0002      	movs	r2, r0
 800212e:	e736      	b.n	8001f9e <__aeabi_dsub+0x6a>
 8002130:	2201      	movs	r2, #1
 8002132:	4056      	eors	r6, r2
 8002134:	46b3      	mov	fp, r6
 8002136:	42b5      	cmp	r5, r6
 8002138:	d000      	beq.n	800213c <__aeabi_dsub+0x208>
 800213a:	e721      	b.n	8001f80 <__aeabi_dsub+0x4c>
 800213c:	4a55      	ldr	r2, [pc, #340]	; (8002294 <__aeabi_dsub+0x360>)
 800213e:	4442      	add	r2, r8
 8002140:	2a00      	cmp	r2, #0
 8002142:	d100      	bne.n	8002146 <__aeabi_dsub+0x212>
 8002144:	e0b5      	b.n	80022b2 <__aeabi_dsub+0x37e>
 8002146:	4642      	mov	r2, r8
 8002148:	4644      	mov	r4, r8
 800214a:	1a82      	subs	r2, r0, r2
 800214c:	2c00      	cmp	r4, #0
 800214e:	d100      	bne.n	8002152 <__aeabi_dsub+0x21e>
 8002150:	e138      	b.n	80023c4 <__aeabi_dsub+0x490>
 8002152:	4e4e      	ldr	r6, [pc, #312]	; (800228c <__aeabi_dsub+0x358>)
 8002154:	42b0      	cmp	r0, r6
 8002156:	d100      	bne.n	800215a <__aeabi_dsub+0x226>
 8002158:	e1de      	b.n	8002518 <__aeabi_dsub+0x5e4>
 800215a:	2680      	movs	r6, #128	; 0x80
 800215c:	4664      	mov	r4, ip
 800215e:	0436      	lsls	r6, r6, #16
 8002160:	4334      	orrs	r4, r6
 8002162:	46a4      	mov	ip, r4
 8002164:	2a38      	cmp	r2, #56	; 0x38
 8002166:	dd00      	ble.n	800216a <__aeabi_dsub+0x236>
 8002168:	e196      	b.n	8002498 <__aeabi_dsub+0x564>
 800216a:	2a1f      	cmp	r2, #31
 800216c:	dd00      	ble.n	8002170 <__aeabi_dsub+0x23c>
 800216e:	e224      	b.n	80025ba <__aeabi_dsub+0x686>
 8002170:	2620      	movs	r6, #32
 8002172:	1ab4      	subs	r4, r6, r2
 8002174:	46a2      	mov	sl, r4
 8002176:	4664      	mov	r4, ip
 8002178:	4656      	mov	r6, sl
 800217a:	40b4      	lsls	r4, r6
 800217c:	46a1      	mov	r9, r4
 800217e:	001c      	movs	r4, r3
 8002180:	464e      	mov	r6, r9
 8002182:	40d4      	lsrs	r4, r2
 8002184:	4326      	orrs	r6, r4
 8002186:	0034      	movs	r4, r6
 8002188:	4656      	mov	r6, sl
 800218a:	40b3      	lsls	r3, r6
 800218c:	1e5e      	subs	r6, r3, #1
 800218e:	41b3      	sbcs	r3, r6
 8002190:	431c      	orrs	r4, r3
 8002192:	4663      	mov	r3, ip
 8002194:	40d3      	lsrs	r3, r2
 8002196:	18c9      	adds	r1, r1, r3
 8002198:	19e4      	adds	r4, r4, r7
 800219a:	42bc      	cmp	r4, r7
 800219c:	41bf      	sbcs	r7, r7
 800219e:	427f      	negs	r7, r7
 80021a0:	46b9      	mov	r9, r7
 80021a2:	4680      	mov	r8, r0
 80021a4:	4489      	add	r9, r1
 80021a6:	e0d8      	b.n	800235a <__aeabi_dsub+0x426>
 80021a8:	4640      	mov	r0, r8
 80021aa:	4c3b      	ldr	r4, [pc, #236]	; (8002298 <__aeabi_dsub+0x364>)
 80021ac:	3001      	adds	r0, #1
 80021ae:	4220      	tst	r0, r4
 80021b0:	d000      	beq.n	80021b4 <__aeabi_dsub+0x280>
 80021b2:	e0b4      	b.n	800231e <__aeabi_dsub+0x3ea>
 80021b4:	4640      	mov	r0, r8
 80021b6:	2800      	cmp	r0, #0
 80021b8:	d000      	beq.n	80021bc <__aeabi_dsub+0x288>
 80021ba:	e144      	b.n	8002446 <__aeabi_dsub+0x512>
 80021bc:	4660      	mov	r0, ip
 80021be:	4318      	orrs	r0, r3
 80021c0:	d100      	bne.n	80021c4 <__aeabi_dsub+0x290>
 80021c2:	e190      	b.n	80024e6 <__aeabi_dsub+0x5b2>
 80021c4:	0008      	movs	r0, r1
 80021c6:	4338      	orrs	r0, r7
 80021c8:	d000      	beq.n	80021cc <__aeabi_dsub+0x298>
 80021ca:	e1aa      	b.n	8002522 <__aeabi_dsub+0x5ee>
 80021cc:	4661      	mov	r1, ip
 80021ce:	08db      	lsrs	r3, r3, #3
 80021d0:	0749      	lsls	r1, r1, #29
 80021d2:	430b      	orrs	r3, r1
 80021d4:	4661      	mov	r1, ip
 80021d6:	08cc      	lsrs	r4, r1, #3
 80021d8:	e027      	b.n	800222a <__aeabi_dsub+0x2f6>
 80021da:	0008      	movs	r0, r1
 80021dc:	4338      	orrs	r0, r7
 80021de:	d061      	beq.n	80022a4 <__aeabi_dsub+0x370>
 80021e0:	1e50      	subs	r0, r2, #1
 80021e2:	2a01      	cmp	r2, #1
 80021e4:	d100      	bne.n	80021e8 <__aeabi_dsub+0x2b4>
 80021e6:	e139      	b.n	800245c <__aeabi_dsub+0x528>
 80021e8:	42a2      	cmp	r2, r4
 80021ea:	d027      	beq.n	800223c <__aeabi_dsub+0x308>
 80021ec:	0002      	movs	r2, r0
 80021ee:	e75d      	b.n	80020ac <__aeabi_dsub+0x178>
 80021f0:	0002      	movs	r2, r0
 80021f2:	391f      	subs	r1, #31
 80021f4:	40ca      	lsrs	r2, r1
 80021f6:	0011      	movs	r1, r2
 80021f8:	2b20      	cmp	r3, #32
 80021fa:	d003      	beq.n	8002204 <__aeabi_dsub+0x2d0>
 80021fc:	2240      	movs	r2, #64	; 0x40
 80021fe:	1ad3      	subs	r3, r2, r3
 8002200:	4098      	lsls	r0, r3
 8002202:	4304      	orrs	r4, r0
 8002204:	1e63      	subs	r3, r4, #1
 8002206:	419c      	sbcs	r4, r3
 8002208:	2300      	movs	r3, #0
 800220a:	4699      	mov	r9, r3
 800220c:	4698      	mov	r8, r3
 800220e:	430c      	orrs	r4, r1
 8002210:	0763      	lsls	r3, r4, #29
 8002212:	d000      	beq.n	8002216 <__aeabi_dsub+0x2e2>
 8002214:	e712      	b.n	800203c <__aeabi_dsub+0x108>
 8002216:	464b      	mov	r3, r9
 8002218:	464a      	mov	r2, r9
 800221a:	08e4      	lsrs	r4, r4, #3
 800221c:	075b      	lsls	r3, r3, #29
 800221e:	4323      	orrs	r3, r4
 8002220:	08d4      	lsrs	r4, r2, #3
 8002222:	4642      	mov	r2, r8
 8002224:	4919      	ldr	r1, [pc, #100]	; (800228c <__aeabi_dsub+0x358>)
 8002226:	428a      	cmp	r2, r1
 8002228:	d00e      	beq.n	8002248 <__aeabi_dsub+0x314>
 800222a:	0324      	lsls	r4, r4, #12
 800222c:	0552      	lsls	r2, r2, #21
 800222e:	0b24      	lsrs	r4, r4, #12
 8002230:	0d52      	lsrs	r2, r2, #21
 8002232:	e722      	b.n	800207a <__aeabi_dsub+0x146>
 8002234:	000a      	movs	r2, r1
 8002236:	2400      	movs	r4, #0
 8002238:	2300      	movs	r3, #0
 800223a:	e71e      	b.n	800207a <__aeabi_dsub+0x146>
 800223c:	08db      	lsrs	r3, r3, #3
 800223e:	4662      	mov	r2, ip
 8002240:	0752      	lsls	r2, r2, #29
 8002242:	4313      	orrs	r3, r2
 8002244:	4662      	mov	r2, ip
 8002246:	08d4      	lsrs	r4, r2, #3
 8002248:	001a      	movs	r2, r3
 800224a:	4322      	orrs	r2, r4
 800224c:	d100      	bne.n	8002250 <__aeabi_dsub+0x31c>
 800224e:	e1fc      	b.n	800264a <__aeabi_dsub+0x716>
 8002250:	2280      	movs	r2, #128	; 0x80
 8002252:	0312      	lsls	r2, r2, #12
 8002254:	4314      	orrs	r4, r2
 8002256:	0324      	lsls	r4, r4, #12
 8002258:	4a0c      	ldr	r2, [pc, #48]	; (800228c <__aeabi_dsub+0x358>)
 800225a:	0b24      	lsrs	r4, r4, #12
 800225c:	e70d      	b.n	800207a <__aeabi_dsub+0x146>
 800225e:	0020      	movs	r0, r4
 8002260:	f000 fb66 	bl	8002930 <__clzsi2>
 8002264:	0001      	movs	r1, r0
 8002266:	3118      	adds	r1, #24
 8002268:	291f      	cmp	r1, #31
 800226a:	dc00      	bgt.n	800226e <__aeabi_dsub+0x33a>
 800226c:	e6c4      	b.n	8001ff8 <__aeabi_dsub+0xc4>
 800226e:	3808      	subs	r0, #8
 8002270:	4084      	lsls	r4, r0
 8002272:	4643      	mov	r3, r8
 8002274:	0020      	movs	r0, r4
 8002276:	2400      	movs	r4, #0
 8002278:	4588      	cmp	r8, r1
 800227a:	dc00      	bgt.n	800227e <__aeabi_dsub+0x34a>
 800227c:	e6c8      	b.n	8002010 <__aeabi_dsub+0xdc>
 800227e:	4a04      	ldr	r2, [pc, #16]	; (8002290 <__aeabi_dsub+0x35c>)
 8002280:	1a5b      	subs	r3, r3, r1
 8002282:	4010      	ands	r0, r2
 8002284:	4698      	mov	r8, r3
 8002286:	4681      	mov	r9, r0
 8002288:	e6d6      	b.n	8002038 <__aeabi_dsub+0x104>
 800228a:	46c0      	nop			; (mov r8, r8)
 800228c:	000007ff 	.word	0x000007ff
 8002290:	ff7fffff 	.word	0xff7fffff
 8002294:	fffff801 	.word	0xfffff801
 8002298:	000007fe 	.word	0x000007fe
 800229c:	430f      	orrs	r7, r1
 800229e:	1e7a      	subs	r2, r7, #1
 80022a0:	4197      	sbcs	r7, r2
 80022a2:	e691      	b.n	8001fc8 <__aeabi_dsub+0x94>
 80022a4:	4661      	mov	r1, ip
 80022a6:	08db      	lsrs	r3, r3, #3
 80022a8:	0749      	lsls	r1, r1, #29
 80022aa:	430b      	orrs	r3, r1
 80022ac:	4661      	mov	r1, ip
 80022ae:	08cc      	lsrs	r4, r1, #3
 80022b0:	e7b8      	b.n	8002224 <__aeabi_dsub+0x2f0>
 80022b2:	4640      	mov	r0, r8
 80022b4:	4cd3      	ldr	r4, [pc, #844]	; (8002604 <__aeabi_dsub+0x6d0>)
 80022b6:	3001      	adds	r0, #1
 80022b8:	4220      	tst	r0, r4
 80022ba:	d000      	beq.n	80022be <__aeabi_dsub+0x38a>
 80022bc:	e0a2      	b.n	8002404 <__aeabi_dsub+0x4d0>
 80022be:	4640      	mov	r0, r8
 80022c0:	2800      	cmp	r0, #0
 80022c2:	d000      	beq.n	80022c6 <__aeabi_dsub+0x392>
 80022c4:	e101      	b.n	80024ca <__aeabi_dsub+0x596>
 80022c6:	4660      	mov	r0, ip
 80022c8:	4318      	orrs	r0, r3
 80022ca:	d100      	bne.n	80022ce <__aeabi_dsub+0x39a>
 80022cc:	e15e      	b.n	800258c <__aeabi_dsub+0x658>
 80022ce:	0008      	movs	r0, r1
 80022d0:	4338      	orrs	r0, r7
 80022d2:	d000      	beq.n	80022d6 <__aeabi_dsub+0x3a2>
 80022d4:	e15f      	b.n	8002596 <__aeabi_dsub+0x662>
 80022d6:	4661      	mov	r1, ip
 80022d8:	08db      	lsrs	r3, r3, #3
 80022da:	0749      	lsls	r1, r1, #29
 80022dc:	430b      	orrs	r3, r1
 80022de:	4661      	mov	r1, ip
 80022e0:	08cc      	lsrs	r4, r1, #3
 80022e2:	e7a2      	b.n	800222a <__aeabi_dsub+0x2f6>
 80022e4:	4dc8      	ldr	r5, [pc, #800]	; (8002608 <__aeabi_dsub+0x6d4>)
 80022e6:	42a8      	cmp	r0, r5
 80022e8:	d100      	bne.n	80022ec <__aeabi_dsub+0x3b8>
 80022ea:	e0cf      	b.n	800248c <__aeabi_dsub+0x558>
 80022ec:	2580      	movs	r5, #128	; 0x80
 80022ee:	4664      	mov	r4, ip
 80022f0:	042d      	lsls	r5, r5, #16
 80022f2:	432c      	orrs	r4, r5
 80022f4:	46a4      	mov	ip, r4
 80022f6:	2a38      	cmp	r2, #56	; 0x38
 80022f8:	dc56      	bgt.n	80023a8 <__aeabi_dsub+0x474>
 80022fa:	2a1f      	cmp	r2, #31
 80022fc:	dd00      	ble.n	8002300 <__aeabi_dsub+0x3cc>
 80022fe:	e0d1      	b.n	80024a4 <__aeabi_dsub+0x570>
 8002300:	2520      	movs	r5, #32
 8002302:	001e      	movs	r6, r3
 8002304:	1aad      	subs	r5, r5, r2
 8002306:	4664      	mov	r4, ip
 8002308:	40ab      	lsls	r3, r5
 800230a:	40ac      	lsls	r4, r5
 800230c:	40d6      	lsrs	r6, r2
 800230e:	1e5d      	subs	r5, r3, #1
 8002310:	41ab      	sbcs	r3, r5
 8002312:	4334      	orrs	r4, r6
 8002314:	4323      	orrs	r3, r4
 8002316:	4664      	mov	r4, ip
 8002318:	40d4      	lsrs	r4, r2
 800231a:	1b09      	subs	r1, r1, r4
 800231c:	e049      	b.n	80023b2 <__aeabi_dsub+0x47e>
 800231e:	4660      	mov	r0, ip
 8002320:	1bdc      	subs	r4, r3, r7
 8002322:	1a46      	subs	r6, r0, r1
 8002324:	42a3      	cmp	r3, r4
 8002326:	4180      	sbcs	r0, r0
 8002328:	4240      	negs	r0, r0
 800232a:	4681      	mov	r9, r0
 800232c:	0030      	movs	r0, r6
 800232e:	464e      	mov	r6, r9
 8002330:	1b80      	subs	r0, r0, r6
 8002332:	4681      	mov	r9, r0
 8002334:	0200      	lsls	r0, r0, #8
 8002336:	d476      	bmi.n	8002426 <__aeabi_dsub+0x4f2>
 8002338:	464b      	mov	r3, r9
 800233a:	4323      	orrs	r3, r4
 800233c:	d000      	beq.n	8002340 <__aeabi_dsub+0x40c>
 800233e:	e652      	b.n	8001fe6 <__aeabi_dsub+0xb2>
 8002340:	2400      	movs	r4, #0
 8002342:	2500      	movs	r5, #0
 8002344:	e771      	b.n	800222a <__aeabi_dsub+0x2f6>
 8002346:	4339      	orrs	r1, r7
 8002348:	000c      	movs	r4, r1
 800234a:	1e62      	subs	r2, r4, #1
 800234c:	4194      	sbcs	r4, r2
 800234e:	18e4      	adds	r4, r4, r3
 8002350:	429c      	cmp	r4, r3
 8002352:	419b      	sbcs	r3, r3
 8002354:	425b      	negs	r3, r3
 8002356:	4463      	add	r3, ip
 8002358:	4699      	mov	r9, r3
 800235a:	464b      	mov	r3, r9
 800235c:	021b      	lsls	r3, r3, #8
 800235e:	d400      	bmi.n	8002362 <__aeabi_dsub+0x42e>
 8002360:	e756      	b.n	8002210 <__aeabi_dsub+0x2dc>
 8002362:	2301      	movs	r3, #1
 8002364:	469c      	mov	ip, r3
 8002366:	4ba8      	ldr	r3, [pc, #672]	; (8002608 <__aeabi_dsub+0x6d4>)
 8002368:	44e0      	add	r8, ip
 800236a:	4598      	cmp	r8, r3
 800236c:	d038      	beq.n	80023e0 <__aeabi_dsub+0x4ac>
 800236e:	464b      	mov	r3, r9
 8002370:	48a6      	ldr	r0, [pc, #664]	; (800260c <__aeabi_dsub+0x6d8>)
 8002372:	2201      	movs	r2, #1
 8002374:	4003      	ands	r3, r0
 8002376:	0018      	movs	r0, r3
 8002378:	0863      	lsrs	r3, r4, #1
 800237a:	4014      	ands	r4, r2
 800237c:	431c      	orrs	r4, r3
 800237e:	07c3      	lsls	r3, r0, #31
 8002380:	431c      	orrs	r4, r3
 8002382:	0843      	lsrs	r3, r0, #1
 8002384:	4699      	mov	r9, r3
 8002386:	e657      	b.n	8002038 <__aeabi_dsub+0x104>
 8002388:	0010      	movs	r0, r2
 800238a:	000e      	movs	r6, r1
 800238c:	3820      	subs	r0, #32
 800238e:	40c6      	lsrs	r6, r0
 8002390:	2a20      	cmp	r2, #32
 8002392:	d004      	beq.n	800239e <__aeabi_dsub+0x46a>
 8002394:	2040      	movs	r0, #64	; 0x40
 8002396:	1a82      	subs	r2, r0, r2
 8002398:	4091      	lsls	r1, r2
 800239a:	430f      	orrs	r7, r1
 800239c:	46b9      	mov	r9, r7
 800239e:	464f      	mov	r7, r9
 80023a0:	1e7a      	subs	r2, r7, #1
 80023a2:	4197      	sbcs	r7, r2
 80023a4:	4337      	orrs	r7, r6
 80023a6:	e60f      	b.n	8001fc8 <__aeabi_dsub+0x94>
 80023a8:	4662      	mov	r2, ip
 80023aa:	431a      	orrs	r2, r3
 80023ac:	0013      	movs	r3, r2
 80023ae:	1e5a      	subs	r2, r3, #1
 80023b0:	4193      	sbcs	r3, r2
 80023b2:	1afc      	subs	r4, r7, r3
 80023b4:	42a7      	cmp	r7, r4
 80023b6:	41bf      	sbcs	r7, r7
 80023b8:	427f      	negs	r7, r7
 80023ba:	1bcb      	subs	r3, r1, r7
 80023bc:	4699      	mov	r9, r3
 80023be:	465d      	mov	r5, fp
 80023c0:	4680      	mov	r8, r0
 80023c2:	e608      	b.n	8001fd6 <__aeabi_dsub+0xa2>
 80023c4:	4666      	mov	r6, ip
 80023c6:	431e      	orrs	r6, r3
 80023c8:	d100      	bne.n	80023cc <__aeabi_dsub+0x498>
 80023ca:	e0be      	b.n	800254a <__aeabi_dsub+0x616>
 80023cc:	1e56      	subs	r6, r2, #1
 80023ce:	2a01      	cmp	r2, #1
 80023d0:	d100      	bne.n	80023d4 <__aeabi_dsub+0x4a0>
 80023d2:	e109      	b.n	80025e8 <__aeabi_dsub+0x6b4>
 80023d4:	4c8c      	ldr	r4, [pc, #560]	; (8002608 <__aeabi_dsub+0x6d4>)
 80023d6:	42a2      	cmp	r2, r4
 80023d8:	d100      	bne.n	80023dc <__aeabi_dsub+0x4a8>
 80023da:	e119      	b.n	8002610 <__aeabi_dsub+0x6dc>
 80023dc:	0032      	movs	r2, r6
 80023de:	e6c1      	b.n	8002164 <__aeabi_dsub+0x230>
 80023e0:	4642      	mov	r2, r8
 80023e2:	2400      	movs	r4, #0
 80023e4:	2300      	movs	r3, #0
 80023e6:	e648      	b.n	800207a <__aeabi_dsub+0x146>
 80023e8:	2020      	movs	r0, #32
 80023ea:	000c      	movs	r4, r1
 80023ec:	1a80      	subs	r0, r0, r2
 80023ee:	003e      	movs	r6, r7
 80023f0:	4087      	lsls	r7, r0
 80023f2:	4084      	lsls	r4, r0
 80023f4:	40d6      	lsrs	r6, r2
 80023f6:	1e78      	subs	r0, r7, #1
 80023f8:	4187      	sbcs	r7, r0
 80023fa:	40d1      	lsrs	r1, r2
 80023fc:	4334      	orrs	r4, r6
 80023fe:	433c      	orrs	r4, r7
 8002400:	448c      	add	ip, r1
 8002402:	e7a4      	b.n	800234e <__aeabi_dsub+0x41a>
 8002404:	4a80      	ldr	r2, [pc, #512]	; (8002608 <__aeabi_dsub+0x6d4>)
 8002406:	4290      	cmp	r0, r2
 8002408:	d100      	bne.n	800240c <__aeabi_dsub+0x4d8>
 800240a:	e0e9      	b.n	80025e0 <__aeabi_dsub+0x6ac>
 800240c:	19df      	adds	r7, r3, r7
 800240e:	429f      	cmp	r7, r3
 8002410:	419b      	sbcs	r3, r3
 8002412:	4461      	add	r1, ip
 8002414:	425b      	negs	r3, r3
 8002416:	18c9      	adds	r1, r1, r3
 8002418:	07cc      	lsls	r4, r1, #31
 800241a:	087f      	lsrs	r7, r7, #1
 800241c:	084b      	lsrs	r3, r1, #1
 800241e:	4699      	mov	r9, r3
 8002420:	4680      	mov	r8, r0
 8002422:	433c      	orrs	r4, r7
 8002424:	e6f4      	b.n	8002210 <__aeabi_dsub+0x2dc>
 8002426:	1afc      	subs	r4, r7, r3
 8002428:	42a7      	cmp	r7, r4
 800242a:	41bf      	sbcs	r7, r7
 800242c:	4663      	mov	r3, ip
 800242e:	427f      	negs	r7, r7
 8002430:	1ac9      	subs	r1, r1, r3
 8002432:	1bcb      	subs	r3, r1, r7
 8002434:	4699      	mov	r9, r3
 8002436:	465d      	mov	r5, fp
 8002438:	e5d5      	b.n	8001fe6 <__aeabi_dsub+0xb2>
 800243a:	08ff      	lsrs	r7, r7, #3
 800243c:	074b      	lsls	r3, r1, #29
 800243e:	465d      	mov	r5, fp
 8002440:	433b      	orrs	r3, r7
 8002442:	08cc      	lsrs	r4, r1, #3
 8002444:	e6ee      	b.n	8002224 <__aeabi_dsub+0x2f0>
 8002446:	4662      	mov	r2, ip
 8002448:	431a      	orrs	r2, r3
 800244a:	d000      	beq.n	800244e <__aeabi_dsub+0x51a>
 800244c:	e082      	b.n	8002554 <__aeabi_dsub+0x620>
 800244e:	000b      	movs	r3, r1
 8002450:	433b      	orrs	r3, r7
 8002452:	d11b      	bne.n	800248c <__aeabi_dsub+0x558>
 8002454:	2480      	movs	r4, #128	; 0x80
 8002456:	2500      	movs	r5, #0
 8002458:	0324      	lsls	r4, r4, #12
 800245a:	e6f9      	b.n	8002250 <__aeabi_dsub+0x31c>
 800245c:	19dc      	adds	r4, r3, r7
 800245e:	429c      	cmp	r4, r3
 8002460:	419b      	sbcs	r3, r3
 8002462:	4461      	add	r1, ip
 8002464:	4689      	mov	r9, r1
 8002466:	425b      	negs	r3, r3
 8002468:	4499      	add	r9, r3
 800246a:	464b      	mov	r3, r9
 800246c:	021b      	lsls	r3, r3, #8
 800246e:	d444      	bmi.n	80024fa <__aeabi_dsub+0x5c6>
 8002470:	2301      	movs	r3, #1
 8002472:	4698      	mov	r8, r3
 8002474:	e6cc      	b.n	8002210 <__aeabi_dsub+0x2dc>
 8002476:	1bdc      	subs	r4, r3, r7
 8002478:	4662      	mov	r2, ip
 800247a:	42a3      	cmp	r3, r4
 800247c:	419b      	sbcs	r3, r3
 800247e:	1a51      	subs	r1, r2, r1
 8002480:	425b      	negs	r3, r3
 8002482:	1acb      	subs	r3, r1, r3
 8002484:	4699      	mov	r9, r3
 8002486:	2301      	movs	r3, #1
 8002488:	4698      	mov	r8, r3
 800248a:	e5a4      	b.n	8001fd6 <__aeabi_dsub+0xa2>
 800248c:	08ff      	lsrs	r7, r7, #3
 800248e:	074b      	lsls	r3, r1, #29
 8002490:	465d      	mov	r5, fp
 8002492:	433b      	orrs	r3, r7
 8002494:	08cc      	lsrs	r4, r1, #3
 8002496:	e6d7      	b.n	8002248 <__aeabi_dsub+0x314>
 8002498:	4662      	mov	r2, ip
 800249a:	431a      	orrs	r2, r3
 800249c:	0014      	movs	r4, r2
 800249e:	1e63      	subs	r3, r4, #1
 80024a0:	419c      	sbcs	r4, r3
 80024a2:	e679      	b.n	8002198 <__aeabi_dsub+0x264>
 80024a4:	0015      	movs	r5, r2
 80024a6:	4664      	mov	r4, ip
 80024a8:	3d20      	subs	r5, #32
 80024aa:	40ec      	lsrs	r4, r5
 80024ac:	46a0      	mov	r8, r4
 80024ae:	2a20      	cmp	r2, #32
 80024b0:	d005      	beq.n	80024be <__aeabi_dsub+0x58a>
 80024b2:	2540      	movs	r5, #64	; 0x40
 80024b4:	4664      	mov	r4, ip
 80024b6:	1aaa      	subs	r2, r5, r2
 80024b8:	4094      	lsls	r4, r2
 80024ba:	4323      	orrs	r3, r4
 80024bc:	469a      	mov	sl, r3
 80024be:	4654      	mov	r4, sl
 80024c0:	1e63      	subs	r3, r4, #1
 80024c2:	419c      	sbcs	r4, r3
 80024c4:	4643      	mov	r3, r8
 80024c6:	4323      	orrs	r3, r4
 80024c8:	e773      	b.n	80023b2 <__aeabi_dsub+0x47e>
 80024ca:	4662      	mov	r2, ip
 80024cc:	431a      	orrs	r2, r3
 80024ce:	d023      	beq.n	8002518 <__aeabi_dsub+0x5e4>
 80024d0:	000a      	movs	r2, r1
 80024d2:	433a      	orrs	r2, r7
 80024d4:	d000      	beq.n	80024d8 <__aeabi_dsub+0x5a4>
 80024d6:	e0a0      	b.n	800261a <__aeabi_dsub+0x6e6>
 80024d8:	4662      	mov	r2, ip
 80024da:	08db      	lsrs	r3, r3, #3
 80024dc:	0752      	lsls	r2, r2, #29
 80024de:	4313      	orrs	r3, r2
 80024e0:	4662      	mov	r2, ip
 80024e2:	08d4      	lsrs	r4, r2, #3
 80024e4:	e6b0      	b.n	8002248 <__aeabi_dsub+0x314>
 80024e6:	000b      	movs	r3, r1
 80024e8:	433b      	orrs	r3, r7
 80024ea:	d100      	bne.n	80024ee <__aeabi_dsub+0x5ba>
 80024ec:	e728      	b.n	8002340 <__aeabi_dsub+0x40c>
 80024ee:	08ff      	lsrs	r7, r7, #3
 80024f0:	074b      	lsls	r3, r1, #29
 80024f2:	465d      	mov	r5, fp
 80024f4:	433b      	orrs	r3, r7
 80024f6:	08cc      	lsrs	r4, r1, #3
 80024f8:	e697      	b.n	800222a <__aeabi_dsub+0x2f6>
 80024fa:	2302      	movs	r3, #2
 80024fc:	4698      	mov	r8, r3
 80024fe:	e736      	b.n	800236e <__aeabi_dsub+0x43a>
 8002500:	1afc      	subs	r4, r7, r3
 8002502:	42a7      	cmp	r7, r4
 8002504:	41bf      	sbcs	r7, r7
 8002506:	4663      	mov	r3, ip
 8002508:	427f      	negs	r7, r7
 800250a:	1ac9      	subs	r1, r1, r3
 800250c:	1bcb      	subs	r3, r1, r7
 800250e:	4699      	mov	r9, r3
 8002510:	2301      	movs	r3, #1
 8002512:	465d      	mov	r5, fp
 8002514:	4698      	mov	r8, r3
 8002516:	e55e      	b.n	8001fd6 <__aeabi_dsub+0xa2>
 8002518:	074b      	lsls	r3, r1, #29
 800251a:	08ff      	lsrs	r7, r7, #3
 800251c:	433b      	orrs	r3, r7
 800251e:	08cc      	lsrs	r4, r1, #3
 8002520:	e692      	b.n	8002248 <__aeabi_dsub+0x314>
 8002522:	1bdc      	subs	r4, r3, r7
 8002524:	4660      	mov	r0, ip
 8002526:	42a3      	cmp	r3, r4
 8002528:	41b6      	sbcs	r6, r6
 800252a:	1a40      	subs	r0, r0, r1
 800252c:	4276      	negs	r6, r6
 800252e:	1b80      	subs	r0, r0, r6
 8002530:	4681      	mov	r9, r0
 8002532:	0200      	lsls	r0, r0, #8
 8002534:	d560      	bpl.n	80025f8 <__aeabi_dsub+0x6c4>
 8002536:	1afc      	subs	r4, r7, r3
 8002538:	42a7      	cmp	r7, r4
 800253a:	41bf      	sbcs	r7, r7
 800253c:	4663      	mov	r3, ip
 800253e:	427f      	negs	r7, r7
 8002540:	1ac9      	subs	r1, r1, r3
 8002542:	1bcb      	subs	r3, r1, r7
 8002544:	4699      	mov	r9, r3
 8002546:	465d      	mov	r5, fp
 8002548:	e576      	b.n	8002038 <__aeabi_dsub+0x104>
 800254a:	08ff      	lsrs	r7, r7, #3
 800254c:	074b      	lsls	r3, r1, #29
 800254e:	433b      	orrs	r3, r7
 8002550:	08cc      	lsrs	r4, r1, #3
 8002552:	e667      	b.n	8002224 <__aeabi_dsub+0x2f0>
 8002554:	000a      	movs	r2, r1
 8002556:	08db      	lsrs	r3, r3, #3
 8002558:	433a      	orrs	r2, r7
 800255a:	d100      	bne.n	800255e <__aeabi_dsub+0x62a>
 800255c:	e66f      	b.n	800223e <__aeabi_dsub+0x30a>
 800255e:	4662      	mov	r2, ip
 8002560:	0752      	lsls	r2, r2, #29
 8002562:	4313      	orrs	r3, r2
 8002564:	4662      	mov	r2, ip
 8002566:	08d4      	lsrs	r4, r2, #3
 8002568:	2280      	movs	r2, #128	; 0x80
 800256a:	0312      	lsls	r2, r2, #12
 800256c:	4214      	tst	r4, r2
 800256e:	d007      	beq.n	8002580 <__aeabi_dsub+0x64c>
 8002570:	08c8      	lsrs	r0, r1, #3
 8002572:	4210      	tst	r0, r2
 8002574:	d104      	bne.n	8002580 <__aeabi_dsub+0x64c>
 8002576:	465d      	mov	r5, fp
 8002578:	0004      	movs	r4, r0
 800257a:	08fb      	lsrs	r3, r7, #3
 800257c:	0749      	lsls	r1, r1, #29
 800257e:	430b      	orrs	r3, r1
 8002580:	0f5a      	lsrs	r2, r3, #29
 8002582:	00db      	lsls	r3, r3, #3
 8002584:	08db      	lsrs	r3, r3, #3
 8002586:	0752      	lsls	r2, r2, #29
 8002588:	4313      	orrs	r3, r2
 800258a:	e65d      	b.n	8002248 <__aeabi_dsub+0x314>
 800258c:	074b      	lsls	r3, r1, #29
 800258e:	08ff      	lsrs	r7, r7, #3
 8002590:	433b      	orrs	r3, r7
 8002592:	08cc      	lsrs	r4, r1, #3
 8002594:	e649      	b.n	800222a <__aeabi_dsub+0x2f6>
 8002596:	19dc      	adds	r4, r3, r7
 8002598:	429c      	cmp	r4, r3
 800259a:	419b      	sbcs	r3, r3
 800259c:	4461      	add	r1, ip
 800259e:	4689      	mov	r9, r1
 80025a0:	425b      	negs	r3, r3
 80025a2:	4499      	add	r9, r3
 80025a4:	464b      	mov	r3, r9
 80025a6:	021b      	lsls	r3, r3, #8
 80025a8:	d400      	bmi.n	80025ac <__aeabi_dsub+0x678>
 80025aa:	e631      	b.n	8002210 <__aeabi_dsub+0x2dc>
 80025ac:	464a      	mov	r2, r9
 80025ae:	4b17      	ldr	r3, [pc, #92]	; (800260c <__aeabi_dsub+0x6d8>)
 80025b0:	401a      	ands	r2, r3
 80025b2:	2301      	movs	r3, #1
 80025b4:	4691      	mov	r9, r2
 80025b6:	4698      	mov	r8, r3
 80025b8:	e62a      	b.n	8002210 <__aeabi_dsub+0x2dc>
 80025ba:	0016      	movs	r6, r2
 80025bc:	4664      	mov	r4, ip
 80025be:	3e20      	subs	r6, #32
 80025c0:	40f4      	lsrs	r4, r6
 80025c2:	46a0      	mov	r8, r4
 80025c4:	2a20      	cmp	r2, #32
 80025c6:	d005      	beq.n	80025d4 <__aeabi_dsub+0x6a0>
 80025c8:	2640      	movs	r6, #64	; 0x40
 80025ca:	4664      	mov	r4, ip
 80025cc:	1ab2      	subs	r2, r6, r2
 80025ce:	4094      	lsls	r4, r2
 80025d0:	4323      	orrs	r3, r4
 80025d2:	469a      	mov	sl, r3
 80025d4:	4654      	mov	r4, sl
 80025d6:	1e63      	subs	r3, r4, #1
 80025d8:	419c      	sbcs	r4, r3
 80025da:	4643      	mov	r3, r8
 80025dc:	431c      	orrs	r4, r3
 80025de:	e5db      	b.n	8002198 <__aeabi_dsub+0x264>
 80025e0:	0002      	movs	r2, r0
 80025e2:	2400      	movs	r4, #0
 80025e4:	2300      	movs	r3, #0
 80025e6:	e548      	b.n	800207a <__aeabi_dsub+0x146>
 80025e8:	19dc      	adds	r4, r3, r7
 80025ea:	42bc      	cmp	r4, r7
 80025ec:	41bf      	sbcs	r7, r7
 80025ee:	4461      	add	r1, ip
 80025f0:	4689      	mov	r9, r1
 80025f2:	427f      	negs	r7, r7
 80025f4:	44b9      	add	r9, r7
 80025f6:	e738      	b.n	800246a <__aeabi_dsub+0x536>
 80025f8:	464b      	mov	r3, r9
 80025fa:	4323      	orrs	r3, r4
 80025fc:	d100      	bne.n	8002600 <__aeabi_dsub+0x6cc>
 80025fe:	e69f      	b.n	8002340 <__aeabi_dsub+0x40c>
 8002600:	e606      	b.n	8002210 <__aeabi_dsub+0x2dc>
 8002602:	46c0      	nop			; (mov r8, r8)
 8002604:	000007fe 	.word	0x000007fe
 8002608:	000007ff 	.word	0x000007ff
 800260c:	ff7fffff 	.word	0xff7fffff
 8002610:	08ff      	lsrs	r7, r7, #3
 8002612:	074b      	lsls	r3, r1, #29
 8002614:	433b      	orrs	r3, r7
 8002616:	08cc      	lsrs	r4, r1, #3
 8002618:	e616      	b.n	8002248 <__aeabi_dsub+0x314>
 800261a:	4662      	mov	r2, ip
 800261c:	08db      	lsrs	r3, r3, #3
 800261e:	0752      	lsls	r2, r2, #29
 8002620:	4313      	orrs	r3, r2
 8002622:	4662      	mov	r2, ip
 8002624:	08d4      	lsrs	r4, r2, #3
 8002626:	2280      	movs	r2, #128	; 0x80
 8002628:	0312      	lsls	r2, r2, #12
 800262a:	4214      	tst	r4, r2
 800262c:	d007      	beq.n	800263e <__aeabi_dsub+0x70a>
 800262e:	08c8      	lsrs	r0, r1, #3
 8002630:	4210      	tst	r0, r2
 8002632:	d104      	bne.n	800263e <__aeabi_dsub+0x70a>
 8002634:	465d      	mov	r5, fp
 8002636:	0004      	movs	r4, r0
 8002638:	08fb      	lsrs	r3, r7, #3
 800263a:	0749      	lsls	r1, r1, #29
 800263c:	430b      	orrs	r3, r1
 800263e:	0f5a      	lsrs	r2, r3, #29
 8002640:	00db      	lsls	r3, r3, #3
 8002642:	0752      	lsls	r2, r2, #29
 8002644:	08db      	lsrs	r3, r3, #3
 8002646:	4313      	orrs	r3, r2
 8002648:	e5fe      	b.n	8002248 <__aeabi_dsub+0x314>
 800264a:	2300      	movs	r3, #0
 800264c:	4a01      	ldr	r2, [pc, #4]	; (8002654 <__aeabi_dsub+0x720>)
 800264e:	001c      	movs	r4, r3
 8002650:	e513      	b.n	800207a <__aeabi_dsub+0x146>
 8002652:	46c0      	nop			; (mov r8, r8)
 8002654:	000007ff 	.word	0x000007ff

08002658 <__aeabi_dcmpun>:
 8002658:	b570      	push	{r4, r5, r6, lr}
 800265a:	0005      	movs	r5, r0
 800265c:	480c      	ldr	r0, [pc, #48]	; (8002690 <__aeabi_dcmpun+0x38>)
 800265e:	031c      	lsls	r4, r3, #12
 8002660:	0016      	movs	r6, r2
 8002662:	005b      	lsls	r3, r3, #1
 8002664:	030a      	lsls	r2, r1, #12
 8002666:	0049      	lsls	r1, r1, #1
 8002668:	0b12      	lsrs	r2, r2, #12
 800266a:	0d49      	lsrs	r1, r1, #21
 800266c:	0b24      	lsrs	r4, r4, #12
 800266e:	0d5b      	lsrs	r3, r3, #21
 8002670:	4281      	cmp	r1, r0
 8002672:	d008      	beq.n	8002686 <__aeabi_dcmpun+0x2e>
 8002674:	4a06      	ldr	r2, [pc, #24]	; (8002690 <__aeabi_dcmpun+0x38>)
 8002676:	2000      	movs	r0, #0
 8002678:	4293      	cmp	r3, r2
 800267a:	d103      	bne.n	8002684 <__aeabi_dcmpun+0x2c>
 800267c:	0020      	movs	r0, r4
 800267e:	4330      	orrs	r0, r6
 8002680:	1e43      	subs	r3, r0, #1
 8002682:	4198      	sbcs	r0, r3
 8002684:	bd70      	pop	{r4, r5, r6, pc}
 8002686:	2001      	movs	r0, #1
 8002688:	432a      	orrs	r2, r5
 800268a:	d1fb      	bne.n	8002684 <__aeabi_dcmpun+0x2c>
 800268c:	e7f2      	b.n	8002674 <__aeabi_dcmpun+0x1c>
 800268e:	46c0      	nop			; (mov r8, r8)
 8002690:	000007ff 	.word	0x000007ff

08002694 <__aeabi_d2iz>:
 8002694:	000a      	movs	r2, r1
 8002696:	b530      	push	{r4, r5, lr}
 8002698:	4c13      	ldr	r4, [pc, #76]	; (80026e8 <__aeabi_d2iz+0x54>)
 800269a:	0053      	lsls	r3, r2, #1
 800269c:	0309      	lsls	r1, r1, #12
 800269e:	0005      	movs	r5, r0
 80026a0:	0b09      	lsrs	r1, r1, #12
 80026a2:	2000      	movs	r0, #0
 80026a4:	0d5b      	lsrs	r3, r3, #21
 80026a6:	0fd2      	lsrs	r2, r2, #31
 80026a8:	42a3      	cmp	r3, r4
 80026aa:	dd04      	ble.n	80026b6 <__aeabi_d2iz+0x22>
 80026ac:	480f      	ldr	r0, [pc, #60]	; (80026ec <__aeabi_d2iz+0x58>)
 80026ae:	4283      	cmp	r3, r0
 80026b0:	dd02      	ble.n	80026b8 <__aeabi_d2iz+0x24>
 80026b2:	4b0f      	ldr	r3, [pc, #60]	; (80026f0 <__aeabi_d2iz+0x5c>)
 80026b4:	18d0      	adds	r0, r2, r3
 80026b6:	bd30      	pop	{r4, r5, pc}
 80026b8:	2080      	movs	r0, #128	; 0x80
 80026ba:	0340      	lsls	r0, r0, #13
 80026bc:	4301      	orrs	r1, r0
 80026be:	480d      	ldr	r0, [pc, #52]	; (80026f4 <__aeabi_d2iz+0x60>)
 80026c0:	1ac0      	subs	r0, r0, r3
 80026c2:	281f      	cmp	r0, #31
 80026c4:	dd08      	ble.n	80026d8 <__aeabi_d2iz+0x44>
 80026c6:	480c      	ldr	r0, [pc, #48]	; (80026f8 <__aeabi_d2iz+0x64>)
 80026c8:	1ac3      	subs	r3, r0, r3
 80026ca:	40d9      	lsrs	r1, r3
 80026cc:	000b      	movs	r3, r1
 80026ce:	4258      	negs	r0, r3
 80026d0:	2a00      	cmp	r2, #0
 80026d2:	d1f0      	bne.n	80026b6 <__aeabi_d2iz+0x22>
 80026d4:	0018      	movs	r0, r3
 80026d6:	e7ee      	b.n	80026b6 <__aeabi_d2iz+0x22>
 80026d8:	4c08      	ldr	r4, [pc, #32]	; (80026fc <__aeabi_d2iz+0x68>)
 80026da:	40c5      	lsrs	r5, r0
 80026dc:	46a4      	mov	ip, r4
 80026de:	4463      	add	r3, ip
 80026e0:	4099      	lsls	r1, r3
 80026e2:	000b      	movs	r3, r1
 80026e4:	432b      	orrs	r3, r5
 80026e6:	e7f2      	b.n	80026ce <__aeabi_d2iz+0x3a>
 80026e8:	000003fe 	.word	0x000003fe
 80026ec:	0000041d 	.word	0x0000041d
 80026f0:	7fffffff 	.word	0x7fffffff
 80026f4:	00000433 	.word	0x00000433
 80026f8:	00000413 	.word	0x00000413
 80026fc:	fffffbed 	.word	0xfffffbed

08002700 <__aeabi_i2d>:
 8002700:	b570      	push	{r4, r5, r6, lr}
 8002702:	2800      	cmp	r0, #0
 8002704:	d016      	beq.n	8002734 <__aeabi_i2d+0x34>
 8002706:	17c3      	asrs	r3, r0, #31
 8002708:	18c5      	adds	r5, r0, r3
 800270a:	405d      	eors	r5, r3
 800270c:	0fc4      	lsrs	r4, r0, #31
 800270e:	0028      	movs	r0, r5
 8002710:	f000 f90e 	bl	8002930 <__clzsi2>
 8002714:	4a11      	ldr	r2, [pc, #68]	; (800275c <__aeabi_i2d+0x5c>)
 8002716:	1a12      	subs	r2, r2, r0
 8002718:	280a      	cmp	r0, #10
 800271a:	dc16      	bgt.n	800274a <__aeabi_i2d+0x4a>
 800271c:	0003      	movs	r3, r0
 800271e:	002e      	movs	r6, r5
 8002720:	3315      	adds	r3, #21
 8002722:	409e      	lsls	r6, r3
 8002724:	230b      	movs	r3, #11
 8002726:	1a18      	subs	r0, r3, r0
 8002728:	40c5      	lsrs	r5, r0
 800272a:	0552      	lsls	r2, r2, #21
 800272c:	032d      	lsls	r5, r5, #12
 800272e:	0b2d      	lsrs	r5, r5, #12
 8002730:	0d53      	lsrs	r3, r2, #21
 8002732:	e003      	b.n	800273c <__aeabi_i2d+0x3c>
 8002734:	2400      	movs	r4, #0
 8002736:	2300      	movs	r3, #0
 8002738:	2500      	movs	r5, #0
 800273a:	2600      	movs	r6, #0
 800273c:	051b      	lsls	r3, r3, #20
 800273e:	432b      	orrs	r3, r5
 8002740:	07e4      	lsls	r4, r4, #31
 8002742:	4323      	orrs	r3, r4
 8002744:	0030      	movs	r0, r6
 8002746:	0019      	movs	r1, r3
 8002748:	bd70      	pop	{r4, r5, r6, pc}
 800274a:	380b      	subs	r0, #11
 800274c:	4085      	lsls	r5, r0
 800274e:	0552      	lsls	r2, r2, #21
 8002750:	032d      	lsls	r5, r5, #12
 8002752:	2600      	movs	r6, #0
 8002754:	0b2d      	lsrs	r5, r5, #12
 8002756:	0d53      	lsrs	r3, r2, #21
 8002758:	e7f0      	b.n	800273c <__aeabi_i2d+0x3c>
 800275a:	46c0      	nop			; (mov r8, r8)
 800275c:	0000041e 	.word	0x0000041e

08002760 <__aeabi_ui2d>:
 8002760:	b510      	push	{r4, lr}
 8002762:	1e04      	subs	r4, r0, #0
 8002764:	d010      	beq.n	8002788 <__aeabi_ui2d+0x28>
 8002766:	f000 f8e3 	bl	8002930 <__clzsi2>
 800276a:	4b0f      	ldr	r3, [pc, #60]	; (80027a8 <__aeabi_ui2d+0x48>)
 800276c:	1a1b      	subs	r3, r3, r0
 800276e:	280a      	cmp	r0, #10
 8002770:	dc11      	bgt.n	8002796 <__aeabi_ui2d+0x36>
 8002772:	220b      	movs	r2, #11
 8002774:	0021      	movs	r1, r4
 8002776:	1a12      	subs	r2, r2, r0
 8002778:	40d1      	lsrs	r1, r2
 800277a:	3015      	adds	r0, #21
 800277c:	030a      	lsls	r2, r1, #12
 800277e:	055b      	lsls	r3, r3, #21
 8002780:	4084      	lsls	r4, r0
 8002782:	0b12      	lsrs	r2, r2, #12
 8002784:	0d5b      	lsrs	r3, r3, #21
 8002786:	e001      	b.n	800278c <__aeabi_ui2d+0x2c>
 8002788:	2300      	movs	r3, #0
 800278a:	2200      	movs	r2, #0
 800278c:	051b      	lsls	r3, r3, #20
 800278e:	4313      	orrs	r3, r2
 8002790:	0020      	movs	r0, r4
 8002792:	0019      	movs	r1, r3
 8002794:	bd10      	pop	{r4, pc}
 8002796:	0022      	movs	r2, r4
 8002798:	380b      	subs	r0, #11
 800279a:	4082      	lsls	r2, r0
 800279c:	055b      	lsls	r3, r3, #21
 800279e:	0312      	lsls	r2, r2, #12
 80027a0:	2400      	movs	r4, #0
 80027a2:	0b12      	lsrs	r2, r2, #12
 80027a4:	0d5b      	lsrs	r3, r3, #21
 80027a6:	e7f1      	b.n	800278c <__aeabi_ui2d+0x2c>
 80027a8:	0000041e 	.word	0x0000041e

080027ac <__aeabi_d2f>:
 80027ac:	0002      	movs	r2, r0
 80027ae:	004b      	lsls	r3, r1, #1
 80027b0:	b5f0      	push	{r4, r5, r6, r7, lr}
 80027b2:	0d5b      	lsrs	r3, r3, #21
 80027b4:	030c      	lsls	r4, r1, #12
 80027b6:	4e3d      	ldr	r6, [pc, #244]	; (80028ac <__aeabi_d2f+0x100>)
 80027b8:	0a64      	lsrs	r4, r4, #9
 80027ba:	0f40      	lsrs	r0, r0, #29
 80027bc:	1c5f      	adds	r7, r3, #1
 80027be:	0fc9      	lsrs	r1, r1, #31
 80027c0:	4304      	orrs	r4, r0
 80027c2:	00d5      	lsls	r5, r2, #3
 80027c4:	4237      	tst	r7, r6
 80027c6:	d00a      	beq.n	80027de <__aeabi_d2f+0x32>
 80027c8:	4839      	ldr	r0, [pc, #228]	; (80028b0 <__aeabi_d2f+0x104>)
 80027ca:	181e      	adds	r6, r3, r0
 80027cc:	2efe      	cmp	r6, #254	; 0xfe
 80027ce:	dd16      	ble.n	80027fe <__aeabi_d2f+0x52>
 80027d0:	20ff      	movs	r0, #255	; 0xff
 80027d2:	2400      	movs	r4, #0
 80027d4:	05c0      	lsls	r0, r0, #23
 80027d6:	4320      	orrs	r0, r4
 80027d8:	07c9      	lsls	r1, r1, #31
 80027da:	4308      	orrs	r0, r1
 80027dc:	bdf0      	pop	{r4, r5, r6, r7, pc}
 80027de:	2b00      	cmp	r3, #0
 80027e0:	d106      	bne.n	80027f0 <__aeabi_d2f+0x44>
 80027e2:	432c      	orrs	r4, r5
 80027e4:	d026      	beq.n	8002834 <__aeabi_d2f+0x88>
 80027e6:	2205      	movs	r2, #5
 80027e8:	0192      	lsls	r2, r2, #6
 80027ea:	0a54      	lsrs	r4, r2, #9
 80027ec:	b2d8      	uxtb	r0, r3
 80027ee:	e7f1      	b.n	80027d4 <__aeabi_d2f+0x28>
 80027f0:	4325      	orrs	r5, r4
 80027f2:	d0ed      	beq.n	80027d0 <__aeabi_d2f+0x24>
 80027f4:	2080      	movs	r0, #128	; 0x80
 80027f6:	03c0      	lsls	r0, r0, #15
 80027f8:	4304      	orrs	r4, r0
 80027fa:	20ff      	movs	r0, #255	; 0xff
 80027fc:	e7ea      	b.n	80027d4 <__aeabi_d2f+0x28>
 80027fe:	2e00      	cmp	r6, #0
 8002800:	dd1b      	ble.n	800283a <__aeabi_d2f+0x8e>
 8002802:	0192      	lsls	r2, r2, #6
 8002804:	1e53      	subs	r3, r2, #1
 8002806:	419a      	sbcs	r2, r3
 8002808:	00e4      	lsls	r4, r4, #3
 800280a:	0f6d      	lsrs	r5, r5, #29
 800280c:	4322      	orrs	r2, r4
 800280e:	432a      	orrs	r2, r5
 8002810:	0753      	lsls	r3, r2, #29
 8002812:	d048      	beq.n	80028a6 <__aeabi_d2f+0xfa>
 8002814:	230f      	movs	r3, #15
 8002816:	4013      	ands	r3, r2
 8002818:	2b04      	cmp	r3, #4
 800281a:	d000      	beq.n	800281e <__aeabi_d2f+0x72>
 800281c:	3204      	adds	r2, #4
 800281e:	2380      	movs	r3, #128	; 0x80
 8002820:	04db      	lsls	r3, r3, #19
 8002822:	4013      	ands	r3, r2
 8002824:	d03f      	beq.n	80028a6 <__aeabi_d2f+0xfa>
 8002826:	1c70      	adds	r0, r6, #1
 8002828:	2efe      	cmp	r6, #254	; 0xfe
 800282a:	d0d1      	beq.n	80027d0 <__aeabi_d2f+0x24>
 800282c:	0192      	lsls	r2, r2, #6
 800282e:	0a54      	lsrs	r4, r2, #9
 8002830:	b2c0      	uxtb	r0, r0
 8002832:	e7cf      	b.n	80027d4 <__aeabi_d2f+0x28>
 8002834:	2000      	movs	r0, #0
 8002836:	2400      	movs	r4, #0
 8002838:	e7cc      	b.n	80027d4 <__aeabi_d2f+0x28>
 800283a:	0032      	movs	r2, r6
 800283c:	3217      	adds	r2, #23
 800283e:	db22      	blt.n	8002886 <__aeabi_d2f+0xda>
 8002840:	2080      	movs	r0, #128	; 0x80
 8002842:	0400      	lsls	r0, r0, #16
 8002844:	4320      	orrs	r0, r4
 8002846:	241e      	movs	r4, #30
 8002848:	1ba4      	subs	r4, r4, r6
 800284a:	2c1f      	cmp	r4, #31
 800284c:	dd1d      	ble.n	800288a <__aeabi_d2f+0xde>
 800284e:	2202      	movs	r2, #2
 8002850:	4252      	negs	r2, r2
 8002852:	1b96      	subs	r6, r2, r6
 8002854:	0002      	movs	r2, r0
 8002856:	40f2      	lsrs	r2, r6
 8002858:	0016      	movs	r6, r2
 800285a:	2c20      	cmp	r4, #32
 800285c:	d004      	beq.n	8002868 <__aeabi_d2f+0xbc>
 800285e:	4a15      	ldr	r2, [pc, #84]	; (80028b4 <__aeabi_d2f+0x108>)
 8002860:	4694      	mov	ip, r2
 8002862:	4463      	add	r3, ip
 8002864:	4098      	lsls	r0, r3
 8002866:	4305      	orrs	r5, r0
 8002868:	002a      	movs	r2, r5
 800286a:	1e53      	subs	r3, r2, #1
 800286c:	419a      	sbcs	r2, r3
 800286e:	4332      	orrs	r2, r6
 8002870:	2600      	movs	r6, #0
 8002872:	0753      	lsls	r3, r2, #29
 8002874:	d1ce      	bne.n	8002814 <__aeabi_d2f+0x68>
 8002876:	2480      	movs	r4, #128	; 0x80
 8002878:	0013      	movs	r3, r2
 800287a:	04e4      	lsls	r4, r4, #19
